S0180000536D6172742056656E74696C61746F722E73726563BD
S11300000C943D000C9464020C946E020C947802DF
S11300100C945A000C945A000C945A000C94C20B81
S11300200C945A000C945A000C945A000C945A00E4
S11300300C945A000C945A000C945A000C945A00D4
S11300400C945A000C945A000C945A000C945A00C4
S11300500C945A000D0742077707AC07E10716080E
S11300604B088008B508EA081F0954098909C70A1A
S1130070BE09F309280A5D0A920A11241FBECFE5BE
S1130080D8E0DEBFCDBF11E0A0E6B0E0E0E8F6E2E4
S113009002C005900D92A434B107D9F724E0A4E47A
S11300A0B1E001C01D92AD39B207E1F70E940D0B1A
S11300B00C943E130C94000088B3806188BB88B311
S11300C0806288BB88B3806488BB88B38E7F88BB1A
S11300D088B3826088BB88B3886088BB88B3806833
S11300E088BBB49909C08FED9EE20197F1F700C077
S11300F000008EE690E00895B59909C08FED9EE268
S11301000197F1F700C0000080E790E00895B699E8
S113011009C08FED9EE20197F1F700C0000082E76D
S113012090E0089588B3806188BB88B3806288BBFF
S113013088B3806488BB88B38D7F88BB88B38160B3
S113014088BB88B3886088BB88B3806888BBB4994F
S113015009C08FED9EE20197F1F700C0000084E72B
S113016090E00895B59909C08FED9EE20197F1F7EB
S113017000C0000086E790E00895B69909C08FEDAD
S11301809EE20197F1F700C0000088E790E008952F
S113019088B3806188BB88B3806288BB88B380647D
S11301A088BB88B38F7788BB88B3826088BB88B3E9
S11301B0886088BB88B3816088BBB49909C08FED1F
S11301C09EE20197F1F700C000008AE790E00895ED
S11301D0B59909C08FED9EE20197F1F700C00000C8
S11301E08CE790E00895B69909C08FED9EE20197DF
S11301F0F1F700C000008EE790E0089588B38061B5
S113020088BB88B3806288BB88B3806488BB88B3AA
S1130210877F88BB88B3816088BB88B3826088BBD2
S113022088B3806888BBB49909C08FED9EE20197BA
S1130230F1F700C0000080E890E00895B59909C086
S11302408FED9EE20197F1F700C0000084E890E092
S11302500895B69909C08FED9EE20197F1F700C0A9
S1130260000086E890E00895089540E050E00AC058
S11302702F5F3F4F02C020E030E029373105C4F33F
S11302804F5F5F4F84179507B4F7089583B1826079
S113029083B984E886BF06B607FEFDCF81E090E00F
S11302A00E94350183B18D7F83B984E886BF06B689
S11302B007FEFDCF089593B19E7F93B994E896BF4E
S11302C006B607FEFDCF93B19F7093B994E896BF2D
S11302D006B607FEFDCF93B1807F892B83B984E8EE
S11302E086BF06B607FEFDCF0E9446010895CF9350
S11302F0C82F83B18E7F83B984E886BF06B607FE14
S1130300FDCF83B18F7083B984E886BF06B607FE3C
S1130310FDCF83B19C2F907F892B83B984E886BF5E
S113032006B607FEFDCF0E94460183B18F7083B9E4
S113033084E886BF06B607FEFDCF23B130E1C39F34
S1130340C0011124822B83B984E886BF06B607FE58
S1130350FDCF0E944601CF91089580E30E945B0186
S113036080E30E945B0180E20E945B0188E20E94BC
S113037077018CE00E94770181E00E94770186E09A
S11303800E94770180E80E9477010895CF93C82FD7
S113039083B1816083B984E886BF06B607FEFDCFCA
S11303A083B18F7083B984E886BF06B607FEFDCF9C
S11303B083B19C2F907F892B83B984E886BF06B6CE
S11303C007FEFDCF0E94460183B18F7083B984E894
S11303D086BF06B607FEFDCF23B130E1C39FC0013F
S11303E01124822B83B984E886BF06B607FEFDCFAD
S11303F00E944601CF910895CF93DF93EC0103C08F
S113040021960E94C60188818111FACFDF91CF9194
S1130410089582E680B984E086BF11B8089584EA1D
S113042086BF06B607FEFDCF089583B984E886BF6C
S113043006B607FEFDCF08952AB128692AB920B56A
S1130440266820BDDC01CB01880F991FAA1FBB1FA2
S1130450880F991FAA1FBB1F9C01AD01220F331FD8
S1130460441F551F220F331F441F551F60E072E1C4
S11304708AE790E00E94B00E8FEF820F89B9DA010B
S1130480C9010197A109B109892F9A2FAB2FBB2765
S113049080BD08958CB95D9BFECF08950F931F9383
S11304A0CF93DF938C01C0E0D0E003C00E944A02E6
S11304B02196F801EC0FFD1F80818111F7CFDF91A8
S11304C0CF911F910F9108951F920F920FB60F9223
S11304D011240F900FBE0F901F9018951F920F922A
S11304E00FB60F9211240F900FBE0F901F90189506
S11304F01F920F920FB60F9211240F900FBE0F9000
S11305001F9018950F931F93CF93DF93CDB7DEB74A
S1130510C456D1090FB6F894DEBF0FBECDBF89E82B
S113052090E00E944E028FE19EE40197F1F700C033
S113053000008FE890E09F938F939F938F9387E9B8
S113054090E09F938F938EE990E09F938F938E0119
S11305500F5F1F4F1F930F930E944410C8010E9406
S11305604E0284E6E4E4F1E0DF011D928A95E9F7A6
S11305708FE19EE40197F1F700C0000086EB90E064
S11305800E944E020FB6F894DEBF0FBECDBFCC5909
S1130590DF4F0FB6F894DEBF0FBECDBFDF91CF9112
S11305A01F910F9108958F929F92AF92BF92CF9215
S11305B0DF92EF92FF920F931F934B015C01CA01EC
S11305C0B90120E030E04AE754E40E94D40D6B0105
S11305D07C0120E030E04AE754E4C501B4010E9404
S11305E0D40D4B015C019B01AC01C701B6010E9413
S11305F0CF0D18160CF0B7C18091E7039091E80372
S1130600892B09F040C00E94FA0B6093E7037093B2
S1130610E8038093E9039093EA030E941D0DA5016A
S113062094010E940B0C0E94EE0C6093E303709300
S1130630E4038093E5039093E60381E090E0A0E077
S1130640B0E08093380390933903A0933A03B093B6
S11306503B0385B3846085BB85B3877F85BB80916D
S1130660380390913903A0913A03B0913B0301966A
S1130670A11DB11D8093380390933903A0933A03CD
S1130680B0933B0370C10E94FA0B0091E3031091F5
S1130690E4032091E5033091E603061717072807C2
S11306A0390708F085C08091380390913903A091EF
S11306B03A03B0913B0382309105A105B10529F0BD
S11306C00397A105B105A1F162C085B38B7F85BBFA
S11306D08091380390913903A0913A03B0913B0380
S11306E00196A11DB11D8093380390933903A09303
S11306F03A03B0933B036091E3037091E403809168
S1130700E5039091E6030E941D0DA70196010E9446
S11307100B0CA50194010E940A0C0E94EE0C60933C
S1130720E3037093E4038093E5039093E6031BC112
S113073085B3886085BB8091380390913903A0917B
S11307403A03B0913B030196A11DB11D8093380378
S113075090933903A0933A03B0933B036091E3036E
S11307607091E4038091E5039091E6030E941D0DCE
S1130770A70196010E940B0C0E94EE0C6093E30308
S11307807093E4038093E5039093E603ECC0109226
S113079038031092390310923A0310923B031092DB
S11307A0E7031092E8031092E9031092EA03DBC016
S11307B08091E7039091E803892B09F040C00E94DF
S11307C0FA0B6093E7037093E8038093E903909333
S11307D0EA030E941D0DA70196010E940B0C0E94C2
S11307E0EE0C6093E3037093E4038093E50390932A
S11307F0E60381E090E0A0E0B0E0809338039093BA
S11308003903A0933A03B0933B0385B3846085BB5B
S113081085B3877F85BB8091380390913903A0917C
S11308203A03B0913B030196A11DB11D8093380397
S113083090933903A0933A03B0933B0394C00E946E
S1130840FA0B0091E3031091E4032091E503309146
S1130850E603061717072807390708F084C08091B4
S1130860380390913903A0913A03B0913B0382304D
S11308709105A105B10529F00397A105B105A1F1E1
S113088062C085B3886085BB809138039091390339
S1130890A0913A03B0913B030196A11DB11D809331
S11308A0380390933903A0933A03B0933B036091C8
S11308B0E3037091E4038091E5039091E6030E94C1
S11308C01D0DA50194010E940B0CA70196010E9425
S11308D00A0C0E94EE0C6093E3037093E40380938C
S11308E0E5039093E6033FC085B38B7F85BB80917E
S11308F0380390913903A0913A03B0913B030196D8
S1130900A11DB11D8093380390933903A0933A033A
S1130910B0933B036091E3037091E4038091E5039A
S11309209091E6030E941D0DA50194010E940B0CF9
S11309300E94EE0C6093E3037093E4038093E50359
S11309409093E60310C0109238031092390310926A
S11309503A0310923B031092E7031092E8031092BB
S1130960E9031092EA031F910F91FF90EF90DF903B
S1130970CF90BF90AF909F908F90089560E070E803
S11309808BE396E408954F925F926F927F928F92D9
S11309909F92AF92BF92CF92DF92EF92FF926B0140
S11309A07C01BA01550F880B990B0E941F0D9B0106
S11309B0AC0160E070E080EF91E40E947C0C4B019C
S11309C05C012AE43CE042EA5FE3C701B6010E940D
S11309D0D40D29E23CE545ED51E40E940A0C21E7DF
S11309E03DE34AE45FE30E94D40D2B013C01A701DF
S11309F0960160E070E088EC92E40E940A0C9B018E
S1130A00AC01C301B2010E947C0C2B013C010E9489
S1130A10BE049B01AC0168ED73E186E098E40E949A
S1130A207C0C6B017C012DEC3CEC4CE95FE3C701D1
S1130A30B6010E947C0C0E94470E9B01AC01C301CD
S1130A40B2010E94D40D6B017C0120E030E040E84B
S1130A505FE30E94CF0D18165CF4A7019601C5014F
S1130A60B4010E947C0CA50194010E94D3020CC025
S1130A70A7019601C501B4010E94D40D9B01AC01EC
S1130A80C501B4010E94D302FF90EF90DF90CF9094
S1130A90BF90AF909F908F907F906F905F904F909A
S1130AA0089580E090E0089585E290E0089581E063
S1130AB0089581E008950E94FC010895EF92FF9249
S1130AC00F931F93CF93DF938C01EB01FC010190F3
S1130AD00020E9F73197CF01801B910BFB010190B6
S1130AE00020E9F73197E61BF70B8E0F9F1F019645
S1130AF00E94EC0E7C01B8010E941810BE01C701CF
S1130B000E940D10C701DF91CF911F910F91FF90AB
S1130B10EF900895BF92CF92DF92EF92FF920F93DE
S1130B201F93CF93DF93CDB7DEB7C456D1090FB669
S1130B30F894DEBF0FBECDBF182F092FC62EB72ED7
S1130B408FEC90E00E944E028FE19EE40197F1F752
S1130B5000C0000083ED90E00E944E02EFE1FEE44D
S1130B603197F1F700C000000F931F938EED90E0D2
S1130B709F938F938E010F5F1F4F1F930F930E94BC
S1130B804410C8010E944E020F2EF4E4EF2EF1E04F
S1130B90FF2EF02D0F2EF4E6DF2EF02DF7018D2D14
S1130BA011928A95E9F7BF92CF9286EE90E09F93D7
S1130BB08F931F930F930E944410C8010E944E020A
S1130BC0F7011192DA94E9F70FB6F894DEBF0FBE7D
S1130BD0CDBFCC59DF4F0FB6F894DEBF0FBECDBFEB
S1130BE0DF91CF911F910F91FF90EF90DF90CF9005
S1130BF0BF9008950F931F93CF93DF9300D000D03D
S1130C00CDB7DEB78C01CB014AE0BE016F5F7F4FE9
S1130C100E941F10BE016F5F7F4FC8010E945E05D6
S1130C20BC0185E894E00E948A050F900F900F9014
S1130C300F90DF91CF911F910F910895CF92DF9282
S1130C40EF92FF920F931F93CF93DF9300D000D0C6
S1130C50CDB7DEB70E9454058C01BC01990F880BF7
S1130C60990B0E941F0D6B017C012DEC3CEC44E1BF
S1130C7052E40E94CF0D181654F026E636E640E101
S1130C8052E4C701B6010E94770C8823BCF4B80172
S1130C908AEE90E00E94FA054AE0BE016F5F7F4F42
S1130CA0C8010E941F10BE016F5F7F4F8AEE90E063
S1130CB00E945E050E945B0580E001C081E00F9008
S1130CC00F900F900F90DF91CF911F910F91FF9094
S1130CD0EF90DF90CF90089580E590E00895EF9233
S1130CE0FF921F93CF93DF9300D000D0CDB7DEB730
S1130CF00E945905182F8823E9F00E946C067C0194
S1130D008AE0E816F104B4F4B70182E091E00E94AD
S1130D10FA054AE0BE016F5F7F4FC7010E941F10B2
S1130D20BE016F5F7F4F8CE191E00E945E050E94DF
S1130D305B0510E0812F0F900F900F900F90DF91C3
S1130D40CF911F91FF90EF9008950F931F93CF932E
S1130D50DF93EC018091930490919404892B09F022
S1130D603FC00E94FA0B8B019C0160939304709323
S1130D7094048093950490939604CE01880F991F50
S1130D80BE01660F771F660F771F660F771F680F08
S1130D90791F80E395E70E949C0ECB01770FAA0B85
S1130DA0BB0B080F191F2A1F3B1F00933D03109311
S1130DB03E0320933F033093400381E090E09093FF
S1130DC0E2038093E10385B3806185BB8091E103F5
S1130DD09091E20301969093E2038093E103E3C3CD
S1130DE00E94FA0B00913D0310913E0320913F03B2
S1130DF030914003061717072807390708F0D3C3B3
S1130E00E091E103F091E2033297E331F10508F058
S1130E10BEC3E65DFF4F0C94D20E85B3806485BBE0
S1130E208091E1039091E20301969093E203809311
S1130E30E103CE01880F991FBE01660F771F660F6D
S1130E40771F660F771F680F791F80E395E70E946D
S1130E509C0EAB01770F660B770B80913D0390914D
S1130E603E03A0913F03B0914003840F951FA61F3A
S1130E70B71F80933D0390933E03A0933F03B09329
S1130E80400391C385B38F7E85BB8091E10390912C
S1130E90E20301969093E2038093E103CE01880F6D
S1130EA0991FBE01660F771F660F771F660F771FA6
S1130EB0680F791F80E395E70E949C0EAB01770FC2
S1130EC0660B770B80913D0390913E03A0913F0305
S1130ED0B0914003840F951FA61FB71F80933D0355
S1130EE090933E03A0933F03B09340035CC385B348
S1130EF0806285BB8091E1039091E2030196909317
S1130F00E2038093E103CE01880F991FBE01660FAF
S1130F10771F660F771F660F771F680F791F80E3AF
S1130F2095E70E949C0EAB01770F660B770B8091BF
S1130F303D0390913E03A0913F03B0914003840F81
S1130F40951FA61FB71F80933D0390933E03A09364
S1130F503F03B093400327C385B38F7B85BB809148
S1130F60E1039091E20301969093E2038093E103FD
S1130F70CE01880F991FBE01660F771F660F771F7A
S1130F80660F771F680F791F80E395E70E949C0E18
S1130F90AB01770F660B770B80913D0390913E0375
S1130FA0A0913F03B0914003840F951FA61FB71F64
S1130FB080933D0390933E03A0933F03B09340037B
S1130FC0F2C285B3806885BB8091E1039091E2030E
S1130FD001969093E2038093E103CE01880F991F59
S1130FE0BE01660F771F660F771F660F771F680FA6
S1130FF0791F80E395E70E949C0EAB01770F660B87
S1131000770B80913D0390913E03A0913F03B091F3
S11310104003840F951FA61FB71F80933D03909331
S11310203E03A0933F03B0934003BDC285B38F7DBD
S113103085BB8091E1039091E20301969093E203D2
S11310408093E103CE01880F991FBE01660F771FBD
S1131050660F771F660F771F680F791F80E395E788
S11310600E949C0EAB01770F660B770B80913D03BA
S113107090913E03A0913F03B0914003840F951FCC
S1131080A61FB71F80933D0390933E03A0933F0395
S1131090B093400388C285B3806185BB8091E1032E
S11310A09091E20301969093E2038093E103CE01D1
S11310B0880F991FBE01660F771F660F771F660F93
S11310C0771F680F791F80E395E70E949C0EAB01A0
S11310D0770F660B770B80913D0390913E03A091AF
S11310E03F03B0914003840F951FA61FB71F809341
S11310F03D0390933E03A0933F03B093400353C238
S113110085B38F7785BB8091E1039091E2030196CB
S11311109093E2038093E103CE01880F991FBE01EF
S1131120660F771F660F771F660F771F680F791F8B
S113113080E395E70E949C0EAB01770F660B770B5B
S113114080913D0390913E03A0913F03B0914003F1
S1131150840F951FA61FB71F80933D0390933E03F2
S1131160A0933F03B09340031EC285B38F7E85BB1B
S11311708091E1039091E20301969093E2038093BE
S1131180E103CE01880F991FBE01660F771F660F1A
S1131190771F660F771F680F791F80E395E70E941A
S11311A09C0EAB01770F660B770B80913D039091FA
S11311B03E03A0913F03B0914003840F951FA61FE7
S11311C0B71F80933D0390933E03A0933F03B093D6
S11311D04003E9C185B3806185BB8091E1039091AF
S11311E0E20301969093E2038093E103CE01880F1A
S11311F0991FBE01660F771F660F771F660F771F53
S1131200680F791F80E395E70E949C0EAB01770F6E
S1131210660B770B80913D0390913E03A0913F03B1
S1131220B0914003840F951FA61FB71F80933D0301
S113123090933E03A0933F03B0934003B4C185B39E
S1131240806885BB8091E1039091E20301969093BD
S1131250E2038093E103CE01880F991FBE01660F5C
S1131260771F660F771F660F771F680F791F80E35C
S113127095E70E949C0EAB01770F660B770B80916C
S11312803D0390913E03A0913F03B0914003840F2E
S1131290951FA61FB71F80933D0390933E03A09311
S11312A03F03B09340037FC185B38F7E85BB80919C
S11312B0E1039091E20301969093E2038093E103AA
S11312C0CE01880F991FBE01660F771F660F771F27
S11312D0660F771F680F791F80E395E70E949C0EC5
S11312E0AB01770F660B770B80913D0390913E0322
S11312F0A0913F03B0914003840F951FA61FB71F11
S113130080933D0390933E03A0933F03B093400327
S11313104AC185B3806285BB8091E1039091E20369
S113132001969093E2038093E103CE01880F991F05
S1131330BE01660F771F660F771F660F771F680F52
S1131340791F80E395E70E949C0EAB01770F660B33
S1131350770B80913D0390913E03A0913F03B091A0
S11313604003840F951FA61FB71F80933D039093DE
S11313703E03A0933F03B093400315C185B38F7719
S113138085BB8091E1039091E20301969093E2037F
S11313908093E103CE01880F991FBE01660F771F6A
S11313A0660F771F660F771F680F791F80E395E735
S11313B00E949C0EAB01770F660B770B80913D0367
S11313C090913E03A0913F03B0914003840F951F79
S11313D0A61FB71F80933D0390933E03A0933F0342
S11313E0B0934003E0C085B3806485BB8091E10382
S11313F09091E20301969093E2038093E103CE017E
S1131400880F991FBE01660F771F660F771F660F3F
S1131410771F680F791F80E395E70E949C0EAB014C
S1131420770F660B770B80913D0390913E03A0915B
S11314303F03B0914003840F951FA61FB71F8093ED
S11314403D0390933E03A0933F03B0934003ABC08E
S113145085B38F7D85BB8091E1039091E203019672
S11314609093E2038093E103CE01880F991FBE019C
S1131470660F771F660F771F660F771F680F791F38
S113148080E395E70E949C0EAB01770F660B770B08
S113149080913D0390913E03A0913F03B09140039E
S11314A0840F951FA61FB71F80933D0390933E039F
S11314B0A0933F03B093400376C085B38F7B85BB75
S11314C08091E1039091E20301969093E20380936B
S11314D0E103CE01880F991FBE01660F771F660FC7
S11314E0771F660F771F680F791F80E395E70E94C7
S11314F09C0EAB01770F660B770B80913D039091A7
S11315003E03A0913F03B0914003840F951FA61F93
S1131510B71F80933D0390933E03A0933F03B09382
S1131520400341C085B38F7E85BB8091E1039091D8
S1131530E20301969093E2038093E103CE01880FC6
S1131540991FBE01660F771F660F771F660F771FFF
S1131550680F791F80E395E70E949C0EAB01770F1B
S1131560660B770B80913D0390913E03A0913F035E
S1131570B0914003840F951FA61FB71F80933D03AE
S113158090933E03A0933F03B09340030CC010928A
S1131590E2031092E10310929304109294041092C7
S11315A0950410929604DF91CF911F910F910895A5
S11315B0CF93DF93C0916800D09169006091660079
S11315C070916700072E000C880B990B0E941F0D69
S11315D0AE010E94C30460916A0070916B00809117
S11315E06800909169000E94A506DF91CF9108954B
S11315F060916A0070916B0080916800909169001D
S11316000E94A506409168005091690060E070E076
S113161088EC92E40E94C304089584B3846084BB7C
S113162084B3886084BB84B3806184BB84B38062E8
S113163084BB84B3806484BB84B3806884BB8BE83C
S113164087BB81B381BB81B381BB81B381BB81B3D0
S113165081BB80EE8BBF85E085BF80E484BF60E002
S113166072E18AE790E00E94E70B78940E940902F5
S11316700E940F0280E70E9415020E94AD0160E8FB
S113168075E280E090E00E941C022FEF89E698E169
S1131690215080409040E1F700C000000E94820287
S11316A088B3806188BB88B3806288BB88B3806458
S11316B088BB88B38E7F88BB88B38D7F88BB88B393
S11316C0877F88BB88B38F7788BB88E20E947701C5
S11316D084E391E00E94FC012FEF8DE399E4215013
S11316E080409040E1F700C0000096B386B3929525
S11316F09F7021E09227917082958695877082274A
S11317008170892B96B39295969596959370292717
S11317102170811101C039F00E945C0080933C0368
S113172090E00E94FC018CE390E00E94D80A0E94A1
S11317306F06882321F10E9457058823B9F00E947F
S11317401E06882381F30E94510520916C0030917C
S11317506D00821793073CF48091660090916700B6
S11317600E94D80AE0CF0E94F80ADDCF0E941E062C
S113177080916600909167000E94D80AD4CF80E0DF
S113178090E008951F920F920FB60F9211248F9339
S11317909F93AF93BF938091EB039091EC03A0913F
S11317A0ED03B091EE030196A11DB11D8093EB03EF
S11317B09093EC03A093ED03B093EE03BF91AF912C
S11317C09F918F910F900FBE0F901F90189520E45A
S11317D03FE140E050E00E94B00E8EB58A608EBDBD
S11317E0BB27A52F942F832F8BBD2ABD89B780617A
S11317F089BF0895F89421E009C06091EB037091CA
S1131800EC038091ED039091EE0320E02111F5CFDC
S1131810789408955058BB27AA270E94220C0C9450
S1131820950D0E94870D38F00E948E0D20F039F43A
S11318309F3F19F426F40C94840D0EF4E095E7FB15
S11318400C947E0DE92F0E94A60D58F3BA17620777
S113185073078407950720F079F4A6F50C94C80D56
S11318600EF4E0950B2EBA2FA02D0B01B9019001B7
S11318700C01CA01A0011124FF27591B99F0593FFB
S113188050F4503E68F11A16F040A22F232F342F43
S11318904427585FF3CF469537952795A795F04091
S11318A05395C9F77EF41F16BA0B620B730B840BA6
S11318B0BAF09150A1F0FF0FBB1F661F771F881F5E
S11318C0C2F70EC0BA0F621F731F841F48F48795B6
S11318D077956795B795F7959E3F08F0B0CF9395A8
S11318E0880F08F09927EE0F9795879508950E9421
S11318F05A0D08F481E008950E94900C0C94950D03
S11319000E948E0D58F00E94870D40F029F45F3F2D
S113191029F00C947E0D51110C94C90D0C94840D76
S11319200E94A60D68F39923B1F3552391F3951BF7
S1131930550BBB27AA2762177307840738F09F5FEC
S11319405F4F220F331F441FAA1FA9F335D00E2E59
S11319503AF0E0E832D091505040E695001CCAF7C6
S11319602BD0FE2F29D0660F771F881FBB1F261789
S113197037074807AB07B0E809F0BB0B802DBF0160
S1131980FF2793585F4F3AF09E3F510578F00C942F
S11319907E0D0C94C90D5F3FE4F3983ED4F3869515
S11319A077956795B795F7959F5FC9F7880F911D50
S11319B09695879597F90895E1E0660F771F881F3C
S11319C0BB1F621773078407BA0720F0621B730BEF
S11319D0840BBA0BEE1F88F7E09508950E94AE0DB4
S11319E088F09F5798F0B92F9927B751B0F0E1F0DC
S11319F0660F771F881F991F1AF0BA95C9F714C08C
S1131A00B13091F00E94C80DB1E008950C94C80D56
S1131A10672F782F8827B85F39F0B93FCCF38695C4
S1131A2077956795B395D9F73EF490958095709521
S1131A3061957F4F8F4F9F4F0895E89409C097FB9E
S1131A403EF490958095709561957F4F8F4F9F4F91
S1131A509923A9F0F92F96E9BB279395F6958795D5
S1131A6077956795B795F111F8CFFAF4BB0F11F498
S1131A7060FF1BC06F5F7F4F8F4F9F4F16C088233F
S1131A8011F096E911C0772321F09EE8872F762F75
S1131A9005C0662371F096E8862F70E060E02AF0B6
S1131AA09A95660F771F881FDAF7880F96958795A2
S1131AB097F90895990F0008550FAA0BE0E8FEEF77
S1131AC016161706E807F907C0F012161306E407FE
S1131AD0F50798F0621B730B840B950B39F40A26F7
S1131AE061F0232B242B252B21F408950A2609F4D5
S1131AF0A140A6958FEF811D811D089597F99F67D9
S1131B0080E870E060E008959FEF80EC0895002481
S1131B100A941616170618060906089500240A944E
S1131B2012161306140605060895092E0394000CD4
S1131B3011F4882352F0BB0F40F4BF2B11F460FF63
S1131B4004C06F5F7F4F8F4F9F4F089557FD90588C
S1131B50440F551F59F05F3F71F04795880F97FB6D
S1131B60991F61F09F3F79F0879508951216130627
S1131B701406551FF2CF4695F1DF08C01616170656
S1131B801806991FF1CF869571056105089408958B
S1131B90E894BB2766277727CB0197F908950E941D
S1131BA05A0D08F48FEF08950E94E70D0C94950DDB
S1131BB00E94870D38F00E948E0D20F0952311F0BD
S1131BC00C947E0D0C94840D11240C94C90D0E9468
S1131BD0A60D70F3959FC1F3950F50E0551F629FBA
S1131BE0F001729FBB27F00DB11D639FAA27F00D72
S1131BF0B11DAA1F649F6627B00DA11D661F829F99
S1131C002227B00DA11D621F739FB00DA11D621F7D
S1131C10839FA00D611D221F749F3327A00D611D9A
S1131C20231F849F600D211D822F762F6A2F11247C
S1131C309F5750409AF0F1F088234AF0EE0FFF1FAF
S1131C40BB1F661F771F881F91505040A9F79E3F06
S1131C50510580F00C947E0D0C94C90D5F3FE4F3A4
S1131C60983ED4F3869577956795B795F795E7955C
S1131C709F5FC1F7FE2B880F911D9695879597F965
S1131C80089519F416F40C94840D0C94870E0E9494
S1131C90AE0DB8F39923C9F3B6F39F57550B87FFDD
S1131CA00E94950E0024A0E640EA900180585695C3
S1131CB0979528F4805C660F771F881F20F02617FD
S1131CC03707480730F4621B730B840B2029312932
S1131CD04A2BA69517940794202531254A2758F7AF
S1131CE0660F771F881F20F026173707480730F440
S1131CF0620B730B840B200D311D411DA09581F7E0
S1131D00B901842F9158880F9695879508959F3F20
S1131D1031F0915020F4879577956795B795880FA2
S1131D20911D9695879597F9089591505040660FA7
S1131D30771F881FD2F7089597FB072E16F4009497
S1131D4007D077FD09D00E94D80E07FC05D03EF4D9
S1131D50909581959F4F0895709561957F4F089553
S1131D60A1E21A2EAA1BBB1BFD010DC0AA1FBB1F9B
S1131D70EE1FFF1FA217B307E407F50720F0A21B0D
S1131D80B30BE40BF50B661F771F881F991F1A947A
S1131D9069F760957095809590959B01AC01BD01A4
S1131DA0CF010895EE0FFF1F0590F491E02D0994E3
S1131DB0AA1BBB1B51E107C0AA1FBB1FA617B7076D
S1131DC010F0A61BB70B881F991F5A95A9F7809589
S1131DD09095BC01CD0108950F931F93CF93DF938A
S1131DE08230910510F482E090E0E0919B04F09140
S1131DF09C0420E030E0A0E0B0E0309719F140818D
S1131E0051810281138148175907C8F08417950737
S1131E1069F4109731F012960C93129713961C9351
S1131E2027C000939B0410939C0422C02115310504
S1131E3019F04217530718F49A01BD01EF01DF01AD
S1131E40F801DBCF21153105F9F0281B390B2430BB
S1131E50310580F48A819B816115710521F0FB01B4
S1131E609383828304C090939C0480939B04FE011B
S1131E70329644C0FE01E20FF31F819391932250E6
S1131E803109398328833AC02091990430919A0406
S1131E90232B41F4209162003091630030939A0423
S1131EA0209399042091600030916100211531053F
S1131EB041F42DB73EB74091640050916500241B56
S1131EC0350BE0919904F0919A04E217F307A0F41A
S1131ED02E1B3F0B2817390778F0AC014E5F5F4F7C
S1131EE02417350748F04E0F5F1F50939A04409310
S1131EF099048193919302C0E0E0F0E0CF01DF9177
S1131F00CF911F910F910895CF93DF93009709F418
S1131F1081C0FC01329713821282A0919B04B0917C
S1131F209C04109781F420813181820F931F2091AA
S1131F30990430919A042817390751F5F0939A04BB
S1131F40E093990467C0ED0120E030E0CE17DF078D
S1131F5040F44A815B819E0141155105F1F0EA018B
S1131F60F5CFD383C28340815181840F951FC81755
S1131F70D90759F488819981840F951F029691831A
S1131F8080838A819B81938382832115310529F47F
S1131F90F0939C04E0939B043DC0E901FB83EA8336
S1131FA049915991C40FD51FEC17FD0761F4808145
S1131FB09181840F951F0296E90199838883828118
S1131FC093819B838A83E0E0F0E012968D919C914B
S1131FD01397009719F0FD01DC01F7CF8D919C91C7
S1131FE011979D012E5F3F4F820F931F20919904FB
S1131FF030919A042817390769F4309729F410921C
S11320009C0410929B0402C013821282B0939A041F
S1132010A0939904DF91CF910895FB01DC010D9009
S11320200020E9F7119701900D920020E1F708953F
S1132030FB01DC0101900D920020E1F70895BB271C
S11320404A3031F4992322F4BDE2909581959F4F53
S11320500C942B10BB27FB015527AA27880F991F27
S1132060AA1FA41710F0A41B83955051B9F7A05DC3
S1132070AA3308F0A95DA193009779F7B111B19340
S11320801192CB010C945D12AEE0B0E0EAE4F0E111
S11320900C9415130D891E8986E08C831A83098399
S11320A08FEF9FE79E838D83AE01475E5F4F6F89FD
S11320B0788DCE0101960E946610EF81F885E00FBD
S11320C0F11F10822E96E4E00C943113ABE0B0E0E3
S11320D0ECE6F0E10C9407136C017B018A01FC012E
S11320E017821682838181FFCCC1CE0101963C0107
S11320F0F6019381F70193FD859193FF81917F010F
S1132100882309F4BAC1853239F493FD859193FF8C
S113211081917F01853229F4B60190E00E946D120D
S1132120E7CF912C212C312CFFE1F315D8F08B3221
S113213079F038F4803279F08332A1F4232D2061D0
S11321401DC08D3261F0803369F4232D216016C0E7
S1132150832D8260382EE32DE4603E2E2AC0F32DB9
S1132160F8601DC037FC2DC020ED280F2A3040F048
S11321708E32B9F436FC81C1232D2064322E19C06D
S113218036FE06C08AE0989E200D1124922E11C0BE
S1132190EAE02E9E200D1124222EF32DF0623F2E14
S11321A008C08C3621F4832D8068382E02C088360E
S11321B041F4F70193FD859193FF81917F01811192
S11321C0B3CF982F9F7D9554933028F40C5F1F4F05
S11321D09FE399830DC0833631F0833771F08335E3
S11321E009F059C021C0F801808189830E5F1F4F17
S11321F088248394912C530113C02801F2E04F0EDC
S1132200511CF801A080B18036FE03C0692D70E036
S113221002C06FEF7FEFC5010E9452124C01820190
S1132220F32DFF773F2E16C0280122E0420E511CE9
S1132230F801A080B18036FE03C0692D70E002C0B1
S11322406FEF7FEFC5010E9447124C01F32DF06838
S11322503F2E820133FC1BC0822D90E08816990624
S1132260B0F4B60180E290E00E946D122A94F4CF9B
S1132270F50137FC859137FE81915F01B60190E04D
S11322800E946D1221102A9421E0821A910881146F
S1132290910471F7E8C0843611F0893641F5F801EC
S11322A037FE07C060817181828193810C5F1F4F6B
S11322B008C060817181072E000C880B990B0E5F9A
S11322C01F4FF32DFF763F2E97FF09C09095809501
S11322D0709561957F4F8F4F9F4FF0683F2E2AE096
S11322E030E0A3010E94A912882E861845C08537C4
S11322F031F4232D2F7EB22E2AE030E025C0932D19
S1132300997FB92E8F36C1F018F4883579F0B5C0AD
S1132310803719F0883721F0B0C0E92FE061BE2E74
S1132320B4FE0DC0FB2DF460BF2E09C034FE0AC0FC
S1132330292F2660B22E06C028E030E005C020E137
S113234030E002C020E132E0F801B7FE07C060814E
S11323507181828193810C5F1F4F06C060817181FE
S113236080E090E00E5F1F4FA3010E94A912882E07
S11323708618FB2DFF773F2E36FE0DC0232D2E7FB2
S1132380A22E891458F434FE0BC032FC09C0832DEC
S11323908E7EA82E05C0B82CA32C03C0B82C01C077
S11323A0B92CA4FE0FC0FE01E80DF11D808180331D
S11323B021F49A2D997EA92E09C0A2FE06C0B394D9
S11323C0B39404C08A2D867809F0B394A3FC11C099
S11323D0A0FE06C0B21488F4280C922C9B180EC0E0
S11323E0B21460F4B60180E290E00E946D12B394DE
S11323F0F7CFB21418F42B1802C0982C212CA4FE89
S113240010C0B60180E390E00E946D12A2FE17C0D6
S1132410A1FC03C088E790E002C088E590E0B60123
S11324200CC08A2D867859F0A1FE02C08BE201C04F
S113243080E2A7FC8DE2B60190E00E946D1289143F
S113244038F4B60180E390E00E946D129A94F7CFBD
S11324508A94F301E80DF11D8081B60190E00E9499
S11324606D128110F5CF222009F442CEB60180E22C
S113247090E00E946D122A94F6CFF601868197812E
S113248002C08FEF9FEF2B96E2E10C942313FC0123
S11324900590615070400110D8F7809590958E0F8B
S11324A09F1F0895FC016150704001900110D8F7FE
S11324B0809590958E0F9F1F0895DC01FC01672F76
S11324C071917723E1F7329704C07C916D93708307
S11324D06291AE17BF07C8F308950F931F93CF936C
S11324E0DF93FB01238121FD03C08FEF9FEF2CC0FD
S11324F022FF16C046815781248135814217530734
S113250044F4A081B1819D012F5F3F4F318320832B
S11325108C93268137812F5F3F4F3783268314C0E6
S11325208B01EC01FB010084F185E02D0995892BD9
S1132530E1F6D80116968D919C91179701961796FE
S11325409C938E931697CE01DF91CF911F910F919B
S11325500895FA01AA27283051F1203181F1E89435
S11325606F936E7F6E5F7F4F8F4F9F4FAF4FB1E082
S11325703ED0B4E03CD0670F781F891F9A1FA11D7D
S1132580680F791F8A1F911DA11D6A0F711D811D7E
S1132590911DA11D20D009F468943F912AE0269F43
S11325A011243019305D3193DEF6CF010895462FA2
S11325B04770405D4193B3E00FD0C9F7F6CF462F83
S11325C04F70405D4A3318F0495D31FD40524193EC
S11325D002D0A9F7EACFB4E0A695979587957795A9
S11325E06795BA95C9F700976105710508959B0130
S11325F0AC010A2E06945795479537952795BA95B9
S1132600C9F7620F731F841F951FA01D08952F9291
S11326103F924F925F926F927F928F929F92AF926E
S1132620BF92CF92DF92EF92FF920F931F93CF93BB
S1132630DF93CDB7DEB7CA1BDB0B0FB6F894DEBF52
S11326400FBECDBF09942A88398848885F846E8478
S11326507D848C849B84AA84B984C884DF80EE80C2
S1132660FD800C811B81AA81B981CE0FD11D0FB6CB
S1132670F894DEBF0FBECDBFED010895F894FFCFEF
S113268000009D0420005A000C003200610031005B
S1132690320033003400350036003700380039008A
S11326A0434C520030004F4B00415445300D006DF7
S11326B06F626974656C006469616C6F6700415492
S11326C02B435354543D222573222C222573222C50
S11326D0222573220D0041542B53415042523D3167
S11326E02C310D00747275650066616C7365004170
S11326F0540D0041542B434D47463D310D00415488
S11327002B434D47533D25730D0054656D70657221
S11327106174757265204E6F74204E6F726D616CBA
S11327202D004F787967656E2054616E6B2050657B
S11327307263656E74616765203A20004F7879672B
S1132740656E2054616E6B2050657263656E7461B2
S113275067652000204164642050686F6E65204ED8
S1072760756D20006F
S9030000FC
