S0180000536D6172742056656E74696C61746F722E73726563BD
S11300000C942A000C9447000C9447000C9447006D
S11300100C9447000C9447000C9447000C94470040
S11300200C9447000C9447000C9447000C94470030
S11300300C9447000C9447000C9447000C94470020
S11300400C9447000C9447000C9447000C94470010
S11300500C94470011241FBECFE5D8E0DEBFCDBF0E
S113006011E0A0E6B0E0E8E1F5E102C005900D92F0
S1130070A030B107D9F722E0A0E0B1E001C01D92A1
S1130080A83FB207E1F70E942F030C948A0A0C944C
S113009000002AB128692AB920B5266820BDDC01F0
S11300A0CB01880F991FAA1FBB1F880F991FAA1F76
S11300B0BB1F9C01AD01220F331F441F551F220F8C
S11300C0331F441F551F60E072E18AE790E00E94ED
S11300D016068FEF820F89B9DA01C9010197A109C8
S11300E0B109892F9A2FAB2FBB2780BD08958CB9F6
S11300F05D9BFECF08950F931F93CF93DF938C01E5
S1130100C0E0D0E003C00E9477002196F801EC0F14
S1130110FD1F80818111F7CFDF91CF911F910F9146
S113012008950F931F93CF93DF93CDB7DEB7C456D3
S1130130D1090FB6F894DEBF0FBECDBF88E790E0BB
S11301400E947B008FE19EE40197F1F700C000005C
S11301508EE790E09F938F939F938F9386E890E030
S11301609F938F938DE890E09F938F938E010F5F01
S11301701F4F1F930F930E949007C8010E947B009A
S113018084E6E0E0F1E0DF011D928A95E9F78FE172
S11301909EE40197F1F700C0000085EA90E00E9418
S11301A07B000FB6F894DEBF0FBECDBFCC59DF4F36
S11301B00FB6F894DEBF0FBECDBFDF91CF911F9174
S11301C00F91089520E030E04AE754E40E944E0580
S11301D00E94610405C022E02A95F1F700C0BC0129
S11301E0CB010197672BB9F708958F929F92AF9235
S11301F0BF92CF92DF92EF92FF924B015C016901B3
S11302007A010E9449051816ECF485B3846085BB15
S113021085B3877F85BBC701B6010E94E20085B321
S11302208B7F85BBA7019601C501B4010E947D03A4
S11302300E94E20085B3886085BBC501B4010E94B9
S1130240E2001CC085B3846085BB85B3877F85BB12
S1130250C501B4010E94E20085B38B7F85BBA50173
S11302609401C701B6010E947D030E94E20085B398
S1130270886085BBC701B6010E94E200FF90EF9041
S1130280DF90CF90BF90AF909F908F90089560E0E3
S113029070E0CB0108954F925F926F927F928F929C
S11302A09F92AF92BF92CF92DF92EF92FF926B0137
S11302B07C01BA01550F880B990B0E9499049B018C
S11302C0AC0160E070E080EF91E40E94EF034B0129
S11302D05C012AE43CE042EA5FE3C701B6010E9404
S11302E04E0529E23CE545ED51E40E947D0321E7FA
S11302F03DE34AE45FE30E944E052B013C01A70164
S1130300960160E070E088EC92E40E947D039B011A
S1130310AC01C301B2010E94EF032B013C010E9416
S113032047019B01AC0168ED73E186E098E40E940B
S1130330EF036B017C012DEC3CEC4CE95FE3C7015E
S1130340B6010E94EF030E94C1059B01AC01C301E9
S1130350B2010E944E056B017C0120E030E040E8D0
S11303605FE30E9449051816FCF4A7019601C50134
S1130370B4010E94EF032B013C0120E030E04AE786
S113038054E4C501B4010E944E056B017C0120E0D8
S113039030E04AE754E4C301B2010E944E05A701CC
S11303A096010E94F5001AC0A7019601C501B40187
S11303B00E944E0520E030E04AE754E40E944E05D6
S11303C06B017C0120E030E04AE754E4C501B4014C
S11303D00E944E05A70196010E94F500FF90EF9040
S11303E0DF90CF90BF90AF909F908F907F906F9051
S11303F05F904F900895CF93DF93C0917400D09194
S113040075006091720070917300072E000C880BC8
S1130410990B0E949904AE010E944B01DF91CF9188
S11304200895409174005091750060E070E088EC8C
S113043092E40E944B01089580E090E0089585E2E3
S113044090E0089581E0089581E00895EF92FF928D
S11304500F931F93CF93DF938C01EB01FC01019069
S11304600020E9F73197CF01801B910BFB0101902C
S11304700020E9F73197E61BF70B8E0F9F1F0196BB
S11304800E9438067C01B8010E946407BE01C701BE
S11304900E945907C701DF91CF911F910F91FF90DF
S11304A0EF900895BF92CF92DF92EF92FF920F9355
S11304B01F93CF93DF93CDB7DEB7C456D1090FB6E0
S11304C0F894DEBF0FBECDBF182F092FC62EB72E4E
S11304D083EB90E00E947B008FE19EE40197F1F7AB
S11304E000C0000087EB90E00E947B00EFE1FEE497
S11304F03197F1F700C000000F931F9382EC90E056
S11305009F938F938E010F5F1F4F1F930F930E9432
S11305109007C8010E947B000F2EF0E0EF2EF1E05F
S1130520FF2EF02D0F2EF4E6DF2EF02DF7018D2D8A
S113053011928A95E9F7BF92CF928AEC90E09F934B
S11305408F931F930F930E949007C8010E947B0012
S1130550F7011192DA94E9F70FB6F894DEBF0FBEF3
S1130560CDBFCC59DF4F0FB6F894DEBF0FBECDBF61
S1130570DF91CF911F910F91FF90EF90DF90CF907B
S1130580BF9008950F931F93CF93DF9300D000D0B3
S1130590CDB7DEB78C01CB014AE0BE016F5F7F4F60
S11305A00E946B07BE016F5F7F4FC8010E94260245
S11305B0BC0186E690E00E9452020F900F900F90CB
S11305C00F90DF91CF911F910F910895CF92DF92F9
S11305D0EF92FF92CF93DF930E941F02EC01BC01C4
S11305E0990F880B990B0E9499046B017C012DECE7
S11305F03CEC44E152E40E944905181654F026E606
S113060036E640E152E4C701B6010E94EA038823BA
S11306103CF4BE018EEC90E00E94C20280E001C076
S113062081E0DF91CF91FF90EF90DF90CF9008951C
S113063080E590E00895CF930E942402C82F882378
S113064059F00E9418038A30910534F4BC0186EEF7
S113065090E00E94C202C0E08C2FCF91089584B331
S1130660846084BB84B3886084BB84B3806184BBAE
S113067084B3806284BB84B3806484BB84B38068A5
S113068084BB60E875E280E090E00E9449002FEFAF
S113069089E698E1215080409040E1F700C00000D5
S11306A00E9491000E941B03882321F10E942202D0
S11306B08823B9F00E94E6028823A1F30E941C0259
S11306C02091760030917700821793073CF4809153
S11306D07200909173000E94FB01E4CF0E9411020A
S11306E0E1CF0E94E60280917200909173000E9413
S11306F0FB01D8CF80E090E008955058BB27AA278B
S11307000E9495030C940F050E94010538F00E9485
S1130710080520F039F49F3F19F426F40C94FE04E4
S11307200EF4E095E7FB0C94F804E92F0E942005F1
S113073058F3BA17620773078407950720F079F412
S1130740A6F50C9442050EF4E0950B2EBA2FA02DBD
S11307500B01B90190010C01CA01A0011124FF276A
S1130760591B99F0593F50F4503E68F11A16F04065
S1130770A22F232F342F4427585FF3CF4695379564
S11307802795A795F0405395C9F77EF41F16BA0B29
S1130790620B730B840BBAF09150A1F0FF0FBB1FD7
S11307A0661F771F881FC2F70EC0BA0F621F731F20
S11307B0841F48F4879577956795B795F7959E3F7D
S11307C008F0B0CF9395880F08F09927EE0F97950E
S11307D0879508950E94D40408F481E008950E9446
S11307E003040C940F050E94080558F00E940105AB
S11307F040F029F45F3F29F00C94F80451110C9453
S113080043050C94FE040E94200568F39923B1F378
S1130810552391F3951B550BBB27AA276217730722
S1130820840738F09F5F5F4F220F331F441FAA1FB6
S1130830A9F335D00E2E3AF0E0E832D09150504072
S1130840E695001CCAF72BD0FE2F29D0660F771F20
S1130850881FBB1F261737074807AB07B0E809F006
S1130860BB0B802DBF01FF2793585F4F3AF09E3F8B
S1130870510578F00C94F8040C9443055F3FE4F3BD
S1130880983ED4F3869577956795B795F7959F5FCE
S1130890C9F7880F911D9695879597F90895E1E01A
S11308A0660F771F881FBB1F621773078407BA0779
S11308B020F0621B730B840BBA0BEE1F88F7E095D4
S11308C008950E9468046894B1110C944305089536
S11308D00E94280588F09F5798F0B92F9927B7519F
S11308E0B0F0E1F0660F771F881F991F1AF0BA95D0
S11308F0C9F714C0B13091F00E944205B1E00895E7
S11309000C944205672F782F8827B85F39F0B93FD8
S1130910CCF3869577956795B395D9F73EF4909582
S11309208095709561957F4F8F4F9F4F0895E89400
S113093009C097FB3EF490958095709561957F4F23
S11309408F4F9F4F9923A9F0F92F96E9BB279395D1
S1130950F695879577956795B795F111F8CFFAF4E1
S1130960BB0F11F460FF1BC06F5F7F4F8F4F9F4F12
S113097016C0882311F096E911C0772321F09EE870
S1130980872F762F05C0662371F096E8862F70E0D6
S113099060E02AF09A95660F771F881FDAF7880FB0
S11309A09695879597F90895990F0008550FAA0B06
S11309B0E0E8FEEF16161706E807F907C0F012166E
S11309C01306E407F50798F0621B730B840B950B71
S11309D039F40A2661F0232B242B252B21F40895C6
S11309E00A2609F4A140A6958FEF811D811D089563
S11309F097F99F6780E870E060E008959FEF80ECCE
S1130A00089500240A941616170618060906089570
S1130A1000240A9412161306140605060895092ED6
S1130A200394000C11F4882352F0BB0F40F4BF2B45
S1130A3011F460FF04C06F5F7F4F8F4F9F4F089585
S1130A4057FD9058440F551F59F05F3F71F047957B
S1130A50880F97FB991F61F09F3F79F08795089560
S1130A60121613061406551FF2CF4695F1DF08C07F
S1130A70161617061806991FF1CF8695710561059C
S1130A8008940895E894BB2766277727CB0197F944
S1130A9008950E94D40408F48FEF08950E9461051C
S1130AA00C940F050E94010538F00E94080520F0FF
S1130AB0952311F00C94F8040C94FE0411240C9466
S1130AC043050E94200570F3959FC1F3950F50E0F4
S1130AD0551F629FF001729FBB27F00DB11D639FEC
S1130AE0AA27F00DB11DAA1F649F6627B00DA11D92
S1130AF0661F829F2227B00DA11D621F739FB00D38
S1130B00A11D621F839FA00D611D221F749F3327A7
S1130B10A00D611D231F849F600D211D822F762F40
S1130B206A2F11249F5750409AF0F1F088234AF01D
S1130B30EE0FFF1FBB1F661F771F881F9150504089
S1130B40A9F79E3F510580F00C94F8040C944305DA
S1130B505F3FE4F3983ED4F3869577956795B79510
S1130B60F795E7959F5FC1F7FE2B880F911D96952A
S1130B70879597F9089519F416F40C94FE040C94CF
S1130B8001060E942805B8F39923C9F3B6F39F57C9
S1130B90550B87FF0E940F060024A0E640EA90014F
S1130BA080585695979528F4805C660F771F881FA8
S1130BB020F026173707480730F4621B730B840BA9
S1130BC0202931294A2BA6951794079420253125ED
S1130BD04A2758F7660F771F881F20F02617370714
S1130BE0480730F4620B730B840B200D311D411D3B
S1130BF0A09581F7B901842F9158880F9695879510
S1130C0008959F3F31F0915020F48795779567952B
S1130C10B795880F911D9695879597F908959150EA
S1130C205040660F771F881FD2F70895A1E21A2E4D
S1130C30AA1BBB1BFD010DC0AA1FBB1FEE1FFF1F7C
S1130C40A217B307E407F50720F0A21BB30BE40BCC
S1130C50F50B661F771F881F991F1A9469F7609513
S1130C607095809590959B01AC01BD01CF010895CD
S1130C700F931F93CF93DF938230910510F482E09A
S1130C8090E0E091F602F091F70220E030E0A0E07D
S1130C90B0E0309719F140815181028113814817E6
S1130CA05907C8F08417950769F4109731F0129624
S1130CB00C93129713961C9327C00093F60210937B
S1130CC0F70222C02115310519F04217530718F411
S1130CD09A01BD01EF01DF01F801DBCF21153105D8
S1130CE0F9F0281B390B2430310580F48A819B816B
S1130CF06115710521F0FB019383828304C09093F5
S1130D00F7028093F602FE01329644C0FE01E20F20
S1130D10F31F8193919322503109398328833AC078
S1130D202091F4023091F502232B41F420916200CA
S1130D30309163003093F5022093F4022091600017
S1130D40309161002115310541F42DB73EB7409132
S1130D50640050916500241B350BE091F402F0917E
S1130D60F502E217F307A0F42E1B3F0B28173907EF
S1130D7078F0AC014E5F5F4F2417350748F04E0FF3
S1130D805F1F5093F5024093F4028193919302C044
S1130D90E0E0F0E0CF01DF91CF911F910F91089532
S1130DA0CF93DF93009709F481C0FC01329713823B
S1130DB01282A091F602B091F702109781F420817B
S1130DC03181820F931F2091F4023091F50228178C
S1130DD0390751F5F093F502E093F40267C0ED0191
S1130DE020E030E0CE17DF0740F44A815B819E01AA
S1130DF041155105F1F0EA01F5CFD383C283408157
S1130E005181840F951FC817D90759F48881998196
S1130E10840F951F0296918380838A819B8193839B
S1130E2082832115310529F4F093F702E093F60249
S1130E303DC0E901FB83EA8349915991C40FD51F51
S1130E40EC17FD0761F480819181840F951F029650
S1130E50E90199838883828193819B838A83E0E07B
S1130E60F0E012968D919C911397009719F0FD0173
S1130E70DC01F7CF8D919C9111979D012E5F3F4F1F
S1130E80820F931F2091F4023091F502281739073D
S1130E9069F4309729F41092F7021092F60202C016
S1130EA013821282B093F502A093F402DF91CF91E2
S1130EB00895FB01DC010D900020E9F711970190E2
S1130EC00D920020E1F70895FB01DC0101900D92E1
S1130ED00020E1F70895BB274A3031F4992322F426
S1130EE0BDE2909581959F4F0C947707BB27FB013A
S1130EF05527AA27880F991FAA1FA41710F0A41B0F
S1130F0083955051B9F7A05DAA3308F0A95DA19368
S1130F10009779F7B111B1931192CB010C94A909FF
S1130F20AEE0B0E0E6E9F7E00C94610A0D891E89B1
S1130F3086E08C831A8309838FEF9FE79E838D83DA
S1130F40AE01475E5F4F6F89788DCE0101960E9496
S1130F50B207EF81F885E00FF11F10822E96E4E0CE
S1130F600C947D0AABE0B0E0E8EBF7E00C94530A94
S1130F706C017B018A01FC0117821682838181FF47
S1130F80CCC1CE0101963C01F6019381F70193FD9A
S1130F90859193FF81917F01882309F4BAC1853239
S1130FA039F493FD859193FF81917F01853229F472
S1130FB0B60190E00E94B909E7CF912C212C312C85
S1130FC0FFE1F315D8F08B3279F038F4803279F000
S1130FD08332A1F4232D20611DC08D3261F0803352
S1130FE069F4232D216016C0832D8260382EE32DF1
S1130FF0E4603E2E2AC0F32DF8601DC037FC2DC0DE
S113100020ED280F2A3040F08E32B9F436FC81C12D
S1131010232D2064322E19C036FE06C08AE0989E25
S1131020200D1124922E11C0EAE02E9E200D1124D1
S1131030222EF32DF0623F2E08C08C3621F4832D2E
S11310408068382E02C0883641F4F70193FD8591FB
S113105093FF81917F018111B3CF982F9F7D955488
S1131060933028F40C5F1F4F9FE399830DC08336A0
S113107031F0833771F0833509F059C021C0F8018C
S1131080808189830E5F1F4F88248394912C5301A0
S113109013C02801F2E04F0E511CF801A080B1806A
S11310A036FE03C0692D70E002C06FEF7FEFC5010B
S11310B00E949E094C018201F32DFF773F2E16C03A
S11310C0280122E0420E511CF801A080B18036FEB6
S11310D003C0692D70E002C06FEF7FEFC5010E946D
S11310E093094C01F32DF0683F2E820133FC1BC0A1
S11310F0822D90E088169906B0F4B60180E290E063
S11311000E94B9092A94F4CFF50137FC859137FE82
S113111081915F01B60190E00E94B90921102A94DF
S113112021E0821A91088114910471F7E8C0843691
S113113011F0893641F5F80137FE07C060817181ED
S1131140828193810C5F1F4F08C060817181072EDB
S1131150000C880B990B0E5F1F4FF32DFF763F2E6B
S113116097FF09C090958095709561957F4F8F4F3B
S11311709F4FF0683F2E2AE030E0A3010E94F5095A
S1131180882E861845C0853731F4232D2F7EB22E44
S11311902AE030E025C0932D997FB92E8F36C1F017
S11311A018F4883579F0B5C0803719F0883721F004
S11311B0B0C0E92FE061BE2EB4FE0DC0FB2DF4607B
S11311C0BF2E09C034FE0AC0292F2660B22E06C0E5
S11311D028E030E005C020E130E002C020E132E048
S11311E0F801B7FE07C060817181828193810C5F31
S11311F01F4F06C06081718180E090E00E5F1F4F39
S1131200A3010E94F509882E8618FB2DFF773F2E37
S113121036FE0DC0232D2E7FA22E891458F434FEE1
S11312200BC032FC09C0832D8E7EA82E05C0B82CBD
S1131230A32C03C0B82C01C0B92CA4FE0FC0FE011E
S1131240E80DF11D8081803321F49A2D997EA92E19
S113125009C0A2FE06C0B394B39404C08A2D867854
S113126009F0B394A3FC11C0A0FE06C0B21488F424
S1131270280C922C9B180EC0B21460F4B60180E2C4
S113128090E00E94B909B394F7CFB21418F42B1864
S113129002C0982C212CA4FE10C0B60180E390E07B
S11312A00E94B909A2FE17C0A1FC03C088E790E020
S11312B002C088E590E0B6010CC08A2D867859F00A
S11312C0A1FE02C08BE201C080E2A7FC8DE2B60160
S11312D090E00E94B909891438F4B60180E390E0E3
S11312E00E94B9099A94F7CF8A94F301E80DF11D8D
S11312F08081B60190E00E94B9098110F5CF2220C7
S113130009F442CEB60180E290E00E94B9092A9421
S1131310F6CFF6018681978102C08FEF9FEF2B965F
S1131320E2E10C946F0AFC010590615070400110D9
S1131330D8F7809590958E0F9F1F0895FC016150FA
S1131340704001900110D8F7809590958E0F9F1FE3
S11313500895DC01FC01672F71917723E1F732973F
S113136004C07C916D9370836291AE17BF07C8F37C
S113137008950F931F93CF93DF93FB01238121FDE6
S113138003C08FEF9FEF2CC022FF16C04681578108
S1131390248135814217530744F4A081B1819D0112
S11313A02F5F3F4F318320838C93268137812F5FBA
S11313B03F4F3783268314C08B01EC01FB0100846B
S11313C0F185E02D0995892BE1F6D80116968D91CA
S11313D09C911797019617969C938E931697CE011E
S11313E0DF91CF911F910F910895FA01AA27283018
S11313F051F1203181F1E8946F936E7F6E5F7F4FDE
S11314008F4F9F4FAF4FB1E03ED0B4E03CD0670F59
S1131410781F891F9A1FA11D680F791F8A1F911DAC
S1131420A11D6A0F711D811D911DA11D20D009F4FC
S113143068943F912AE0269F11243019305D31933E
S1131440DEF6CF010895462F4770405D4193B3E027
S11314500FD0C9F7F6CF462F4F70405D4A3318F0CE
S1131460495D31FD4052419302D0A9F7EACFB4E07F
S1131470A6959795879577956795BA95C9F7009737
S11314806105710508959B01AC010A2E06945795D8
S1131490479537952795BA95C9F7620F731F841F2F
S11314A0951FA01D08952F923F924F925F926F92C5
S11314B07F928F929F92AF92BF92CF92DF92EF92E0
S11314C0FF920F931F93CF93DF93CDB7DEB7CA1B61
S11314D0DB0B0FB6F894DEBF0FBECDBF09942A888C
S11314E0398848885F846E847D848C849B84AA8434
S11314F0B984C884DF80EE80FD800C811B81AA81C1
S1131500B981CE0FD11D0FB6F894DEBF0FBECDBF8B
S10B1510ED010895F894FFCFEA
S11315180000F80220003934373838373534383089
S113152839005A000C006100415445300D006D6FBC
S1131538626974656C006469616C6F670041542B5F
S1131548435354543D222573222C222573222C22E2
S11315582573220D0041542B53415042523D312CE6
S1131568310D0041540D0041542B434D47463D3144
S11315780D0041542B434D47533D25730D005465CD
S11315886D7065726174757265204E6F74204E6F4C
S1131598726D616C2D004F787967656E2054616EA9
S11315A86B2050657263656E74616765203A20002C
S9030000FC
