S0180000536D6172742056656E74696C61746F722E73726563BD
S11300000C943D000C945A000C945A000C945A0021
S11300100C945A000C945A000C945A000C94100935
S11300200C945A000C945A000C945A000C945A00E4
S11300300C945A000C945A000C945A000C945A00D4
S11300400C945A000C945A000C945A000C945A00C4
S11300500C945A00A304D8040D0542057705AC0599
S1130060E10516064B068006B506EA061F075D087D
S113007054078907BE07F307280811241FBECFE5DC
S1130080D8E0DEBFCDBF11E0A0E6B0E0EAE2F1E2E5
S113009002C005900D92AC31B107D9F724E0ACE170
S11300A0B1E001C01D92A137B207E1F70E94A30895
S11300B00C9493100C94000040E050E00AC02F5FB1
S11300C03F4F02C020E030E029373105C4F34F5FD1
S11300D05F4F84179507B4F7089583B1826083B99D
S11300E084E886BF06B607FEFDCF81E090E00E945B
S11300F05C0083B18D7F83B984E886BF06B607FEB2
S1130100FDCF089593B19E7F93B994E896BF06B648
S113011007FEFDCF93B19F7093B994E896BF06B6DE
S113012007FEFDCF93B1807F892B83B984E886BF16
S113013006B607FEFDCF0E946D000895CF93C82F29
S113014083B18E7F83B984E886BF06B607FEFDCFF0
S113015083B18F7083B984E886BF06B607FEFDCFEE
S113016083B19C2F907F892B83B984E886BF06B620
S113017007FEFDCF0E946D0083B18F7083B984E8C0
S113018086BF06B607FEFDCF23B130E1C39FC00191
S11301901124822B83B984E886BF06B607FEFDCFFF
S11301A00E946D00CF91089580E30E94820080E355
S11301B00E94820080E20E94820088E20E949E00E7
S11301C08CE00E949E0081E00E949E0086E00E94D6
S11301D09E0080E80E949E000895CF93C82F83B1AB
S11301E0816083B984E886BF06B607FEFDCF83B17C
S11301F08F7083B984E886BF06B607FEFDCF83B14E
S11302009C2F907F892B83B984E886BF06B607FEAE
S1130210FDCF0E946D0083B18F7083B984E886BFDF
S113022006B607FEFDCF23B130E1C39FC001112400
S1130230822B83B984E886BF06B607FEFDCF0E94F1
S11302406D00CF910895CF93DF93EC0103C0219605
S11302500E94ED0088818111FACFDF91CF9108953A
S113026082E680B984E086BF11B8089584EA86BF27
S113027006B607FEFDCF089583B984E886BF06B6A7
S113028007FEFDCF08952AB128692AB920B526684A
S113029020BDDC01CB01880F991FAA1FBB1F880F4B
S11302A0991FAA1FBB1F9C01AD01220F331F441FBE
S11302B0551F220F331F441F551F60E072E18AE768
S11302C090E00E94050C8FEF820F89B9DA01C90111
S11302D00197A109B109892F9A2FAB2FBB2780BDA4
S11302E008958CB95D9BFECF08950F931F93CF9310
S11302F0DF938C01C0E0D0E003C00E94710121961D
S1130300F801EC0FFD1F80818111F7CFDF91CF91B0
S11303101F910F9108950F931F93CF93DF93CDB740
S1130320DEB7C456D1090FB6F894DEBF0FBECDBFF9
S11303308EE690E00E9475018FE19EE40197F1F74B
S113034000C0000084E790E09F938F939F938F9366
S11303508CE790E09F938F9383E890E09F938F9333
S11303608E010F5F1F4F1F930F930E94990DC801B9
S11303700E94750184E6ECE1F1E0DF011D928A95AB
S1130380E9F78FE19EE40197F1F700C000008BE9E3
S113039090E00E9475010FB6F894DEBF0FBECDBF8A
S11303A0CC59DF4F0FB6F894DEBF0FBECDBFDF913F
S11303B0CF911F910F91089520E030E04AE754E473
S11303C00E94290B0E943C0A06C082E08A95F1F73C
S11303D000C06150710916161706BCF308958F9278
S11303E09F92AF92BF92CF92DF92EF92FF926901F8
S11303F07A0120E030E04AE754E40E94290B4B01E3
S11304005C0120E030E04AE754E4C701B6010E94F1
S1130410290B6B017C019B01AC01C501B4010E9455
S1130420240B1816ECF485B3846085BB85B3877FF1
S113043085BBC701B6010E94DC0185B38B7F85BBF8
S1130440A7019601C501B4010E9458090E94DC016C
S113045085B3886085BBC501B4010E94DC011CC062
S113046085B3846085BB85B3877F85BBC501B40133
S11304700E94DC0185B38B7F85BBA5019401C70174
S1130480B6010E9458090E94DC0185B3886085BBCF
S1130490C701B6010E94DC01FF90EF90DF90CF907E
S11304A0BF90AF909F908F90089560E070E0CB0173
S11304B008954F925F926F927F928F929F92AF9224
S11304C0BF92CF92DF92EF92FF926B017C01BA014F
S11304D0550F880B990B0E94740A9B01AC0160E0D4
S11304E070E080EF91E40E94CA094B015C012AE4A8
S11304F03CE042EA5FE3C701B6010E94290B29E20E
S11305003CE545ED51E40E94580921E73DE34AE406
S11305105FE30E94290B2B013C01A701960160E0D7
S113052070E088EC92E40E9458099B01AC01C3017D
S1130530B2010E94CA092B013C010E9455029B0191
S1130540AC0168ED73E186E098E40E94CA096B018E
S11305507C012DEC3CEC4CE95FE3C701B6010E9441
S1130560CA090E949C0B9B01AC01C301B2010E9409
S1130570290B6B017C0120E030E040E85FE30E943E
S1130580240B18165CF4A7019601C501B4010E945E
S1130590CA09A50194010E94EF010CC0A7019601AC
S11305A0C501B4010E94290B9B01AC01C501B40132
S11305B00E94EF01FF90EF90DF90CF90BF90AF903B
S11305C09F908F907F906F905F904F90089580E000
S11305D090E0089585E290E0089581E0089581E037
S11305E008950E9423010895EF92FF920F931F93A1
S11305F0CF93DF938C01EB01FC0101900020E9F71C
S11306003197CF01801B910BFB0101900020E9F78A
S11306103197E61BF70B8E0F9F1F01960E94410C2A
S11306207C01B8010E946D0DBE01C7010E94620DDC
S1130630C701DF91CF911F910F91FF90EF90089523
S1130640BF92CF92DF92EF92FF920F931F93CF93BB
S1130650DF93CDB7DEB7C456D1090FB6F894DEBF29
S11306600FBECDBF182F092FC62EB72E89EA90E0F2
S11306700E9475018FE19EE40197F1F700C000002C
S11306808DEA90E00E947501EFE1FEE43197F1F705
S113069000C000000F931F9388EB90E09F938F930B
S11306A08E010F5F1F4F1F930F930E94990DC80176
S11306B00E9475010F2EFCE1EF2EF1E0FF2EF02DCC
S11306C00F2EF4E6DF2EF02DF7018D2D11928A9571
S11306D0E9F7BF92CF9280EC90E09F938F931F93A2
S11306E00F930E94990DC8010E947501F7011192A0
S11306F0DA94E9F70FB6F894DEBF0FBECDBFCC593C
S1130700DF4F0FB6F894DEBF0FBECDBFDF91CF91A0
S11307101F910F91FF90EF90DF90CF90BF900895BD
S11307200F931F93CF93DF9300D000D0CDB7DEB7E4
S11307308C01CB014AE0BE016F5F7F4F0E94740DB4
S1130740BE016F5F7F4FC8010E94F402BC018AE5BD
S113075094E00E9420030F900F900F900F90DF9170
S1130760CF911F910F910895CF92DF92EF92FF9254
S11307700F931F93CF93DF9300D000D0CDB7DEB794
S11307800E94EA028C01BC01990F880B990B0E940C
S1130790740A6B017C012DEC3CEC44E152E40E94B0
S11307A0240B181654F026E636E640E152E4C7015D
S11307B0B6010E94C5098823BCF4B80184EC90E01A
S11307C00E9490034AE0BE016F5F7F4FC8010E9400
S11307D0740DBE016F5F7F4F84EC90E00E94F402C1
S11307E00E94F10280E001C081E00F900F900F9011
S11307F00F90DF91CF911F910F91FF90EF90DF90B9
S1130800CF90089580E590E00895EF92FF921F93B2
S1130810CF93DF9300D000D0CDB7DEB70E94EF02B4
S1130820182F8823E9F00E9402047C018AE0E8166C
S1130830F104B4F4B7018CED90E00E9490034AE017
S1130840BE016F5F7F4FC7010E94740DBE016F5FD1
S11308507F4F86EF90E00E94F4020E94F10210E0C4
S1130860812F0F900F900F900F90DF91CF911F91D8
S1130870FF90EF9008950F931F93CF93DF93EC01B4
S11308808091680490916904892B09F03FC00E940B
S113089048098B019C0160936804709369048093F8
S11308A06A0490936B04CE01880F991FBE01660FF2
S11308B0771F660F771F660F771F680F791F80E316
S11308C095E70E94F10BCB01770FAA0BBB0B080F26
S11308D0191F2A1F3B1F009316031093170320931D
S11308E018033093190381E090E09093BB03809345
S11308F0BA0385B3806185BB8091BA039091BB0331
S113090001969093BB038093BA03E3C30E94480902
S113091000911603109117032091180330911903C5
S1130920061717072807390708F0D3C3E091BA035D
S1130930F091BB033297E331F10508F0BEC3E65DE5
S1130940FF4F0C94270C85B3806485BB8091BA0358
S11309509091BB0301969093BB038093BA03CE019D
S1130960880F991FBE01660F771F660F771F660FEA
S1130970771F680F791F80E395E70E94F10BAB01A5
S1130980770F660B770B8091160390911703A09154
S11309901803B0911903840F951FA61FB71F8093E6
S11309A0160390931703A0931803B093190391C3EC
S11309B085B38F7E85BB8091BA039091BB0301966A
S11309C09093BB038093BA03CE01880F991FBE0195
S11309D0660F771F660F771F660F771F680F791FE3
S11309E080E395E70E94F10BAB01770F660B770B61
S11309F08091160390911703A0911803B0911903E5
S1130A00840F951FA61FB71F809316039093170397
S1130A10A0931803B09319035CC385B3806285BBAC
S1130A208091BA039091BB0301969093BB0380938A
S1130A30BA03CE01880F991FBE01660F771F660F98
S1130A40771F660F771F680F791F80E395E70E9471
S1130A50F10BAB01770F660B770B80911603909126
S1130A601703A0911803B0911903840F951FA61FB3
S1130A70B71F8093160390931703A0931803B093A2
S1130A80190327C385B38F7B85BB8091BA039091EB
S1130A90BB0301969093BB038093BA03CE01880FE6
S1130AA0991FBE01660F771F660F771F660F771FAA
S1130AB0680F791F80E395E70E94F10BAB01770F74
S1130AC0660B770B8091160390911703A09118037E
S1130AD0B0911903840F951FA61FB71F80931603A7
S1130AE090931703A0931803B0931903F2C285B32C
S1130AF0806885BB8091BA039091BB030196909363
S1130B00BB038093BA03CE01880F991FBE01660F01
S1130B10771F660F771F660F771F680F791F80E3B3
S1130B2095E70E94F10BAB01770F660B770B809171
S1130B30160390911703A0911803B0911903840F21
S1130B40951FA61FB71F8093160390931703A093B6
S1130B501803B0931903BDC285B38F7D85BB809103
S1130B60BA039091BB0301969093BB038093BA039D
S1130B70CE01880F991FBE01660F771F660F771F7E
S1130B80660F771F680F791F80E395E70E94F10BCA
S1130B90AB01770F660B770B8091160390911703C7
S1130BA0A0911803B0911903840F951FA61FB71FB6
S1130BB08093160390931703A0931803B09319031B
S1130BC088C285B3806185BB8091BA039091BB03D1
S1130BD001969093BB038093BA03CE01880F991FAB
S1130BE0BE01660F771F660F771F660F771F680FAA
S1130BF0791F80E395E70E94F10BAB01770F660B39
S1130C00770B8091160390911703A0911803B0916C
S1130C101903840F951FA61FB71F80931603909383
S1130C201703A0931803B093190353C285B38F77A6
S1130C3085BB8091BA039091BB0301969093BB034B
S1130C408093BA03CE01880F991FBE01660F771FE8
S1130C50660F771F660F771F680F791F80E395E78C
S1130C600E94F10BAB01770F660B770B8091160393
S1130C7090911703A0911803B0911903840F951F45
S1130C80A61FB71F8093160390931703A09318030E
S1130C90B09319031EC285B38F7E85BB8091BA03BE
S1130CA09091BB0301969093BB038093BA03CE014A
S1130CB0880F991FBE01660F771F660F771F660F97
S1130CC0771F680F791F80E395E70E94F10BAB0152
S1130CD0770F660B770B8091160390911703A09101
S1130CE01803B0911903840F951FA61FB71F809393
S1130CF0160390931703A0931803B0931903E9C143
S1130D0085B3806185BB8091BA039091BB03019642
S1130D109093BB038093BA03CE01880F991FBE0141
S1130D20660F771F660F771F660F771F680F791F8F
S1130D3080E395E70E94F10BAB01770F660B770B0D
S1130D408091160390911703A0911803B091190391
S1130D50840F951FA61FB71F809316039093170344
S1130D60A0931803B0931903B4C185B3806885BBFD
S1130D708091BA039091BB0301969093BB03809337
S1130D80BA03CE01880F991FBE01660F771F660F45
S1130D90771F660F771F680F791F80E395E70E941E
S1130DA0F10BAB01770F660B770B809116039091D3
S1130DB01703A0911803B0911903840F951FA61F60
S1130DC0B71F8093160390931703A0931803B0934F
S1130DD019037FC185B38F7E85BB8091BA0390913F
S1130DE0BB0301969093BB038093BA03CE01880F93
S1130DF0991FBE01660F771F660F771F660F771F57
S1130E00680F791F80E395E70E94F10BAB01770F20
S1130E10660B770B8091160390911703A09118032A
S1130E20B0911903840F951FA61FB71F8093160353
S1130E3090931703A0931803B09319034AC185B381
S1130E40806285BB8091BA039091BB030196909315
S1130E50BB038093BA03CE01880F991FBE01660FAE
S1130E60771F660F771F660F771F680F791F80E360
S1130E7095E70E94F10BAB01770F660B770B80911E
S1130E80160390911703A0911803B0911903840FCE
S1130E90951FA61FB71F8093160390931703A09363
S1130EA01803B093190315C185B38F7785BB80915F
S1130EB0BA039091BB0301969093BB038093BA034A
S1130EC0CE01880F991FBE01660F771F660F771F2B
S1130ED0660F771F680F791F80E395E70E94F10B77
S1130EE0AB01770F660B770B809116039091170374
S1130EF0A0911803B0911903840F951FA61FB71F63
S1130F008093160390931703A0931803B0931903C7
S1130F10E0C085B3806485BB8091BA039091BB0324
S1130F2001969093BB038093BA03CE01880F991F57
S1130F30BE01660F771F660F771F660F771F680F56
S1130F40791F80E395E70E94F10BAB01770F660BE5
S1130F50770B8091160390911703A0911803B09119
S1130F601903840F951FA61FB71F80931603909330
S1130F701703A0931803B0931903ABC085B38F7DF7
S1130F8085BB8091BA039091BB0301969093BB03F8
S1130F908093BA03CE01880F991FBE01660F771F95
S1130FA0660F771F660F771F680F791F80E395E739
S1130FB00E94F10BAB01770F660B770B8091160340
S1130FC090911703A0911803B0911903840F951FF2
S1130FD0A61FB71F8093160390931703A0931803BB
S1130FE0B093190376C085B38F7B85BB8091BA0318
S1130FF09091BB0301969093BB038093BA03CE01F7
S1131000880F991FBE01660F771F660F771F660F43
S1131010771F680F791F80E395E70E94F10BAB01FE
S1131020770F660B770B8091160390911703A091AD
S11310301803B0911903840F951FA61FB71F80933F
S1131040160390931703A0931803B093190341C098
S113105085B38F7E85BB8091BA039091BB030196C3
S11310609093BB038093BA03CE01880F991FBE01EE
S1131070660F771F660F771F660F771F680F791F3C
S113108080E395E70E94F10BAB01770F660B770BBA
S11310908091160390911703A0911803B09119033E
S11310A0840F951FA61FB71F8093160390931703F1
S11310B0A0931803B09319030CC01092BB031092B1
S11310C0BA03109268041092690410926A04109290
S11310D06B04DF91CF911F910F910895CF93DF930C
S11310E060916A0070916B00809168009091690032
S11310F00E943B04C0916800D09169006091660031
S113110070916700072E000C880B990B0E94740ADB
S1131110AE010E945902DF91CF91089560916A0057
S113112070916B0080916800909169000E943B046B
S1131130409168005091690060E070E088EC92E4AE
S11311400E945902089584B3846084BB84B3886088
S113115084BB84B3806184BB84B3806284BB84B366
S1131160806484BB84B3806884BB8FE087BB60E009
S113117072E18AE790E00E94350978940E94300178
S11311800E94360180E70E943C010E94D40060E87E
S113119075E280E090E00E9443012FEF89E698E138
S11311A0215080409040E1F700C000000E948B0174
S11311B080E80E949E008EE091E00E9423016CE092
S11311C070E08CE090E00E943B040E9405048823B8
S11311D021F10E94ED028823B9F00E94B403882310
S11311E071F30E94E70220916C0030916D00821728
S11311F093073CF480916600909167000E946E080A
S1131200DECF0E948E08DBCF0E94B403809166007B
S1131210909167000E946E08D2CF80E090E008951C
S11312201F920F920FB60F9211248F939F93AF9337
S1131230BF938091C0039091C103A091C203B09168
S1131240C3030196A11DB11D8093C0039093C103F4
S1131250A093C203B093C303BF91AF919F918F91A9
S11312600F900FBE0F901F90189520E43FE140E0CF
S113127050E00E94050C8EB58A608EBDBB27A52F59
S1131280942F832F8BBD2ABD89B7806189BF0895B0
S1131290F89421E009C06091C0037091C10380916A
S11312A0C2039091C30320E02111F5CF78940895EF
S11312B05058BB27AA270E9470090C94EA0A0E947E
S11312C0DC0A38F00E94E30A20F039F49F3F19F455
S11312D026F40C94D90A0EF4E095E7FB0C94D30A97
S11312E0E92F0E94FB0A58F3BA17620773078407B1
S11312F0950720F079F4A6F50C941D0B0EF4E095F7
S11313000B2EBA2FA02D0B01B90190010C01CA01BB
S1131310A0011124FF27591B99F0593F50F4503E66
S113132068F11A16F040A22F232F342F4427585F58
S1131330F3CF469537952795A795F0405395C9F770
S11313407EF41F16BA0B620B730B840BBAF0915028
S1131350A1F0FF0FBB1F661F771F881FC2F70EC0C7
S1131360BA0F621F731F841F48F48795779567959A
S1131370B795F7959E3F08F0B0CF9395880F08F086
S11313809927EE0F9795879508950E94AF0A08F460
S113139081E008950E94DE090C94EA0A0E94E30A9F
S11313A058F00E94DC0A40F029F45F3F29F00C94C5
S11313B0D30A51110C941E0B0C94D90A0E94FB0AF7
S11313C068F39923B1F3552391F3951B550BBB2770
S11313D0AA2762177307840738F09F5F5F4F220FB5
S11313E0331F441FAA1FA9F335D00E2E3AF0E0E8AC
S11313F032D091505040E695001CCAF72BD0FE2FF6
S113140029D0660F771F881FBB1F26173707480789
S1131410AB07B0E809F0BB0B802DBF01FF27935841
S11314205F4F3AF09E3F510578F00C94D30A0C9428
S11314301E0B5F3FE4F3983ED4F38695779567954A
S1131440B795F7959F5FC9F7880F911D9695879576
S113145097F90895E1E0660F771F881FBB1F621795
S113146073078407BA0720F0621B730B840BBA0B53
S1131470EE1F88F7E09508950E94430A6894B1111D
S11314800C941E0B08950E94030B88F09F5798F04C
S1131490B92F9927B751B0F0E1F0660F771F881F75
S11314A0991F1AF0BA95C9F714C0B13091F00E948F
S11314B01D0BB1E008950C941D0B672F782F88271E
S11314C0B85F39F0B93FCCF3869577956795B395B6
S11314D0D9F73EF490958095709561957F4F8F4F25
S11314E09F4F0895E89409C097FB3EF4909580952A
S11314F0709561957F4F8F4F9F4F9923A9F0F92FD6
S113150096E9BB279395F695879577956795B79553
S1131510F111F8CFFAF4BB0F11F460FF1BC06F5F39
S11315207F4F8F4F9F4F16C0882311F096E911C04B
S1131530772321F09EE8872F762F05C0662371F06C
S113154096E8862F70E060E02AF09A95660F771F80
S1131550881FDAF7880F9695879597F90895990F5C
S11315600008550FAA0BE0E8FEEF16161706E80769
S1131570F907C0F012161306E407F50798F0621B8A
S1131580730B840B950B39F40A2661F0232B242B5F
S1131590252B21F408950A2609F4A140A6958FEF7E
S11315A0811D811D089597F99F6780E870E060E0D0
S11315B008959FEF80EC089500240A9416161706E8
S11315C018060906089500240A9412161306140630
S11315D005060895092E0394000C11F4882352F093
S11315E0BB0F40F4BF2B11F460FF04C06F5F7F4F4B
S11315F08F4F9F4F089557FD9058440F551F59F032
S11316005F3F71F04795880F97FB991F61F09F3FEB
S113161079F087950895121613061406551FF2CF14
S11316204695F1DF08C0161617061806991FF1CF64
S113163086957105610508940895E894BB2766278B
S11316407727CB0197F908950E94AF0A08F48FEF2A
S113165008950E943C0B0C94EA0A0E94DC0A38F0BC
S11316600E94E30A20F0952311F00C94D30A0C9401
S1131670D90A11240C941E0B0E94FB0A70F3959F47
S1131680C1F3950F50E0551F629FF001729FBB2775
S1131690F00DB11D639FAA27F00DB11DAA1F649F11
S11316A06627B00DA11D661F829F2227B00DA11DC4
S11316B0621F739FB00DA11D621F839FA00D611D4A
S11316C0221F749F3327A00D611D231F849F600D6B
S11316D0211D822F762F6A2F11249F5750409AF094
S11316E0F1F088234AF0EE0FFF1FBB1F661F771F20
S11316F0881F91505040A9F79E3F510580F00C94EB
S1131700D30A0C941E0B5F3FE4F3983ED4F3869502
S113171077956795B795F795E7959F5FC1F7FE2B8A
S1131720880F911D9695879597F9089519F416F4E5
S11317300C94D90A0C94DC0B0E94030BB8F3992384
S1131740C9F3B6F39F57550B87FF0E94EA0B002499
S1131750A0E640EA900180585695979528F4805C5D
S1131760660F771F881F20F026173707480730F4C5
S1131770621B730B840B202931294A2BA6951794DD
S11317800794202531254A2758F7660F771F881FAD
S113179020F026173707480730F4620B730B840BCD
S11317A0200D311D411DA09581F7B901842F915859
S11317B0880F9695879508959F3F31F0915020F4B6
S11317C0879577956795B795880F911D9695879519
S11317D097F9089591505040660F771F881FD2F7EC
S11317E0089597FB072E16F4009407D077FD09D0CF
S11317F00E942D0C07FC05D03EF4909581959F4FD7
S11318000895709561957F4F0895A1E21A2EAA1B41
S1131810BB1BFD010DC0AA1FBB1FEE1FFF1FA2179C
S1131820B307E407F50720F0A21BB30BE40BF50B99
S1131830661F771F881F991F1A9469F76095709522
S1131840809590959B01AC01BD01CF010895EE0FE9
S1131850FF1F0590F491E02D0994AA1BBB1B51E1D5
S113186007C0AA1FBB1FA617B70710F0A61BB70B0C
S1131870881F991F5A95A9F780959095BC01CD01B1
S113188008950F931F93CF93DF938230910510F443
S113189082E090E0E0916F04F091700420E030E089
S11318A0A0E0B0E0309719F14081518102811381A9
S11318B048175907C8F08417950769F4109731F051
S11318C012960C93129713961C9327C000936F04DF
S11318D01093700422C02115310519F042175307E3
S11318E018F49A01BD01EF01DF01F801DBCF2115E6
S11318F03105F9F0281B390B2430310580F48A8135
S11319009B816115710521F0FB019383828304C0DF
S11319109093700480936F04FE01329644C0FE01DC
S1131920E20FF31F81939193225031093983288365
S11319303AC020916D0430916E04232B41F4209120
S113194062003091630030936E0420936D04209103
S11319506000309161002115310541F42DB73EB787
S11319604091640050916500241B350BE0916D0497
S1131970F0916E04E217F307A0F42E1B3F0B281717
S1131980390778F0AC014E5F5F4F2417350748F0F4
S11319904E0F5F1F50936E0440936D048193919397
S11319A002C0E0E0F0E0CF01DF91CF911F910F91F1
S11319B00895CF93DF93009709F481C0FC01329717
S11319C013821282A0916F04B0917004109781F475
S11319D020813181820F931F20916D0430916E0418
S11319E02817390751F5F0936E04E0936D0467C02E
S11319F0ED0120E030E0CE17DF0740F44A815B813F
S1131A009E0141155105F1F0EA01F5CFD383C2835C
S1131A1040815181840F951FC817D90759F48881D3
S1131A209981840F951F0296918380838A819B817B
S1131A30938382832115310529F4F0937004E09394
S1131A406F043DC0E901FB83EA8349915991C40FB6
S1131A50D51FEC17FD0761F480819181840F951FD8
S1131A600296E90199838883828193819B838A8387
S1131A70E0E0F0E012968D919C911397009719F095
S1131A80FD01DC01F7CF8D919C9111979D012E5F93
S1131A903F4F820F931F20916D0430916E042817DD
S1131AA0390769F4309729F41092700410926F0486
S1131AB002C013821282B0936E04A0936D04DF916E
S1131AC0CF910895FB01DC010D900020E9F71197F7
S1131AD001900D920020E1F70895FB01DC010190D3
S1131AE00D920020E1F70895BB274A3031F4992381
S1131AF022F4BDE2909581959F4F0C94800DBB27F5
S1131B00FB015527AA27880F991FAA1FA41710F0B5
S1131B10A41B83955051B9F7A05DAA3308F0A95DC1
S1131B20A193009779F7B111B1931192CB010C9461
S1131B30B20FAEE0B0E0EFE9FDE00C946A100D895D
S1131B401E8986E08C831A8309838FEF9FE79E8327
S1131B508D83AE01475E5F4F6F89788DCE0101960C
S1131B600E94BB0DEF81F885E00FF11F10822E96C5
S1131B70E4E00C948610ABE0B0E0E1ECFDE00C9402
S1131B805C106C017B018A01FC011782168283813F
S1131B9081FFCCC1CE0101963C01F6019381F7018E
S1131BA093FD859193FF81917F01882309F4BAC144
S1131BB0853239F493FD859193FF81917F018532BC
S1131BC029F4B60190E00E94C20FE7CF912C212C9A
S1131BD0312CFFE1F315D8F08B3279F038F48032F0
S1131BE079F08332A1F4232D20611DC08D3261F080
S1131BF0803369F4232D216016C0832D8260382E32
S1131C00E32DE4603E2E2AC0F32DF8601DC037FC9E
S1131C102DC020ED280F2A3040F08E32B9F436FC66
S1131C2081C1232D2064322E19C036FE06C08AE0FD
S1131C30989E200D1124922E11C0EAE02E9E200DB4
S1131C401124222EF32DF0623F2E08C08C3621F48D
S1131C50832D8068382E02C0883641F4F70193FD45
S1131C60859193FF81917F018111B3CF982F9F7D3F
S1131C709554933028F40C5F1F4F9FE399830DC054
S1131C80833631F0833771F0833509F059C021C0B0
S1131C90F801808189830E5F1F4F88248394912CDF
S1131CA0530113C02801F2E04F0E511CF801A0802B
S1131CB0B18036FE03C0692D70E002C06FEF7FEF84
S1131CC0C5010E94A70F4C018201F32DFF773F2E1F
S1131CD016C0280122E0420E511CF801A080B180F8
S1131CE036FE03C0692D70E002C06FEF7FEFC501BF
S1131CF00E949C0F4C01F32DF0683F2E820133FCAF
S1131D001BC0822D90E088169906B0F4B60180E2DB
S1131D1090E00E94C20F2A94F4CFF50137FC85911C
S1131D2037FE81915F01B60190E00E94C20F21103D
S1131D302A9421E0821A91088114910471F7E8C071
S1131D40843611F0893641F5F80137FE07C0608109
S1131D507181828193810C5F1F4F08C06081718102
S1131D60072E000C880B990B0E5F1F4FF32DFF7687
S1131D703F2E97FF09C090958095709561957F4F90
S1131D808F4F9F4FF0683F2E2AE030E0A3010E945E
S1131D90FE0F882E861845C0853731F4232D2F7EFB
S1131DA0B22E2AE030E025C0932D997FB92E8F36CC
S1131DB0C1F018F4883579F0B5C0803719F0883748
S1131DC021F0B0C0E92FE061BE2EB4FE0DC0FB2DA2
S1131DD0F460BF2E09C034FE0AC0292F2660B22E3B
S1131DE006C028E030E005C020E130E002C020E178
S1131DF032E0F801B7FE07C060817181828193816E
S1131E000C5F1F4F06C06081718180E090E00E5F1F
S1131E101F4FA3010E94FE0F882E8618FB2DFF770B
S1131E203F2E36FE0DC0232D2E7FA22E891458F48A
S1131E3034FE0BC032FC09C0832D8E7EA82E05C053
S1131E40B82CA32C03C0B82C01C0B92CA4FE0FC01D
S1131E50FE01E80DF11D8081803321F49A2D997ED5
S1131E60A92E09C0A2FE06C0B394B39404C08A2D5F
S1131E70867809F0B394A3FC11C0A0FE06C0B21486
S1131E8088F4280C922C9B180EC0B21460F4B6018E
S1131E9080E290E00E94C20FB394F7CFB21418F41A
S1131EA02B1802C0982C212CA4FE10C0B60180E38C
S1131EB090E00E94C20FA2FE17C0A1FC03C088E7F5
S1131EC090E002C088E590E0B6010CC08A2D8678C7
S1131ED059F0A1FE02C08BE201C080E2A7FC8DE2B2
S1131EE0B60190E00E94C20F891438F4B60180E371
S1131EF090E00E94C20F9A94F7CF8A94F301E80D00
S1131F00F11D8081B60190E00E94C20F8110F5CFCF
S1131F10222009F442CEB60180E290E00E94C20F72
S1131F202A94F6CFF6018681978102C08FEF9FEF46
S1131F302B96E2E10C947810FC01059061507040FE
S1131F400110D8F7809590958E0F9F1F0895FC017E
S1131F506150704001900110D8F7809590958E0FD4
S1131F609F1F0895DC01FC01672F71917723E1F72E
S1131F70329704C07C916D9370836291AE17BF0752
S1131F80C8F308950F931F93CF93DF93FB0123812D
S1131F9021FD03C08FEF9FEF2CC022FF16C04681A6
S1131FA05781248135814217530744F4A081B181BC
S1131FB09D012F5F3F4F318320838C93268137818E
S1131FC02F5F3F4F3783268314C08B01EC01FB0145
S1131FD00084F185E02D0995892BE1F6D801169648
S1131FE08D919C911797019617969C938E931697B3
S1131FF0CE01DF91CF911F910F910895FA01AA2785
S1132000283051F1203181F1E8946F936E7F6E5F37
S11320107F4F8F4F9F4FAF4FB1E03ED0B4E03CD0E5
S1132020670F781F891F9A1FA11D680F791F8A1FC8
S1132030911DA11D6A0F711D811D911DA11D20D02F
S113204009F468943F912AE0269F11243019305DE9
S11320503193DEF6CF010895462F4770405D4193DA
S1132060B3E00FD0C9F7F6CF462F4F70405D4A3327
S113207018F0495D31FD4052419302D0A9F7EACFEF
S1132080B4E0A6959795879577956795BA95C9F71E
S113209000976105710508959B01AC010A2E069411
S11320A05795479537952795BA95C9F7620F731FCA
S11320B0841F951FA01D08952F923F924F925F9207
S11320C06F927F928F929F92AF92BF92CF92DF9244
S11320D0EF92FF920F931F93CF93DF93CDB7DEB7A9
S11320E0CA1BDB0B0FB6F894DEBF0FBECDBF09943D
S11320F02A88398848885F846E847D848C849B8494
S1132100AA84B984C884DF80EE80FD800C811B81A1
S1132110AA81B981CE0FD11D0FB6F894DEBF0FBED0
S10D2120CDBFED010895F894FFCF40
S113212A0000710420005A000C003200610041547E
S113213A45300D006D6F626974656C006469616C89
S113214A6F670041542B435354543D222573222C68
S113215A222573222C222573220D0041542B53412C
S113216A5042523D312C310D0041540D0041542B43
S113217A434D47463D310D0041542B434D47533D92
S113218A25730D0054656D706572617475726520EE
S113219A4E6F74204E6F726D616C2D004F787967A3
S11321AA656E2054616E6B2050657263656E74614E
S11321BA6765203A20004F787967656E2054616E0E
S11321CA6B2050657263656E746167652000456EA5
S10F21DA746572204E756D626572000021
S9030000FC
