:100000000C943D000C948B010C94A8010C945A00A4
:100010000C945A000C945A000C945A000C94EF0A59
:100020000C945A000C945A000C945A000C945A00E8
:100030000C945A000C945A000C945A000C945A00D8
:100040000C945A000C945A000C945A000C945A00C8
:100050000C945A0056068B06C006F5062A075F0761
:100060009407C907FE07330868089D08D208100ADC
:1000700007093C097109A609DB0911241FBECFE558
:10008000D8E0DEBFCDBF11E0A0E6B0E0EAEDF4E2DB
:1000900002C005900D92AC31B107D9F724E0ACE174
:1000A000B1E001C01D92AB37B207E1F70E94560ADA
:1000B0000C946B120C94000040E050E00AC02F5FDB
:1000C0003F4F02C020E030E029373105C4F34F5FD5
:1000D0005F4F84179507B4F7089583B1826083B9A1
:1000E00084E886BF06B607FEFDCF81E090E00E945F
:1000F0005C0083B18D7F83B984E886BF06B607FEB6
:10010000FDCF089593B19E7F93B994E896BF06B64C
:1001100007FEFDCF93B19F7093B994E896BF06B6E2
:1001200007FEFDCF93B1807F892B83B984E886BF1A
:1001300006B607FEFDCF0E946D000895CF93C82F2D
:1001400083B18E7F83B984E886BF06B607FEFDCFF4
:1001500083B18F7083B984E886BF06B607FEFDCFF2
:1001600083B19C2F907F892B83B984E886BF06B624
:1001700007FEFDCF0E946D0083B18F7083B984E8C4
:1001800086BF06B607FEFDCF23B130E1C39FC00195
:100190001124822B83B984E886BF06B607FEFDCF03
:1001A0000E946D00CF91089580E30E94820080E359
:1001B0000E94820080E20E94820088E20E949E00EB
:1001C0008CE00E949E0081E00E949E0086E00E94DA
:1001D0009E0080E80E949E000895CF93C82F83B1AF
:1001E000816083B984E886BF06B607FEFDCF83B180
:1001F0008F7083B984E886BF06B607FEFDCF83B152
:100200009C2F907F892B83B984E886BF06B607FEB2
:10021000FDCF0E946D0083B18F7083B984E886BFE3
:1002200006B607FEFDCF23B130E1C39FC001112404
:10023000822B83B984E886BF06B607FEFDCF0E94F5
:100240006D00CF910895CF93DF93EC0103C0219609
:100250000E94ED0088818111FACFDF91CF9108953E
:1002600082E680B984E086BF11B8089584EA86BF2B
:1002700006B607FEFDCF089583B984E886BF06B6AB
:1002800007FEFDCF08952AB128692AB920B526684E
:1002900020BDDC01CB01880F991FAA1FBB1F880F4F
:1002A000991FAA1FBB1F9C01AD01220F331F441FC2
:1002B000551F220F331F441F551F60E072E18AE76C
:1002C00090E00E94DD0D8FEF820F89B9DA01C9013C
:1002D0000197A109B109892F9A2FAB2FBB2780BDA8
:1002E00008958CB95D9BFECF08950F931F93CF9314
:1002F000DF938C01C0E0D0E003C00E947101219621
:10030000F801EC0FFD1F80818111F7CFDF91CF91B4
:100310001F910F9108951F920F920FB60F92112403
:100320002F938F939F9380B381E0809366002FE794
:1003300088E391E0215080409040E1F700C0000048
:100340009F918F912F910F900FBE0F901F90189536
:100350001F920F920FB60F9211242F938F939F939A
:1003600080B381E0809367002FE788E391E021501C
:1003700080409040E1F700C000009F918F912F9145
:100380000F900FBE0F901F9018950F931F93CF9350
:10039000DF93CDB7DEB7C456D1090FB6F894DEBFF0
:1003A0000FBECDBF80E790E00E9475018FE19EE413
:1003B0000197F1F700C0000086E790E09F938F93CC
:1003C0009F938F938EE790E09F938F9385E890E0C3
:1003D0009F938F938E010F5F1F4F1F930F930E9468
:1003E000710FC8010E94750184E6ECE1F1E0DF01C4
:1003F0001D928A95E9F78FE19EE40197F1F700C01D
:1004000000008DE990E00E9475010FB6F894DEBF00
:100410000FBECDBFCC59DF4F0FB6F894DEBF0FBE75
:10042000CDBFDF91CF911F910F9108958F929F9231
:10043000AF92BF92CF92DF92EF92FF920F931F93F2
:100440004B015C01CA01B90120E030E04AE754E405
:100450000E94010D6B017C0120E030E04AE754E48A
:10046000C501B4010E94010D4B015C019B01AC016F
:10047000C701B6010E94FC0C18160CF0B7C18091A0
:10048000C7039091C803892B09F040C00E94270B35
:100490006093C7037093C8038093C9039093CA0302
:1004A0000E944A0CA50194010E94380B0E941B0C6B
:1004B0006093C3037093C4038093C5039093C603F2
:1004C00081E090E0A0E0B0E08093120390931303EA
:1004D000A0931403B093150385B3846085BB85B3E3
:1004E000877F85BB8091120390911303A091140321
:1004F000B09115030196A11DB11D80931203909335
:100500001303A0931403B093150370C10E94270B2B
:100510000091C3031091C4032091C5033091C60319
:10052000061717072807390708F085C080911203BE
:1005300090911303A0911403B0911503823091059B
:10054000A105B10529F00397A105B105A1F162C08C
:1005500085B38B7F85BB8091120390911303A0918B
:100560001403B09115030196A11DB11D80931203D0
:1005700090931303A0931403B09315036091C303E6
:100580007091C4038091C5039091C6030E944A0CE8
:10059000A70196010E94380BA50194010E94370B18
:1005A0000E941B0C6093C3037093C4038093C50324
:1005B0009093C6031BC185B3886085BB80911203ED
:1005C00090911303A0911403B09115030196A11DFE
:1005D000B11D8093120390931303A0931403B0935F
:1005E00015036091C3037091C4038091C50390917A
:1005F000C6030E944A0CA70196010E94380B0E9474
:100600001B0C6093C3037093C4038093C503909342
:10061000C603ECC01092120310921303109214033D
:10062000109215031092C7031092C8031092C903C9
:100630001092CA03DBC08091C7039091C803892B35
:1006400009F040C00E94270B6093C7037093C80352
:100650008093C9039093CA030E944A0CA701960194
:100660000E94380B0E941B0C6093C3037093C40359
:100670008093C5039093C60381E090E0A0E0B0E0D2
:100680008093120390931303A0931403B093150364
:1006900085B3846085BB85B3877F85BB809112035A
:1006A00090911303A0911403B09115030196A11D1D
:1006B000B11D8093120390931303A0931403B0937E
:1006C000150394C00E94270B0091C3031091C4032B
:1006D0002091C5033091C60306171707280739076D
:1006E00008F084C08091120390911303A091140329
:1006F000B091150382309105A105B10529F003974A
:10070000A105B105A1F162C085B3886085BB809168
:10071000120390911303A0911403B0911503019655
:10072000A11DB11D8093120390931303A093140392
:10073000B09315036091C3037091C4038091C50306
:100740009091C6030E944A0CA50194010E94380BA7
:10075000A70196010E94370B0E941B0C6093C303F4
:100760007093C4038093C5039093C6033FC085B3C1
:100770008B7F85BB8091120390911303A09114038A
:10078000B09115030196A11DB11D809312039093A2
:100790001303A0931403B09315036091C3037091E6
:1007A000C4038091C5039091C6030E944A0CA50121
:1007B00094010E94380B0E941B0C6093C30370933A
:1007C000C4038093C5039093C60310C01092120314
:1007D0001092130310921403109215031092C70382
:1007E0001092C8031092C9031092CA031F910F916F
:1007F000FF90EF90DF90CF90BF90AF909F908F9041
:10080000089560E070E88BE396E408954F925F925C
:100810006F927F928F929F92AF92BF92CF92DF9210
:10082000EF92FF926B017C01BA01550F880B990B77
:100830000E944C0C9B01AC0160E070E080EF91E401
:100840000E94A90B4B015C012AE43CE042EA5FE311
:10085000C701B6010E94010D29E23CE545ED51E4D6
:100860000E94370B21E73DE34AE45FE30E94010D5C
:100870002B013C01A701960160E070E088EC92E456
:100880000E94370B9B01AC01C301B2010E94A90B6E
:100890002B013C010E9401049B01AC0168ED73E156
:1008A00086E098E40E94A90B6B017C012DEC3CECE6
:1008B0004CE95FE3C701B6010E94A90B0E94740DC9
:1008C0009B01AC01C301B2010E94010D6B017C01CF
:1008D00020E030E040E85FE30E94FC0C18165CF476
:1008E000A7019601C501B4010E94A90BA5019401BD
:1008F0000E9416020CC0A7019601C501B4010E9416
:10090000010D9B01AC01C501B4010E941602FF90CC
:10091000EF90DF90CF90BF90AF909F908F907F909F
:100920006F905F904F90089580E090E0089585E289
:1009300090E0089581B3806181BB089581E00895BE
:1009400081E008950E9423010895EF92FF920F9392
:100950001F93CF93DF938C01EB01FC0101900020EA
:10096000E9F73197CF01801B910BFB01019000202B
:10097000E9F73197E61BF70B8E0F9F1F01960E9438
:10098000190E7C01B8010E94450FBE01C7010E94EB
:100990003A0FC701DF91CF911F910F91FF90EF9018
:1009A0000895BF92CF92DF92EF92FF920F931F9321
:1009B000CF93DF93CDB7DEB7C456D1090FB6F89405
:1009C000DEBF0FBECDBF182F092FC62EB72E86EB68
:1009D00090E00E9475018FE19EE40197F1F700C05D
:1009E00000008AEB90E00E947501EFE1FEE4319790
:1009F000F1F700C000000F931F9385EC90E09F93E8
:100A00008F938E010F5F1F4F1F930F930E94710FE3
:100A1000C8010E9475010F2EFCE1EF2EF1E0FF2EC0
:100A2000F02D0F2EF4E6DF2EF02DF7018D2D119213
:100A30008A95E9F7BF92CF928DEC90E09F938F93C8
:100A40001F930F930E94710FC8010E947501F70157
:100A50001192DA94E9F70FB6F894DEBF0FBECDBF5E
:100A6000CC59DF4F0FB6F894DEBF0FBECDBFDF917C
:100A7000CF911F910F91FF90EF90DF90CF90BF909B
:100A800008950F931F93CF93DF9300D000D0CDB77D
:100A9000DEB78C01CB014AE0BE016F5F7F4F0E9441
:100AA0004C0FBE016F5F7F4FC8010E94A504BC01BF
:100AB00085E694E00E94D1040F900F900F900F9064
:100AC000DF91CF911F910F910895CF92DF92EF9216
:100AD000FF920F931F93CF93DF9300D000D0CDB739
:100AE000DEB70E9497048C01BC01990F880B990B0B
:100AF0000E944C0C6B017C012DEC3CEC44E152E477
:100B00000E94FC0C181654F026E636E640E152E44A
:100B1000C701B6010E94A40B8823CCF4B80181ED73
:100B200090E00E9441054AE0BE016F5F7F4FC8011F
:100B30000E944C0FBE016F5F7F4F81ED90E00E94DD
:100B4000A5040E94A2040E949A0480E001C081E0F2
:100B50000F900F900F900F90DF91CF911F910F91F9
:100B6000FF90EF90DF90CF90089580E590E008959A
:100B7000EF92FF921F93CF93DF9300D000D0CDB7B9
:100B8000DEB70E94A004182F8823E9F00E94B50563
:100B90007C018AE0E816F104B4F4B70189EE90E034
:100BA0000E9441054AE0BE016F5F7F4FC7010E946E
:100BB0004C0FBE016F5F7F4F83E091E00E94A50460
:100BC0000E94A20410E0812F0F900F900F900F90C1
:100BD000DF91CF911F91FF90EF9008950F931F9396
:100BE000CF93DF93EC018091730490917404892B6F
:100BF00009F03FC00E94270B8B019C016093730496
:100C0000709374048093750490937604CE01880FDA
:100C1000991FBE01660F771F660F771F660F771F3C
:100C2000680F791F80E395E70E94C90DCB01770F0C
:100C3000AA0BBB0B080F191F2A1F3B1F009317039A
:100C4000109318032093190330931A0381E090E066
:100C50009093C0038093BF0385B3806185BB80916F
:100C6000BF039091C00301969093C0038093BF038C
:100C7000E3C30E94270B00911703109118032091E2
:100C8000190330911A03061717072807390708F0C8
:100C9000D3C3E091BF03F091C0033297E331F10574
:100CA00008F0BEC3E65DFF4F0C94FF0D85B3806472
:100CB00085BB8091BF039091C00301969093C003C0
:100CC0008093BF03CE01880F991FBE01660F771F67
:100CD000660F771F660F771F680F791F80E395E710
:100CE0000E94C90DAB01770F660B770B809117033C
:100CF00090911803A0911903B0911A03840F951FC6
:100D0000A61FB71F8093170390931803A09319038E
:100D1000B0931A0391C385B38F7E85BB8091BF03C7
:100D20009091C00301969093C0038093BF03CE01BE
:100D3000880F991FBE01660F771F660F771F660F1A
:100D4000771F680F791F80E395E70E94C90DAB01FB
:100D5000770F660B770B8091170390911803A09182
:100D60001903B0911A03840F951FA61FB71F809314
:100D7000170390931803A0931903B0931A035CC34D
:100D800085B3806285BB8091BF039091C0030196BB
:100D90009093C0038093BF03CE01880F991FBE01BB
:100DA000660F771F660F771F660F771F680F791F13
:100DB00080E395E70E94C90DAB01770F660B770BB7
:100DC0008091170390911803A0911903B0911A0311
:100DD000840F951FA61FB71F8093170390931803C6
:100DE000A0931903B0931A0327C385B38F7B85BBE8
:100DF0008091BF039091C00301969093C0038093AC
:100E0000BF03CE01880F991FBE01660F771F660FC3
:100E1000771F660F771F680F791F80E395E70E94A1
:100E2000C90DAB01770F660B770B8091170390917B
:100E30001803A0911903B0911A03840F951FA61FE0
:100E4000B71F8093170390931803A0931903B093CF
:100E50001A03F2C285B3806885BB8091BF0390916D
:100E6000C00301969093C0038093BF03CE01880F07
:100E7000991FBE01660F771F660F771F660F771FDA
:100E8000680F791F80E395E70E94C90DAB01770FCA
:100E9000660B770B8091170390911803A0911903AB
:100EA000B0911A03840F951FA61FB71F80931703D5
:100EB00090931803A0931903B0931A03BDC285B38E
:100EC0008F7D85BB8091BF039091C0030196909365
:100ED000C0038093BF03CE01880F991FBE01660F28
:100EE000771F660F771F660F771F680F791F80E3E4
:100EF00095E70E94C90DAB01770F660B770B8091C8
:100F0000170390911803A0911903B0911A03840F4D
:100F1000951FA61FB71F8093170390931803A093E4
:100F20001903B0931A0388C285B3806185BB809191
:100F3000BF039091C00301969093C0038093BF03B9
:100F4000CE01880F991FBE01660F771F660F771FAE
:100F5000660F771F680F791F80E395E70E94C90D20
:100F6000AB01770F660B770B8091170390911803F5
:100F7000A0911903B0911A03840F951FA61FB71FE4
:100F80008093170390931803A0931903B0931A0347
:100F900053C285B38F7785BB8091BF039091C00307
:100FA00001969093C0038093BF03CE01880F991FD1
:100FB000BE01660F771F660F771F660F771F680FDA
:100FC000791F80E395E70E94C90DAB01770F660B8F
:100FD000770B8091170390911803A0911903B0919A
:100FE0001A03840F951FA61FB71F809317039093B2
:100FF0001803A0931903B0931A031EC285B38F7E02
:1010000085BB8091BF039091C00301969093C0036C
:101010008093BF03CE01880F991FBE01660F771F13
:10102000660F771F660F771F680F791F80E395E7BC
:101030000E94C90DAB01770F660B770B80911703E8
:1010400090911803A0911903B0911A03840F951F72
:10105000A61FB71F8093170390931803A09319033B
:10106000B0931A03E9C185B3806185BB8091BF034A
:101070009091C00301969093C0038093BF03CE016B
:10108000880F991FBE01660F771F660F771F660FC7
:10109000771F680F791F80E395E70E94C90DAB01A8
:1010A000770F660B770B8091170390911803A0912F
:1010B0001903B0911A03840F951FA61FB71F8093C1
:1010C000170390931803A0931903B0931A03B4C1A4
:1010D00085B3806885BB8091BF039091C003019662
:1010E0009093C0038093BF03CE01880F991FBE0168
:1010F000660F771F660F771F660F771F680F791FC0
:1011000080E395E70E94C90DAB01770F660B770B63
:101110008091170390911803A0911903B0911A03BD
:10112000840F951FA61FB71F809317039093180372
:10113000A0931903B0931A037FC185B38F7E85BB3B
:101140008091BF039091C00301969093C003809358
:10115000BF03CE01880F991FBE01660F771F660F70
:10116000771F660F771F680F791F80E395E70E944E
:10117000C90DAB01770F660B770B80911703909128
:101180001803A0911903B0911A03840F951FA61F8D
:10119000B71F8093170390931803A0931903B0937C
:1011A0001A034AC185B3806285BB8091BF039091C9
:1011B000C00301969093C0038093BF03CE01880FB4
:1011C000991FBE01660F771F660F771F660F771F87
:1011D000680F791F80E395E70E94C90DAB01770F77
:1011E000660B770B8091170390911803A091190358
:1011F000B0911A03840F951FA61FB71F8093170382
:1012000090931803A0931903B0931A0315C185B3E3
:101210008F7785BB8091BF039091C0030196909317
:10122000C0038093BF03CE01880F991FBE01660FD4
:10123000771F660F771F660F771F680F791F80E390
:1012400095E70E94C90DAB01770F660B770B809174
:10125000170390911803A0911903B0911A03840FFA
:10126000951FA61FB71F8093170390931803A09391
:101270001903B0931A03E0C085B3806485BB8091E5
:10128000BF039091C00301969093C0038093BF0366
:10129000CE01880F991FBE01660F771F660F771F5B
:1012A000660F771F680F791F80E395E70E94C90DCD
:1012B000AB01770F660B770B8091170390911803A2
:1012C000A0911903B0911A03840F951FA61FB71F91
:1012D0008093170390931803A0931903B0931A03F4
:1012E000ABC085B38F7D85BB8091BF039091C00358
:1012F00001969093C0038093BF03CE01880F991F7E
:10130000BE01660F771F660F771F660F771F680F86
:10131000791F80E395E70E94C90DAB01770F660B3B
:10132000770B8091170390911803A0911903B09146
:101330001A03840F951FA61FB71F8093170390935E
:101340001803A0931903B0931A0376C085B38F7B5B
:1013500085BB8091BF039091C00301969093C00319
:101360008093BF03CE01880F991FBE01660F771FC0
:10137000660F771F660F771F680F791F80E395E769
:101380000E94C90DAB01770F660B770B8091170395
:1013900090911803A0911903B0911A03840F951F1F
:1013A000A61FB71F8093170390931803A0931903E8
:1013B000B0931A0341C085B38F7E85BB8091BF0374
:1013C0009091C00301969093C0038093BF03CE0118
:1013D000880F991FBE01660F771F660F771F660F74
:1013E000771F680F791F80E395E70E94C90DAB0155
:1013F000770F660B770B8091170390911803A091DC
:101400001903B0911A03840F951FA61FB71F80936D
:10141000170390931803A0931903B0931A030CC0F9
:101420001092C0031092BF031092730410927404C0
:101430001092750410927604DF91CF911F910F9155
:101440000895CF93DF93C0916A00D0916B006091B3
:10145000680070916900072E000C880B990B0E94A0
:101460004C0CAE010E94060460916C0070916D00FE
:1014700080916A0090916B000E94EE05DF91CF9100
:10148000089560916C0070916D0080916A00909158
:101490006B000E94EE0540916A0050916B0060E085
:1014A00070E088EC92E40E940604089584B384609E
:1014B00084BB84B3886084BB84B3806184BB84B301
:1014C000806284BB84B3806484BB84B3806884BB43
:1014D0008BE887BB81B381BB81B381BB81B381BB07
:1014E00081B381BB81B3806181BB80EC8BBF85E020
:1014F00085BF60E072E18AE790E00E94140B789467
:101500000E9430010E94360180E70E943C010E9447
:10151000D40060E875E280E090E00E9443012FEF84
:1015200089E698E1215080409040E1F700C000003A
:101530000E94C5018FE087BB81E090E09093C203D9
:101540008093C10388E20E949E004AE060E070E060
:1015500080911003909111030E944C0F4AE060E0CB
:1015600070E080911003909111030E944C0F4AE0AB
:1015700060E070E080911003909111030E944C0F85
:101580008CE390E00E94210A0E94B805882321F193
:101590000E949E048823B9F00E946505882361F2A9
:1015A0000E94940420916E0030916F00821793077F
:1015B0003CF480916800909169000E94210ABCCFA0
:1015C0000E94410AB9CF0E94650580916800909100
:1015D00069000E94210AB0CF80E090E008951F9238
:1015E0000F920FB60F9211248F939F93AF93BF93D7
:1015F0008091CB039091CC03A091CD03B091CE0309
:101600000196A11DB11D8093CB039093CC03A093B1
:10161000CD03B093CE03BF91AF919F918F910F9067
:101620000FBE0F901F90189520E43FE140E050E07E
:101630000E94DD0D8EB58A608EBDBB27A52F942F2D
:10164000832F8BBD2ABD89B7806189BF0895F89427
:1016500021E009C06091CB037091CC038091CD0350
:101660009091CE0320E02111F5CF78940895505841
:10167000BB27AA270E944F0B0C94C20C0E94B40CEB
:1016800038F00E94BB0C20F039F49F3F19F426F487
:101690000C94B10C0EF4E095E7FB0C94AB0CE92F25
:1016A0000E94D30C58F3BA17620773078407950793
:1016B00020F079F4A6F50C94F50C0EF4E0950B2EC1
:1016C000BA2FA02D0B01B90190010C01CA01A00194
:1016D0001124FF27591B99F0593F50F4503E68F1EF
:1016E0001A16F040A22F232F342F4427585FF3CF30
:1016F000469537952795A795F0405395C9F77EF401
:101700001F16BA0B620B730B840BBAF09150A1F049
:10171000FF0FBB1F661F771F881FC2F70EC0BA0FCF
:10172000621F731F841F48F4879577956795B79557
:10173000F7959E3F08F0B0CF9395880F08F0992752
:10174000EE0F9795879508950E94870C08F481E025
:1017500008950E94BD0B0C94C20C0E94BB0C58F063
:101760000E94B40C40F029F45F3F29F00C94AB0CBC
:1017700051110C94F60C0C94B10C0E94D30C68F32C
:101780009923B1F3552391F3951B550BBB27AA273A
:1017900062177307840738F09F5F5F4F220F331F74
:1017A000441FAA1FA9F335D00E2E3AF0E0E832D03C
:1017B00091505040E695001CCAF72BD0FE2F29D03F
:1017C000660F771F881FBB1F261737074807AB0711
:1017D000B0E809F0BB0B802DBF01FF2793585F4F86
:1017E0003AF09E3F510578F00C94AB0C0C94F60C3B
:1017F0005F3FE4F3983ED4F3869577956795B79568
:10180000F7959F5FC9F7880F911D9695879597F972
:101810000895E1E0660F771F881FBB1F62177307EB
:101820008407BA0720F0621B730B840BBA0BEE1F00
:1018300088F7E09508950E94DB0C88F09F5798F098
:10184000B92F9927B751B0F0E1F0660F771F881FC5
:10185000991F1AF0BA95C9F714C0B13091F00E94DF
:10186000F50CB1E008950C94F50C672F782F8827BC
:10187000B85F39F0B93FCCF3869577956795B39506
:10188000D9F73EF490958095709561957F4F8F4F75
:101890009F4F0895E89409C097FB3EF4909580957A
:1018A000709561957F4F8F4F9F4F9923A9F0F92F26
:1018B00096E9BB279395F695879577956795B795A4
:1018C000F111F8CFFAF4BB0F11F460FF1BC06F5F8A
:1018D0007F4F8F4F9F4F16C0882311F096E911C09C
:1018E000772321F09EE8872F762F05C0662371F0BD
:1018F00096E8862F70E060E02AF09A95660F771FD1
:10190000881FDAF7880F9695879597F90895990FAC
:101910000008550FAA0BE0E8FEEF16161706E807B9
:10192000F907C0F012161306E407F50798F0621BDA
:10193000730B840B950B39F40A2661F0232B242BAF
:10194000252B21F408950A2609F4A140A6958FEFCE
:10195000811D811D089597F99F6780E870E060E020
:1019600008959FEF80EC089500240A941616170638
:1019700018060906089500240A9412161306140680
:1019800005060895092E0394000C11F4882352F0E3
:10199000BB0F40F4BF2B11F460FF04C06F5F7F4F9B
:1019A0008F4F9F4F089557FD9058440F551F59F082
:1019B0005F3F71F04795880F97FB991F61F09F3F3C
:1019C00079F087950895121613061406551FF2CF65
:1019D0004695F1DF08C0161617061806991FF1CFB5
:1019E00086957105610508940895E894BB276627DC
:1019F0007727CB0197F908950E94870C08F48FEFA1
:101A000008950E94140D0C94C20C0E94B40C38F07E
:101A10000E94BB0C20F0952311F00C94AB0C0C949D
:101A2000B10C11240C94F60C0E94D30C70F3959F0A
:101A3000C1F3950F50E0551F629FF001729FBB27C5
:101A4000F00DB11D639FAA27F00DB11DAA1F649F61
:101A50006627B00DA11D661F829F2227B00DA11D14
:101A6000621F739FB00DA11D621F839FA00D611D9A
:101A7000221F749F3327A00D611D231F849F600DBB
:101A8000211D822F762F6A2F11249F5750409AF0E4
:101A9000F1F088234AF0EE0FFF1FBB1F661F771F70
:101AA000881F91505040A9F79E3F510580F00C943B
:101AB000AB0C0C94F60C5F3FE4F3983ED4F38695A0
:101AC00077956795B795F795E7959F5FC1F7FE2BDB
:101AD000880F911D9695879597F9089519F416F436
:101AE0000C94B10C0C94B40D0E94DB0CB8F3992348
:101AF000C9F3B6F39F57550B87FF0E94C20D002410
:101B0000A0E640EA900180585695979528F4805CAD
:101B1000660F771F881F20F026173707480730F415
:101B2000621B730B840B202931294A2BA69517942D
:101B30000794202531254A2758F7660F771F881FFD
:101B400020F026173707480730F4620B730B840B1D
:101B5000200D311D411DA09581F7B901842F9158A9
:101B6000880F9695879508959F3F31F0915020F406
:101B7000879577956795B795880F911D9695879569
:101B800097F9089591505040660F771F881FD2F73C
:101B9000089597FB072E16F4009407D077FD09D01F
:101BA0000E94050E07FC05D03EF4909581959F4F4D
:101BB0000895709561957F4F0895A1E21A2EAA1B92
:101BC000BB1BFD010DC0AA1FBB1FEE1FFF1FA217ED
:101BD000B307E407F50720F0A21BB30BE40BF50BEA
:101BE000661F771F881F991F1A9469F76095709573
:101BF000809590959B01AC01BD01CF010895EE0F3A
:101C0000FF1F0590F491E02D0994AA1BBB1B51E125
:101C100007C0AA1FBB1FA617B70710F0A61BB70B5C
:101C2000881F991F5A95A9F780959095BC01CD0101
:101C300008950F931F93CF93DF938230910510F493
:101C400082E090E0E0917904F0917A0420E030E0C5
:101C5000A0E0B0E0309719F14081518102811381F9
:101C600048175907C8F08417950769F4109731F0A1
:101C700012960C93129713961C9327C00093790425
:101C800010937A0422C02115310519F04217530729
:101C900018F49A01BD01EF01DF01F801DBCF211536
:101CA0003105F9F0281B390B2430310580F48A8185
:101CB0009B816115710521F0FB019383828304C030
:101CC00090937A0480937904FE01329644C0FE0119
:101CD000E20FF31F819391932250310939832883B6
:101CE0003AC02091770430917804232B41F420915D
:101CF0006200309163003093780420937704209140
:101D00006000309161002115310541F42DB73EB7D7
:101D10004091640050916500241B350BE0917704DD
:101D2000F0917804E217F307A0F42E1B3F0B28175D
:101D3000390778F0AC014E5F5F4F2417350748F044
:101D40004E0F5F1F509378044093770481939193D3
:101D500002C0E0E0F0E0CF01DF91CF911F910F9141
:101D60000895CF93DF93009709F481C0FC01329767
:101D700013821282A0917904B0917A04109781F4B1
:101D800020813181820F931F209177043091780454
:101D90002817390751F5F0937804E093770467C06A
:101DA000ED0120E030E0CE17DF0740F44A815B818F
:101DB0009E0141155105F1F0EA01F5CFD383C283AD
:101DC00040815181840F951FC817D90759F4888124
:101DD0009981840F951F0296918380838A819B81CC
:101DE000938382832115310529F4F0937A04E093DB
:101DF00079043DC0E901FB83EA8349915991C40FFD
:101E0000D51FEC17FD0761F480819181840F951F28
:101E10000296E90199838883828193819B838A83D7
:101E2000E0E0F0E012968D919C911397009719F0E5
:101E3000FD01DC01F7CF8D919C9111979D012E5FE3
:101E40003F4F820F931F2091770430917804281719
:101E5000390769F4309729F410927A0410927904C2
:101E600002C013821282B0937804A0937704DF91AA
:101E7000CF910895FB01DC010D900020E9F7119747
:101E800001900D920020E1F70895FB01DC01019023
:101E90000D920020E1F70895BB274A3031F49923D1
:101EA00022F4BDE2909581959F4F0C94580FBB276B
:101EB000FB015527AA27880F991FAA1FA41710F006
:101EC000A41B83955051B9F7A05DAA3308F0A95D12
:101ED000A193009779F7B111B1931192CB010C94B2
:101EE0008A11AEE0B0E0E7E7FFE00C9442120D8902
:101EF0001E8986E08C831A8309838FEF9FE79E8378
:101F00008D83AE01475E5F4F6F89788DCE0101965C
:101F10000E94930FEF81F885E00FF11F10822E963B
:101F2000E4E00C945E12ABE0B0E0E9E9FFE00C9471
:101F300034126C017B018A01FC01178216828381B5
:101F400081FFCCC1CE0101963C01F6019381F701DE
:101F500093FD859193FF81917F01882309F4BAC194
:101F6000853239F493FD859193FF81917F0185320C
:101F700029F4B60190E00E949A11E7CF912C212C10
:101F8000312CFFE1F315D8F08B3279F038F4803240
:101F900079F08332A1F4232D20611DC08D3261F0D0
:101FA000803369F4232D216016C0832D8260382E82
:101FB000E32DE4603E2E2AC0F32DF8601DC037FCEF
:101FC0002DC020ED280F2A3040F08E32B9F436FCB7
:101FD00081C1232D2064322E19C036FE06C08AE04E
:101FE000989E200D1124922E11C0EAE02E9E200D05
:101FF0001124222EF32DF0623F2E08C08C3621F4DE
:10200000832D8068382E02C0883641F4F70193FD95
:10201000859193FF81917F018111B3CF982F9F7D8F
:102020009554933028F40C5F1F4F9FE399830DC0A4
:10203000833631F0833771F0833509F059C021C000
:10204000F801808189830E5F1F4F88248394912C2F
:10205000530113C02801F2E04F0E511CF801A0807B
:10206000B18036FE03C0692D70E002C06FEF7FEFD4
:10207000C5010E947F114C018201F32DFF773F2E95
:1020800016C0280122E0420E511CF801A080B18048
:1020900036FE03C0692D70E002C06FEF7FEFC5010F
:1020A0000E9474114C01F32DF0683F2E820133FC25
:1020B0001BC0822D90E088169906B0F4B60180E22C
:1020C00090E00E949A112A94F4CFF50137FC859193
:1020D00037FE81915F01B60190E00E949A112110B4
:1020E0002A9421E0821A91088114910471F7E8C0C2
:1020F000843611F0893641F5F80137FE07C060815A
:102100007181828193810C5F1F4F08C06081718152
:10211000072E000C880B990B0E5F1F4FF32DFF76D7
:102120003F2E97FF09C090958095709561957F4FE0
:102130008F4F9F4FF0683F2E2AE030E0A3010E94AE
:10214000D611882E861845C0853731F4232D2F7E71
:10215000B22E2AE030E025C0932D997FB92E8F361C
:10216000C1F018F4883579F0B5C0803719F0883798
:1021700021F0B0C0E92FE061BE2EB4FE0DC0FB2DF2
:10218000F460BF2E09C034FE0AC0292F2660B22E8B
:1021900006C028E030E005C020E130E002C020E1C8
:1021A00032E0F801B7FE07C06081718182819381BE
:1021B0000C5F1F4F06C06081718180E090E00E5F70
:1021C0001F4FA3010E94D611882E8618FB2DFF7782
:1021D0003F2E36FE0DC0232D2E7FA22E891458F4DB
:1021E00034FE0BC032FC09C0832D8E7EA82E05C0A4
:1021F000B82CA32C03C0B82C01C0B92CA4FE0FC06E
:10220000FE01E80DF11D8081803321F49A2D997E25
:10221000A92E09C0A2FE06C0B394B39404C08A2DAF
:10222000867809F0B394A3FC11C0A0FE06C0B214D6
:1022300088F4280C922C9B180EC0B21460F4B601DE
:1022400080E290E00E949A11B394F7CFB21418F490
:102250002B1802C0982C212CA4FE10C0B60180E3DC
:1022600090E00E949A11A2FE17C0A1FC03C088E76B
:1022700090E002C088E590E0B6010CC08A2D867817
:1022800059F0A1FE02C08BE201C080E2A7FC8DE202
:10229000B60190E00E949A11891438F4B60180E3E7
:1022A00090E00E949A119A94F7CF8A94F301E80D76
:1022B000F11D8081B60190E00E949A118110F5CF46
:1022C000222009F442CEB60180E290E00E949A11E9
:1022D0002A94F6CFF6018681978102C08FEF9FEF97
:1022E0002B96E2E10C945012FC0105906150704075
:1022F0000110D8F7809590958E0F9F1F0895FC01CF
:102300006150704001900110D8F7809590958E0F24
:102310009F1F0895DC01FC01672F71917723E1F77E
:10232000329704C07C916D9370836291AE17BF07A2
:10233000C8F308950F931F93CF93DF93FB0123817D
:1023400021FD03C08FEF9FEF2CC022FF16C04681F6
:102350005781248135814217530744F4A081B1810C
:102360009D012F5F3F4F318320838C9326813781DE
:102370002F5F3F4F3783268314C08B01EC01FB0195
:102380000084F185E02D0995892BE1F6D801169698
:102390008D919C911797019617969C938E93169703
:1023A000CE01DF91CF911F910F910895FA01AA27D5
:1023B000283051F1203181F1E8946F936E7F6E5F88
:1023C0007F4F8F4F9F4FAF4FB1E03ED0B4E03CD036
:1023D000670F781F891F9A1FA11D680F791F8A1F19
:1023E000911DA11D6A0F711D811D911DA11D20D080
:1023F00009F468943F912AE0269F11243019305D3A
:102400003193DEF6CF010895462F4770405D41932A
:10241000B3E00FD0C9F7F6CF462F4F70405D4A3377
:1024200018F0495D31FD4052419302D0A9F7EACF3F
:10243000B4E0A6959795879577956795BA95C9F76E
:1024400000976105710508959B01AC010A2E069461
:102450005795479537952795BA95C9F7620F731F1A
:10246000841F951FA01D08952F923F924F925F9257
:102470006F927F928F929F92AF92BF92CF92DF9294
:10248000EF92FF920F931F93CF93DF93CDB7DEB7F9
:10249000CA1BDB0B0FB6F894DEBF0FBECDBF09948D
:1024A0002A88398848885F846E847D848C849B84E4
:1024B000AA84B984C884DF80EE80FD800C811B81F2
:1024C000AA81B981CE0FD11D0FB6F894DEBF0FBE21
:0A24D000CDBFED010895F894FFCF91
:1024DA0000007B04200001015A000C003200610058
:1024EA00415445300D006D6F626974656C00646912
:1024FA00616C6F670041542B435354543D2225733A
:10250A00222C222573222C222573220D0041542BC2
:10251A0053415042523D312C310D007472756500A1
:10252A0066616C73650041540D0041542B434D475D
:10253A00463D310D0041542B434D47533D25730D04
:10254A000054656D7065726174757265204E6F74A2
:10255A00204E6F726D616C2D004F787967656E2021
:10256A0054616E6B2050657263656E746167652095
:10257A003A20004F787967656E2054616E6B20505F
:0C258A00657263656E7461676520000077
:00000001FF
