:100000000C943D000C941A090C945F090C945A004E
:100010000C945A000C945A000C945A000C94980DAD
:100020000C945A000C945A000C945A000C945A00E8
:100030000C945A000C945A000C945A000C945A00D8
:100040000C945A000C945A000C945A000C945A00C8
:100050000C945A00340569059E05D30508063D0633
:100060007206A706DC06110746077B07B007EE08F5
:10007000E5071A084F088408B90811241FBECFE508
:10008000D8E0DEBFCDBF11E0A0E6B0E0ECE2FAE2DE
:1000900002C005900D92A03AB107D9F725E0A0EA79
:1000A000B1E001C01D92A730B207E1F70E94B50B85
:1000B0000C9414150C9400008EE788BBB4990CC006
:1000C0002FEF89EF90E0215080409040E1F700C091
:1000D00000008EE690E00895B5990CC02FEF89EFEF
:1000E00090E0215080409040E1F700C0000080E7A0
:1000F00090E00895B6990CC02FEF89EF90E0215061
:1001000080409040E1F700C0000082E790E0089551
:100110008DE788BBB4990CC02FEF89EF90E0215098
:1001200080409040E1F700C0000084E790E008952F
:10013000B5990CC02FEF89EF90E02150804090409E
:10014000E1F700C0000086E790E00895B6990CC082
:100150002FEF89EF90E0215080409040E1F700C000
:10016000000088E790E008958BE788BBB4990CC045
:100170002FEF89EF90E0215080409040E1F700C0E0
:1001800000008AE790E00895B5990CC02FEF89EF41
:1001900090E0215080409040E1F700C000008CE7E3
:1001A00090E00895B6990CC02FEF89EF90E02150B0
:1001B00080409040E1F700C000008EE790E0089595
:1001C00087E788BBB5990CC02FEF89EF90E02150ED
:1001D00080409040E1F700C0000080E890E0089582
:1001E000089540E050E00AC02F5F3F4F02C020E07A
:1001F00030E029373105C4F34F5F5F4F841795070F
:10020000B4F7089583B1826083B984E886BF06B6E7
:1002100007FEFDCF81E090E00E94F10083B18D7F69
:1002200083B984E886BF06B607FEFDCF089593B173
:100230009E7F93B994E896BF06B607FEFDCF93B1B3
:100240009F7093B994E896BF06B607FEFDCF93B1B1
:10025000807F892B83B984E886BF06B607FEFDCF71
:100260000E9402010895CF93C82F83B18E7F83B976
:1002700084E886BF06B607FEFDCF83B18F7083B9D1
:1002800084E886BF06B607FEFDCF83B19C2F907F22
:10029000892B83B984E886BF06B607FEFDCF0E948E
:1002A000020183B18F7083B984E886BF06B607FE6A
:1002B000FDCF23B130E1C39FC0011124822B83B94C
:1002C00084E886BF06B607FEFDCF0E940201CF91EB
:1002D000089580E30E94170180E30E94170180E2E5
:1002E0000E94170188E20E9433018CE00E943301D2
:1002F00081E00E94330186E00E94330180E80E9481
:1003000033010895CF93C82F83B1816083B984E806
:1003100086BF06B607FEFDCF83B18F7083B984E830
:1003200086BF06B607FEFDCF83B19C2F907F892B39
:1003300083B984E886BF06B607FEFDCF0E9402019E
:1003400083B18F7083B984E886BF06B607FEFDCF00
:1003500023B130E1C39FC0011124822B83B984E80B
:1003600086BF06B607FEFDCF0E940201CF91089519
:10037000CF93DF93EC0103C021960E948201888114
:100380008111FACFDF91CF91089582E680B984E0A0
:1003900086BF11B8089584EA86BF06B607FEFDCF72
:1003A000089583B984E886BF06B607FEFDCF089599
:1003B0002AB128692AB920B5266820BDDC01CB0105
:1003C000880F991FAA1FBB1F880F991FAA1FBB1F49
:1003D0009C01AD01220F331F441F551F220F331FF5
:1003E000441F551F60E072E18AE790E00E9486108A
:1003F0008FEF820F89B9DA01C9010197A109B1090B
:10040000892F9A2FAB2FBB2780BD08958CB95D9B98
:10041000FECF08950F931F93CF93DF938C01C0E01D
:10042000D0E003C00E9406022196F801EC0FFD1FE8
:1004300080818111F7CFDF91CF911F910F910895A6
:10044000BF92CF92DF92EF92FF920F931F93CF93C1
:10045000DF93CDB7DEB7C456D1090FB6F894DEBF2F
:100460000FBECDBF182F092FC62EB72E82E890E001
:100470000E940A028FE19EE40197F1F700C000009C
:1004800086E890E00E940A02EFE1FEE43197F1F77E
:1004900000C000000F931F9381E990E09F938F931A
:1004A0008E010F5F1F4F1F930F930E941A12C801F6
:1004B0000E940A020F2EF0EAEF2EF1E0FF2EF02D3F
:1004C0000F2EF4E6DF2EF02DF7018D2D11928A9577
:1004D000E9F7BF92CF9289E990E09F938F931F93A2
:1004E0000F930E941A12C8010E940A02F70111928A
:1004F000DA94E9F70FB6F894DEBF0FBECDBFCC5942
:10050000DF4F0FB6F894DEBF0FBECDBFDF91CF91A6
:100510001F910F91FF90EF90DF90CF90BF900895C3
:100520000F931F93CF93DF93CDB7DEB7C456D10996
:100530000FB6F894DEBF0FBECDBF8DE990E00E94EC
:100540000A028FE19EE40197F1F700C0000083EA00
:1005500090E09F938F939F938F938BEA90E09F936C
:100560008F9382EB90E09F938F938E010F5F1F4FCD
:100570001F930F930E941A12C8010E940A0284E678
:10058000E0EAF1E0DF011D928A95E9F78FE19EE450
:100590000197F1F700C000008AEC90E00E940A0287
:1005A0000FB6F894DEBF0FBECDBFCC59DF4F0FB6EC
:1005B000F894DEBF0FBECDBFDF91CF911F910F9199
:1005C00008958F929F92AF92BF92CF92DF92EF9257
:1005D000FF920F931F934B015C01CA01B90120E008
:1005E00030E04AE754E40E94AA0F6B017C0120E04E
:1005F00030E04AE754E4C501B4010E94AA0F4B0160
:100600005C019B01AC01C701B6010E94A50F181641
:100610000CF0B7C180914D0490914E04892B09F0E4
:1006200040C00E94D00D60934D0470934E0480939F
:100630004F04909350040E94F30EA50194010E9470
:10064000E10D0E94C40E6093490470934A048093A4
:100650004B0490934C0481E090E0A0E0B0E08093E4
:10066000960390939703A0939803B093990385B34F
:10067000846085BB85B3877F85BB8091960390910D
:100680009703A0919803B09199030196A11DB11D04
:100690008093960390939703A0939803B093990344
:1006A00070C10E94D00D0091490410914A0420911C
:1006B0004B0430914C04061717072807390708F038
:1006C00085C08091960390919703A0919803B09173
:1006D000990382309105A105B10529F00397A10581
:1006E000B105A1F162C085B38B7F85BB8091960374
:1006F00090919703A0919803B09199030196A11D41
:10070000B11D8093960390939703A0939803B093A1
:1007100099036091490470914A0480914B0490912F
:100720004C040E94F30EA70196010E94E10DA50161
:1007300094010E94E00D0E94C40E609349047093DE
:100740004A0480934B0490934C041BC185B388608A
:1007500085BB8091960390919703A0919803B091E7
:1007600099030196A11DB11D809396039093970361
:10077000A0939803B09399036091490470914A043F
:1007800080914B0490914C040E94F30EA7019601B6
:100790000E94E10D0E94C40E6093490470934A04C4
:1007A00080934B0490934C04ECC0109296031092EB
:1007B0009703109298031092990310924D0410928F
:1007C0004E0410924F0410925004DBC080914D04EF
:1007D00090914E04892B09F040C00E94D00D609387
:1007E0004D0470934E0480934F04909350040E94E4
:1007F000F30EA70196010E94E10D0E94C40E6093C2
:10080000490470934A0480934B0490934C0481E014
:1008100090E0A0E0B0E08093960390939703A093BC
:100820009803B093990385B3846085BB85B3877FB4
:1008300085BB8091960390919703A0919803B09106
:1008400099030196A11DB11D809396039093970380
:10085000A0939803B093990394C00E94D00D009187
:10086000490410914A0420914B0430914C0406171E
:1008700017072807390708F084C0809196039091E4
:100880009703A0919803B091990382309105A10537
:10089000B10529F00397A105B105A1F162C085B3A7
:1008A000886085BB8091960390919703A0919803EF
:1008B000B09199030196A11DB11D80939603909369
:1008C0009703A0939803B0939903609149047091A2
:1008D0004A0480914B0490914C040E94F30EA501B0
:1008E00094010E94E10DA70196010E94E00D0E9473
:1008F000C40E6093490470934A0480934B04909310
:100900004C043FC085B38B7F85BB8091960390914B
:100910009703A0919803B09199030196A11DB11D71
:100920008093960390939703A0939803B0939903B1
:100930006091490470914A0480914B0490914C0459
:100940000E94F30EA50194010E94E10D0E94C40EC5
:100950006093490470934A0480934B0490934C0431
:1009600010C0109296031092970310929803109261
:10097000990310924D0410924E0410924F0410925D
:1009800050041F910F91FF90EF90DF90CF90BF9098
:10099000AF909F908F9008950F931F93CF93DF9305
:1009A000EC018091FD049091FE04892B09F03FC079
:1009B0000E94D00D8B019C016093FD047093FE0496
:1009C0008093FF0490930005CE01880F991FBE010C
:1009D000660F771F660F771F660F771F680F791FE7
:1009E00080E395E70E947210CB01770FAA0BBB0B37
:1009F000080F191F2A1F3B1F00939B0310939C0392
:100A000020939D0330939E0381E090E090934404F3
:100A10008093430485B3806185BB809143049091AA
:100A2000440401969093440480934304E3C30E94DA
:100A3000D00D00919B0310919C0320919D03309158
:100A40009E03061717072807390708F0D3C3E0915C
:100A50004304F09144043297E331F10508F0BEC33A
:100A6000E65DFF4F0C94A81085B3806485BB809130
:100A7000430490914404019690934404809343046A
:100A8000CE01880F991FBE01660F771F660F771F73
:100A9000660F771F680F791F80E395E70E94721039
:100AA000AB01770F660B770B80919B0390919C03B2
:100AB000A0919D03B0919E03840F951FA61FB71FA1
:100AC00080939B0390939C03A0939D03B0939E03FC
:100AD00091C385B38F7E85BB80914304909144047C
:100AE00001969093440480934304CE01880F991F8C
:100AF000BE01660F771F660F771F660F771F680F9F
:100B0000791F80E395E70E947210AB01770F660BA7
:100B1000770B80919B0390919C03A0919D03B091D2
:100B20009E03840F951FA61FB71F80939B0390936E
:100B30009C03A0939D03B0939E035CC385B3806226
:100B400085BB8091430490914404019690934404A2
:100B500080934304CE01880F991FBE01660F771F53
:100B6000660F771F660F771F680F791F80E395E781
:100B70000E947210AB01770F660B770B80919B037D
:100B800090919C03A0919D03B0919E03840F951FAB
:100B9000A61FB71F80939B0390939C03A0939D0374
:100BA000B0939E0327C385B38F7B85BB809143049D
:100BB0009091440401969093440480934304CE01A1
:100BC000880F991FBE01660F771F660F771F660F8C
:100BD000771F680F791F80E395E70E947210AB01C1
:100BE000770F660B770B80919B0390919C03A091EC
:100BF0009D03B0919E03840F951FA61FB71F80937E
:100C00009B0390939C03A0939D03B0939E03F2C219
:100C100085B3806885BB809143049091440401961C
:100C20009093440480934304CE01880F991FBE0122
:100C3000660F771F660F771F660F771F680F791F84
:100C400080E395E70E947210AB01770F660B770B7C
:100C500080919B0390919C03A0919D03B0919E0372
:100C6000840F951FA61FB71F80939B0390939C032F
:100C7000A0939D03B0939E03BDC285B38F7D85BBBA
:100C8000809143049091440401969093440480938E
:100C90004304CE01880F991FBE01660F771F660FB0
:100CA000771F660F771F680F791F80E395E70E9413
:100CB0007210AB01770F660B770B80919B039091BD
:100CC0009C03A0919D03B0919E03840F951FA61FC6
:100CD000B71F80939B0390939C03A0939D03B093B5
:100CE0009E0388C285B3806185BB80914304909147
:100CF000440401969093440480934304CE01880FEA
:100D0000991FBE01660F771F660F771F660F771F4B
:100D1000680F791F80E395E70E947210AB01770F8F
:100D2000660B770B80919B0390919C03A0919D0390
:100D3000B0919E03840F951FA61FB71F80939B033E
:100D400090939C03A0939D03B0939E0353C285B3DD
:100D50008F7785BB809143049091440401969093D2
:100D6000440480934304CE01880F991FBE01660F8F
:100D7000771F660F771F660F771F680F791F80E355
:100D800095E70E947210AB01770F660B770B80918D
:100D90009B0390919C03A0919D03B0919E03840FAF
:100DA000951FA61FB71F80939B0390939C03A0934E
:100DB0009D03B0939E031EC285B38F7E85BB809139
:100DC0004304909144040196909344048093430417
:100DD000CE01880F991FBE01660F771F660F771F20
:100DE000660F771F680F791F80E395E70E947210E6
:100DF000AB01770F660B770B80919B0390919C035F
:100E0000A0919D03B0919E03840F951FA61FB71F4D
:100E100080939B0390939C03A0939D03B0939E03A8
:100E2000E9C185B3806185BB8091430490914404FE
:100E300001969093440480934304CE01880F991F38
:100E4000BE01660F771F660F771F660F771F680F4B
:100E5000791F80E395E70E947210AB01770F660B54
:100E6000770B80919B0390919C03A0919D03B0917F
:100E70009E03840F951FA61FB71F80939B0390931B
:100E80009C03A0939D03B0939E03B4C185B3806877
:100E900085BB80914304909144040196909344044F
:100EA00080934304CE01880F991FBE01660F771F00
:100EB000660F771F660F771F680F791F80E395E72E
:100EC0000E947210AB01770F660B770B80919B032A
:100ED00090919C03A0919D03B0919E03840F951F58
:100EE000A61FB71F80939B0390939C03A0939D0321
:100EF000B0939E037FC185B38F7E85BB80914304F1
:100F00009091440401969093440480934304CE014D
:100F1000880F991FBE01660F771F660F771F660F38
:100F2000771F680F791F80E395E70E947210AB016D
:100F3000770F660B770B80919B0390919C03A09198
:100F40009D03B0919E03840F951FA61FB71F80932A
:100F50009B0390939C03A0939D03B0939E034AC16F
:100F600085B3806285BB80914304909144040196CF
:100F70009093440480934304CE01880F991FBE01CF
:100F8000660F771F660F771F660F771F680F791F31
:100F900080E395E70E947210AB01770F660B770B29
:100FA00080919B0390919C03A0919D03B0919E031F
:100FB000840F951FA61FB71F80939B0390939C03DC
:100FC000A0939D03B0939E0315C185B38F7785BB16
:100FD000809143049091440401969093440480933B
:100FE0004304CE01880F991FBE01660F771F660F5D
:100FF000771F660F771F680F791F80E395E70E94C0
:101000007210AB01770F660B770B80919B03909169
:101010009C03A0919D03B0919E03840F951FA61F72
:10102000B71F80939B0390939C03A0939D03B09361
:101030009E03E0C085B3806485BB8091430490919A
:10104000440401969093440480934304CE01880F96
:10105000991FBE01660F771F660F771F660F771FF8
:10106000680F791F80E395E70E947210AB01770F3C
:10107000660B770B80919B0390919C03A0919D033D
:10108000B0919E03840F951FA61FB71F80939B03EB
:1010900090939C03A0939D03B0939E03ABC085B334
:1010A0008F7D85BB80914304909144040196909379
:1010B000440480934304CE01880F991FBE01660F3C
:1010C000771F660F771F660F771F680F791F80E302
:1010D00095E70E947210AB01770F660B770B80913A
:1010E0009B0390919C03A0919D03B0919E03840F5C
:1010F000951FA61FB71F80939B0390939C03A093FB
:101100009D03B0939E0376C085B38F7B85BB809192
:1011100043049091440401969093440480934304C3
:10112000CE01880F991FBE01660F771F660F771FCC
:10113000660F771F680F791F80E395E70E94721092
:10114000AB01770F660B770B80919B0390919C030B
:10115000A0919D03B0919E03840F951FA61FB71FFA
:1011600080939B0390939C03A0939D03B0939E0355
:1011700041C085B38F7E85BB809143049091440428
:1011800001969093440480934304CE01880F991FE5
:10119000BE01660F771F660F771F660F771F680FF8
:1011A000791F80E395E70E947210AB01770F660B01
:1011B000770B80919B0390919C03A0919D03B0912C
:1011C0009E03840F951FA61FB71F80939B039093C8
:1011D0009C03A0939D03B0939E030CC01092440403
:1011E000109243041092FD041092FE041092FF042A
:1011F00010920005DF91CF911F910F9108951ABAB7
:1012000087E886B980E487B9089597B18F70982BE5
:1012100097B986B1806486B9349BFECF8AE18A95FE
:10122000F1F700C024B185B190E0982F8827820F94
:10123000911D08951F920F920FB60F9211242F93B4
:101240003F934F935F936F937F938F939F93AF934E
:10125000BF93EF93FF939091680081E0892780937B
:101260006800882341F081E00E94330188ED90E01E
:101270000E94B80107C081E00E94330183EE90E034
:101280000E94B8012FE788E391E021508040904010
:10129000E1F700C0000081E00E943301FF91EF916F
:1012A000BF91AF919F918F917F916F915F914F917E
:1012B0003F912F910F900FBE0F901F9018951F9286
:1012C0000F920FB60F9211242F933F934F935F937A
:1012D0006F937F938F939F93AF93BF93EF93FF93FE
:1012E0009091690081E0892780936900882341F00B
:1012F00081E00E9433018FEE90E00E94B80107C0A8
:1013000081E00E94330188EF90E00E94B8012FE74E
:1013100088E391E0215080409040E1F700C0000058
:1013200081E00E943301FF91EF91BF91AF919F91B6
:101330008F917F916F915F914F913F912F910F907E
:101340000FBE0F901F901895883291053CF48AE5E6
:1013500090E090936B0080936A0008958634910525
:101360003CF486E490E090936B0080936A000895CB
:101370008A3591053CF48CE390E090936B00809368
:101380006A0008958E35910534F488E290E09093D8
:101390006B0080936A00089560E070E88BE396E448
:1013A00008954F925F926F927F928F929F92AF9229
:1013B000BF92CF92DF92EF92FF926B017C01BA0154
:1013C000550F880B990B0E94F50E9B01AC0160E054
:1013D00070E080EF91E40E94520E4B015C012AE420
:1013E0003CE042EA5FE3C701B6010E94AA0F29E28E
:1013F0003CE545ED51E40E94E00D21E73DE34AE480
:101400005FE30E94AA0F2B013C01A701960160E057
:1014100070E088EC92E40E94E00D9B01AC01C301F6
:10142000B2010E94520E2B013C010E94CC099B018B
:10143000AC0168ED73E186E098E40E94520E6B0106
:101440007C012DEC3CEC4CE95FE3C701B6010E9446
:10145000520E0E941D109B01AC01C301B2010E94FB
:10146000AA0F6B017C0120E030E040E85FE30E94BE
:10147000A50F18165CF4A7019601C501B4010E94DE
:10148000520EA50194010E94E1020CC0A701960131
:10149000C501B4010E94AA0F9B01AC01C501B401B2
:1014A0000E94E102FF90EF90DF90CF90BF90AF904D
:1014B0009F908F907F906F905F904F900895609174
:1014C0003F047091400480914104909142040E9435
:1014D000CC04409141045091420460E070E0CB01A3
:1014E0000E94D109089587E290E00895CF93DF9399
:1014F0000E94730A0E94A409C0914104D091420441
:1015000060916A0070916B00072E000C880B990B9C
:101510000E94F50EAE010E94D10960913F047091C6
:10152000400480914104909142040E94CC04DF91D8
:10153000CF91089585E290E0089581B3806181BBE9
:101540000895809194039091950390936B008093FC
:101550006A00089580916800089580916900089557
:101560000E94B80181E00E9433010895CF9B02C020
:1015700081E0089580E00895EF92FF920F931F930A
:10158000CF93DF938C01EB01FC0101900020E9F780
:101590003197CF01801B910BFB0101900020E9F7EF
:1015A0003197E61BF70B8E0F9F1F01960E94C2100A
:1015B0007C01B8010E94EE11BE01C7010E94E31137
:1015C000C701DF91CF911F910F91FF90EF90089588
:1015D0000F931F93CF93DF9300D000D0CDB7DEB72A
:1015E0008C01CB014AE0BE016F5F7F4F0E94F51175
:1015F000BE016F5F7F4FC8010E94BC0ABC018BEE29
:1016000094E00E9420020F900F900F900F90DF91B6
:10161000CF911F910F910895CF92DF92EF92FF9299
:101620000F931F93CF93DF9300D000D0CDB7DEB7D9
:101630000E949A0A8C01BC01990F880B990B0E9499
:10164000F50E6B017C012DEC3CEC44E152E40E9470
:10165000A50F181654F026E636E640E152E4C7011D
:10166000B6010E944D0E8823CCF4B80182E091E0CF
:101670000E94E80A4AE0BE016F5F7F4FC8010E94E6
:10168000F511BE016F5F7F4F8AE191E00E94BC0AB5
:101690000E94B00A0E949D0A80E001C081E00F9084
:1016A0000F900F900F90DF91CF911F910F91FF90AE
:1016B000EF90DF90CF90089580E590E00895EF924D
:1016C000FF921F93CF93DF9300D000D0CDB7DEB74A
:1016D0000E94AD0A182F8823E9F10E945C0B7C015F
:1016E0008AE0E816F104ACF4B70189E291E00E94C7
:1016F000E80A4AE0BE016F5F7F4FC7010E94F51103
:10170000BE016F5F7F4F83E491E00E94BC0A0E949C
:10171000B00A0E94B60A811116C0809145049091CA
:101720004604892B69F48EE491E00E94B80181E0BF
:101730000E94330181E090E0909346048093450439
:101740000E949D0A07C0109246041092450491B36E
:1017500091BB182F812F0F900F900F900F90DF915A
:10176000CF911F91FF90EF900895CF93DF9384B3B3
:10177000846084BB84B3886084BB84B3806184BB91
:1017800084B3806284BB84B3806484BB84B3806888
:1017900084BB8FE087BB81B381BB81B381BB81B345
:1017A000806181BB8AB38ABB85B7826085BF85B7FC
:1017B000886085BF8BB780648BBF8BB780688BBF19
:1017C00060E072E18AE790E00E94BD0D78940E948B
:1017D000FF080E94C5010E94CB0180E70E94D10151
:1017E0000E94690180E80E9433018CE591E00E942B
:1017F000B80180EC0E9433012FEF40E752E0215006
:1018000040405040E1F700C0000088E691E00E94AF
:10181000B8018FEF90E722E0815090402040E1F73F
:1018200000C0000081E00E9433014FEF50E782E0EA
:10183000415050408040E1F700C0000080E80E9425
:10184000330181E00E94330180EF88BBC0E0D0E02B
:101850000E945C0080939A03FE01E551FB4F808358
:10186000B49B03C0B59B01C0B69B219690E00E943B
:10187000B8019FE725EB41E0915020404040E1F75F
:1018800000C00000B49BDDCFB69B03C086B3803F91
:10189000F9F681E00E94330180E80E943301C0E044
:1018A000D0E011C0FE01E551FB4F808190E00E9425
:1018B000B8015FE788E391E0515080409040E1F744
:1018C00000C000002196CB30D10564F32FEF40E734
:1018D00052E0215040405040E1F700C0000081E05C
:1018E0000E94330180E80E94330188E691E00E9463
:1018F000B80180EC0E9433018FE691E00E94B801AC
:101900008FEF90E722E0815090402040E1F700C047
:10191000000081E00E94330160E875E280E090E021
:101920000E94D8014FEF59E688E141505040804075
:10193000E1F700C000000E94900280E80E9433019D
:101940008AE791E00E94B8018FE791E00E94B80118
:1019500080EC0E94330183E891E00E94B80188E89E
:1019600091E00E94B8019FEF24E34CE091502040A9
:101970004040E1F700C0000081E00E94330180E8B0
:101980000E9433018FE891E00E94B80183E991E061
:101990000E94B80180EC0E94330187E991E00E9427
:1019A000B8015FEF84E39CE0515080409040E1F744
:1019B00000C0000081E00E94330180916600909198
:1019C000670082309105A9F18330910509F45DC06B
:1019D000019709F07DC080E00E94050990930205FF
:1019E00080930105880F991F9C01220F331F220F3E
:1019F000331F220F331FA901481B590B9A0112F400
:101A000021503C4F832F85958595932F990F990BE6
:101A10000A969093420480934104809166009091CD
:101A20006700019690936700809366000E94FF080C
:101A30004FC083E00E940509909302058093010541
:101A40004AE852E0849F9001859F300D949F300DAD
:101A50001124332314F421503C4F832F8595859511
:101A6000932F990F990B86509F4F9093400480932A
:101A70003F04809166009091670001969093670003
:101A8000809366000E94FF0823C084E00E9405093D
:101A9000909302058093010544E6489F9001499F79
:101AA000300D1124332314F421503C4F832F880F21
:101AB000880B932F95959595909394038093950318
:101AC00081E090E090936700809366000E94FF0899
:101AD0000E945F0B882339F10E94AA0A8823C1F073
:101AE0000E940C0B882309F428CF0E94730A2091CE
:101AF0006C0030916D00821793073CF480916A006E
:101B000090916B000E94760A18CF0E945F0A15CF51
:101B10000E940C0B0E94A10A80916A0090916B00B8
:101B20000E94760A0ACF80E090E0DF91CF9108957D
:101B30001F920F920FB60F9211248F939F93AF9322
:101B4000BF938091510490915204A0915304B0919D
:101B500054040196A11DB11D809351049093520429
:101B6000A0935304B0935404BF91AF919F918F9170
:101B70000F900FBE0F901F90189520E43FE140E0BA
:101B800050E00E9486108EB58A608EBDBB27A52FBF
:101B9000942F832F8BBD2ABD89B7806189BF08959B
:101BA000F89421E009C06091510470915204809131
:101BB00053049091540420E02111F5CF78940895B6
:101BC0005058BB27AA270E94F80D0C946B0F0E9457
:101BD0005D0F38F00E94640F20F039F49F3F19F434
:101BE00026F40C945A0F0EF4E095E7FB0C94540F76
:101BF000E92F0E947C0F58F3BA1762077307840716
:101C0000950720F079F4A6F50C949E0F0EF4E0955C
:101C10000B2EBA2FA02D0B01B90190010C01CA01A6
:101C2000A0011124FF27591B99F0593F50F4503E51
:101C300068F11A16F040A22F232F342F4427585F43
:101C4000F3CF469537952795A795F0405395C9F75B
:101C50007EF41F16BA0B620B730B840BBAF0915013
:101C6000A1F0FF0FBB1F661F771F881FC2F70EC0B2
:101C7000BA0F621F731F841F48F487957795679585
:101C8000B795F7959E3F08F0B0CF9395880F08F071
:101C90009927EE0F9795879508950E94300F08F4C5
:101CA00081E008950E94660E0C946B0F0E94640FF1
:101CB00058F00E945D0F40F029F45F3F29F00C942A
:101CC000540F51110C949F0F0C945A0F0E947C0FCB
:101CD00068F39923B1F3552391F3951B550BBB275B
:101CE000AA2762177307840738F09F5F5F4F220FA0
:101CF000331F441FAA1FA9F335D00E2E3AF0E0E897
:101D000032D091505040E695001CCAF72BD0FE2FE0
:101D100029D0660F771F881FBB1F26173707480774
:101D2000AB07B0E809F0BB0B802DBF01FF2793582C
:101D30005F4F3AF09E3F510578F00C94540F0C948D
:101D40009F0F5F3FE4F3983ED4F3869577956795B0
:101D5000B795F7959F5FC9F7880F911D9695879561
:101D600097F90895E1E0660F771F881FBB1F621780
:101D700073078407BA0720F0621B730B840BBA0B3E
:101D8000EE1F88F7E09508950E94840F88F09F5712
:101D900098F0B92F9927B751B0F0E1F0660F771F8F
:101DA000881F991F1AF0BA95C9F714C0B13091F085
:101DB0000E949E0FB1E008950C949E0F672F782F1C
:101DC0008827B85F39F0B93FCCF38695779567954A
:101DD000B395D9F73EF490958095709561957F4FB6
:101DE0008F4F9F4F0895E89409C097FB3EF490955C
:101DF0008095709561957F4F8F4F9F4F9923A9F0E4
:101E0000F92F96E9BB279395F69587957795679572
:101E1000B795F111F8CFFAF4BB0F11F460FF1BC0B6
:101E20006F5F7F4F8F4F9F4F16C0882311F096E949
:101E300011C0772321F09EE8872F762F05C06623F7
:101E400071F096E8862F70E060E02AF09A95660FB0
:101E5000771F881FDAF7880F9695879597F9089569
:101E6000990F0008550FAA0BE0E8FEEF16161706AB
:101E7000E807F907C0F012161306E407F50798F013
:101E8000621B730B840B950B39F40A2661F0232B2C
:101E9000242B252B21F408950A2609F4A140A695A8
:101EA0008FEF811D811D089597F99F6780E870E08D
:101EB00060E008959FEF80EC089500240A941616C0
:101EC000170618060906089500240A941216130628
:101ED000140605060895092E0394000C11F48823B6
:101EE00052F0BB0F40F4BF2B11F460FF04C06F5FD2
:101EF0007F4F8F4F9F4F089557FD9058440F551FA8
:101F000059F05F3F71F04795880F97FB991F61F07B
:101F10009F3F79F087950895121613061406551FF2
:101F2000F2CF4695F1DF08C0161617061806991F5E
:101F3000F1CF86957105610508940895E894BB2753
:101F400066277727CB0197F908950E94300F08F490
:101F50008FEF08950E94BD0F0C946B0F0E945D0FD0
:101F600038F00E94640F20F0952311F00C94540F68
:101F70000C945A0F11240C949F0F0E947C0F70F345
:101F8000959FC1F3950F50E0551F629FF001729F1E
:101F9000BB27F00DB11D639FAA27F00DB11DAA1F2D
:101FA000649F6627B00DA11D661F829F2227B00D7A
:101FB000A11D621F739FB00DA11D621F839FA00D05
:101FC000611D221F749F3327A00D611D231F849F55
:101FD000600D211D822F762F6A2F11249F575040AC
:101FE0009AF0F1F088234AF0EE0FFF1FBB1F661F27
:101FF000771F881F91505040A9F79E3F510580F0F0
:102000000C94540F0C949F0F5F3FE4F3983ED4F36D
:10201000869577956795B795F795E7959F5FC1F793
:10202000FE2B880F911D9695879597F9089519F4C1
:1020300016F40C945A0F0C945D100E94840FB8F3A0
:102040009923C9F3B6F39F57550B87FF0E946B1076
:102050000024A0E640EA900180585695979528F410
:10206000805C660F771F881F20F026173707480708
:1020700030F4621B730B840B202931294A2BA6955F
:1020800017940794202531254A2758F7660F771FA4
:10209000881F20F026173707480730F4620B730BB0
:1020A000840B200D311D411DA09581F7B901842FAE
:1020B0009158880F9695879508959F3F31F09150DC
:1020C00020F4879577956795B795880F911D96951C
:1020D000879597F9089591505040660F771F881F94
:1020E000D2F7089597FB072E16F4009407D077FDDA
:1020F00009D00E94AE1007FC05D03EF49095819562
:102100009F4F0895709561957F4F0895A1E21A2E13
:10211000AA1BBB1BFD010DC0AA1FBB1FEE1FFF1F8B
:10212000A217B307E407F50720F0A21BB30BE40BDB
:10213000F50B661F771F881F991F1A9469F7609522
:102140007095809590959B01AC01BD01CF010895DC
:10215000EE0FFF1F0590F491E02D0994AA1BBB1B05
:1021600051E107C0AA1FBB1FA617B70710F0A61B97
:10217000B70B881F991F5A95A9F780959095BC01B8
:10218000CD0108950F931F93CF93DF938230910574
:1021900010F482E090E0E0910505F091060520E062
:1021A00030E0A0E0B0E0309719F140815181028128
:1021B000138148175907C8F08417950769F41097D9
:1021C00031F012960C93129713961C9327C000932C
:1021D00005051093060522C02115310519F0421797
:1021E000530718F49A01BD01EF01DF01F801DBCFBD
:1021F00021153105F9F0281B390B2430310580F405
:102200008A819B816115710521F0FB019383828393
:1022100004C09093060580930505FE01329644C0E4
:10222000FE01E20FF31F819391932250310939830C
:1022300028833AC02091030530910405232B41F4F3
:1022400020916200309163003093040520930305D0
:1022500020916000309161002115310541F42DB7C6
:102260003EB74091640050916500241B350BE0910E
:102270000305F0910405E217F307A0F42E1B3F0BB2
:102280002817390778F0AC014E5F5F4F24173507E8
:1022900048F04E0F5F1F5093040540930305819350
:1022A000919302C0E0E0F0E0CF01DF91CF911F9168
:1022B0000F910895CF93DF93009709F481C0FC013B
:1022C000329713821282A0910505B09106051097EE
:1022D00081F420813181820F931F20910305309179
:1022E00004052817390751F5F0930405E093030519
:1022F00067C0ED0120E030E0CE17DF0740F44A81EF
:102300005B819E0141155105F1F0EA01F5CFD383C0
:10231000C28340815181840F951FC817D90759F492
:1023200088819981840F951F0296918380838A8189
:102330009B81938382832115310529F4F09306054F
:10234000E09305053DC0E901FB83EA83499159917A
:10235000C40FD51FEC17FD0761F480819181840FB4
:10236000951F0296E90199838883828193819B83DB
:102370008A83E0E0F0E012968D919C91139700978C
:1023800019F0FD01DC01F7CF8D919C9111979D0112
:102390002E5F3F4F820F931F20910305309104055C
:1023A0002817390769F4309729F41092060510921E
:1023B000050502C013821282B0930405A0930305A1
:1023C000DF91CF910895FB01DC010D900020E9F72A
:1023D000119701900D920020E1F70895FB01DC01B7
:1023E00001900D920020E1F70895BB274A3031F4A7
:1023F000992322F4BDE2909581959F4F0C94011290
:10240000BB27FB015527AA27880F991FAA1FA417CE
:1024100010F0A41B83955051B9F7A05DAA3308F0C2
:10242000A95DA193009779F7B111B1931192CB01F6
:102430000C943314AEE0B0E0E0E2F2E10C94EB1463
:102440000D891E8986E08C831A8309838FEF9FE7AD
:102450009E838D83AE01475E5F4F6F89788DCE017D
:1024600001960E943C12EF81F885E00FF11F108267
:102470002E96E4E00C940715ABE0B0E0E2E4F2E164
:102480000C94DD146C017B018A01FC011782168219
:10249000838181FFCCC1CE0101963C01F60193817D
:1024A000F70193FD859193FF81917F01882309F4C2
:1024B000BAC1853239F493FD859193FF81917F01F3
:1024C000853229F4B60190E00E944314E7CF912CA5
:1024D000212C312CFFE1F315D8F08B3279F038F450
:1024E000803279F08332A1F4232D20611DC08D321A
:1024F00061F0803369F4232D216016C0832D826042
:10250000382EE32DE4603E2E2AC0F32DF8601DC066
:1025100037FC2DC020ED280F2A3040F08E32B9F460
:1025200036FC81C1232D2064322E19C036FE06C030
:102530008AE0989E200D1124922E11C0EAE02E9E72
:10254000200D1124222EF32DF0623F2E08C08C3670
:1025500021F4832D8068382E02C0883641F4F701BB
:1025600093FD859193FF81917F018111B3CF982FC6
:102570009F7D9554933028F40C5F1F4F9FE3998300
:102580000DC0833631F0833771F0833509F059C0BF
:1025900021C0F801808189830E5F1F4F88248394B6
:1025A000912C530113C02801F2E04F0E511CF80189
:1025B000A080B18036FE03C0692D70E002C06FEFCD
:1025C0007FEFC5010E9428144C018201F32DFF7793
:1025D0003F2E16C0280122E0420E511CF801A080B7
:1025E000B18036FE03C0692D70E002C06FEF7FEF4F
:1025F000C5010E941D144C01F32DF0683F2E82018D
:1026000033FC1BC0822D90E088169906B0F4B60109
:1026100080E290E00E9443142A94F4CFF50137FC45
:10262000859137FE81915F01B60190E00E944314CD
:1026300021102A9421E0821A91088114910471F7E3
:10264000E8C0843611F0893641F5F80137FE07C03D
:1026500060817181828193810C5F1F4F08C060810E
:102660007181072E000C880B990B0E5F1F4FF32D05
:10267000FF763F2E97FF09C09095809570956195E4
:102680007F4F8F4F9F4FF0683F2E2AE030E0A3012D
:102690000E947F14882E861845C0853731F4232D7B
:1026A0002F7EB22E2AE030E025C0932D997FB92EDF
:1026B0008F36C1F018F4883579F0B5C0803719F03D
:1026C000883721F0B0C0E92FE061BE2EB4FE0DC006
:1026D000FB2DF460BF2E09C034FE0AC0292F2660EE
:1026E000B22E06C028E030E005C020E130E002C094
:1026F00020E132E0F801B7FE07C06081718182817C
:1027000093810C5F1F4F06C06081718180E090E073
:102710000E5F1F4FA3010E947F14882E8618FB2D89
:10272000FF773F2E36FE0DC0232D2E7FA22E89145B
:1027300058F434FE0BC032FC09C0832D8E7EA82EC7
:1027400005C0B82CA32C03C0B82C01C0B92CA4FE22
:102750000FC0FE01E80DF11D8081803321F49A2D18
:10276000997EA92E09C0A2FE06C0B394B39404C0FA
:102770008A2D867809F0B394A3FC11C0A0FE06C090
:10278000B21488F4280C922C9B180EC0B21460F47A
:10279000B60180E290E00E944314B394F7CFB214E4
:1027A00018F42B1802C0982C212CA4FE10C0B601DE
:1027B00080E390E00E944314A2FE17C0A1FC03C076
:1027C00088E790E002C088E590E0B6010CC08A2D51
:1027D000867859F0A1FE02C08BE201C080E2A7FC1E
:1027E0008DE2B60190E00E944314891438F4B601DA
:1027F00080E390E00E9443149A94F7CF8A94F30107
:10280000E80DF11D8081B60190E00E944314811013
:10281000F5CF222009F442CEB60180E290E00E947A
:1028200043142A94F6CFF6018681978102C08FEF78
:102830009FEF2B96E2E10C94F914FC010590615096
:1028400070400110D8F7809590958E0F9F1F0895C6
:10285000FC016150704001900110D8F7809590956F
:102860008E0F9F1F0895DC01FC01672F7191772364
:10287000E1F7329704C07C916D9370836291AE173B
:10288000BF07C8F308950F931F93CF93DF93FB0106
:10289000238121FD03C08FEF9FEF2CC022FF16C0C4
:1028A00046815781248135814217530744F4A08122
:1028B000B1819D012F5F3F4F318320838C9326810F
:1028C00037812F5F3F4F3783268314C08B01EC0184
:1028D000FB010084F185E02D0995892BE1F6D801F3
:1028E00016968D919C911797019617969C938E93AF
:1028F0001697CE01DF91CF911F910F910895FA01A4
:10290000AA27283051F1203181F1E8946F936E7F2E
:102910006E5F7F4F8F4F9F4FAF4FB1E03ED0B4E01F
:102920003CD0670F781F891F9A1FA11D680F791F60
:102930008A1F911DA11D6A0F711D811D911DA11D71
:1029400020D009F468943F912AE0269F1124301981
:10295000305D3193DEF6CF010895462F4770405D1C
:102960004193B3E00FD0C9F7F6CF462F4F70405DCB
:102970004A3318F0495D31FD4052419302D0A9F726
:10298000EACFB4E0A6959795879577956795BA9520
:10299000C9F700976105710508959B01AC010A2EE6
:1029A00006945795479537952795BA95C9F7620FBD
:1029B000731F841F951FA01D08952F923F924F9261
:1029C0005F926F927F928F929F92AF92BF92CF92BF
:1029D000DF92EF92FF920F931F93CF93DF93CDB7C8
:1029E000DEB7CA1BDB0B0FB6F894DEBF0FBECDBF40
:1029F00009942A88398848885F846E847D848C8411
:102A00009B84AA84B984C884DF80EE80FD800C8119
:102A10001B81AA81B981CE0FD11D0FB6F894DEBFFC
:0C2A20000FBECDBFED010895F894FFCF6C
:102A2C00000007052000010001015A005E00310082
:102A3C0032003300340035003600370038003900DE
:102A4C00300041540D0041542B434D47463D310D50
:102A5C000041542B434D47533D25730D00415445C4
:102A6C00300D006D6F626974656C006469616C6F28
:102A7C00670041542B435354543D222573222C227E
:102A8C002573222C222573220D0041542B534150C7
:102A9C0042523D312C310D004F32204175746F2064
:102AAC004F6E004F32204175746F204F6666005098
:102ABC006F776572204F6E00506F776572204F668E
:102ACC00660054656D7065726174757265204E6F29
:102ADC0074204E6F726D616C2D0041626E6F726D61
:102AEC00616C2054656D702D004F787967656E2090
:102AFC0054616E6B2050657263656E7461676520FE
:102B0C003A20004F787954616E6B20252000504F8D
:102B1C00574552204641494C55524500456E746507
:102B2C00722050686F6E65004E756D626572005252
:102B3C00656769737465726564004F78794C002021
:102B4C0048520054656D7000204C756E6750004201
:102B5C00504D0020424C004F787954616E6B500000
:00000001FF
