:100000000C943D000C948B010C9495010C949F0171
:100010000C945A000C945A000C945A000C94660BE1
:100020000C945A000C945A000C945A000C945A00E8
:100030000C945A000C945A000C945A000C945A00D8
:100040000C945A000C945A000C945A000C945A00C8
:100050000C945A0063069806CD06020737076C0712
:10006000A107D6070B0840087508AA08DF081D0A73
:10007000140949097E09B309E80911241FBECFE517
:10008000D8E0DEBFCDBF11E0A0E6B0E0E8ECF5E2DD
:1000900002C005900D92AA31B107D9F724E0AAE178
:1000A000B1E001C01D92AB37B207E1F70E94630ACD
:1000B0000C94E2120C94000040E050E00AC02F5F64
:1000C0003F4F02C020E030E029373105C4F34F5FD5
:1000D0005F4F84179507B4F7089583B1826083B9A1
:1000E00084E886BF06B607FEFDCF81E090E00E945F
:1000F0005C0083B18D7F83B984E886BF06B607FEB6
:10010000FDCF089593B19E7F93B994E896BF06B64C
:1001100007FEFDCF93B19F7093B994E896BF06B6E2
:1001200007FEFDCF93B1807F892B83B984E886BF1A
:1001300006B607FEFDCF0E946D000895CF93C82F2D
:1001400083B18E7F83B984E886BF06B607FEFDCFF4
:1001500083B18F7083B984E886BF06B607FEFDCFF2
:1001600083B19C2F907F892B83B984E886BF06B624
:1001700007FEFDCF0E946D0083B18F7083B984E8C4
:1001800086BF06B607FEFDCF23B130E1C39FC00195
:100190001124822B83B984E886BF06B607FEFDCF03
:1001A0000E946D00CF91089580E30E94820080E359
:1001B0000E94820080E20E94820088E20E949E00EB
:1001C0008CE00E949E0081E00E949E0086E00E94DA
:1001D0009E0080E80E949E000895CF93C82F83B1AF
:1001E000816083B984E886BF06B607FEFDCF83B180
:1001F0008F7083B984E886BF06B607FEFDCF83B152
:100200009C2F907F892B83B984E886BF06B607FEB2
:10021000FDCF0E946D0083B18F7083B984E886BFE3
:1002200006B607FEFDCF23B130E1C39FC001112404
:10023000822B83B984E886BF06B607FEFDCF0E94F5
:100240006D00CF910895CF93DF93EC0103C0219609
:100250000E94ED0088818111FACFDF91CF9108953E
:1002600082E680B984E086BF11B8089584EA86BF2B
:1002700006B607FEFDCF089583B984E886BF06B6AB
:1002800007FEFDCF08952AB128692AB920B526684E
:1002900020BDDC01CB01880F991FAA1FBB1F880F4F
:1002A000991FAA1FBB1F9C01AD01220F331F441FC2
:1002B000551F220F331F441F551F60E072E18AE76C
:1002C00090E00E94540E8FEF820F89B9DA01C901C4
:1002D0000197A109B109892F9A2FAB2FBB2780BDA8
:1002E00008958CB95D9BFECF08950F931F93CF9314
:1002F000DF938C01C0E0D0E003C00E947101219621
:10030000F801EC0FFD1F80818111F7CFDF91CF91B4
:100310001F910F9108951F920F920FB60F92112403
:100320000F900FBE0F901F9018951F920F920FB64F
:100330000F9211240F900FBE0F901F9018951F92CF
:100340000F920FB60F9211240F900FBE0F901F90B7
:1003500018958230910559F08330910571F001971D
:1003600089F41ABA87E886B981E087B908951ABA7C
:1003700087E886B983E087B908951ABA87E886B90D
:1003800084E087B9089597B18F70982B97B986B19B
:10039000806486B9349BFECF8AE18A95F1F700C06C
:1003A00024B185B190E0982F8827820F911D089580
:1003B0000F931F93CF93DF93CDB7DEB7C456D10908
:1003C0000FB6F894DEBF0FBECDBF8EE690E00E9460
:1003D00075018FE19EE40197F1F700C0000084E70A
:1003E00090E09F938F939F938F938CE790E09F93E0
:1003F0008F9383E890E09F938F938E010F5F1F4F41
:100400001F930F930E94E80FC8010E94750184E6B4
:10041000EAE1F1E0DF011D928A95E9F78FE19EE4C0
:100420000197F1F700C000008BE990E00E94750190
:100430000FB6F894DEBF0FBECDBFCC59DF4F0FB65D
:10044000F894DEBF0FBECDBFDF91CF911F910F910A
:1004500008958F929F92AF92BF92CF92DF92EF92C8
:10046000FF920F931F934B015C01CA01B90120E079
:1004700030E04AE754E40E94780D6B017C0120E0F3
:1004800030E04AE754E4C501B4010E94780D4B0105
:100490005C019B01AC01C701B6010E94730D1816E7
:1004A0000CF0B7C18091C5039091C603892B09F068
:1004B00040C00E949E0B6093C5037093C603809357
:1004C000C7039093C8030E94C10CA50194010E9428
:1004D000AF0B0E94920C6093C1037093C203809390
:1004E000C3039093C40381E090E0A0E0B0E0809368
:1004F000100390931103A0931203B093130385B3D9
:10050000846085BB85B3877F85BB80911003909104
:100510001103A0911203B09113030196A11DB11D07
:100520008093100390931103A0931203B0931303CD
:1005300070C10E949E0B0091C1031091C2032091D3
:10054000C3033091C403061717072807390708F0BB
:1005500085C08091100390911103A0911203B09176
:10056000130382309105A105B10529F00397A10578
:10057000B105A1F162C085B38B7F85BB809110036B
:1005800090911103A0911203B09113030196A11D44
:10059000B11D8093100390931103A0931203B093A5
:1005A00013036091C1037091C2038091C3039091C2
:1005B000C4030E94C10CA70196010E94AF0BA501C4
:1005C00094010E94AE0B0E94920C6093C103709341
:1005D000C2038093C3039093C4031BC185B3886097
:1005E00085BB8091100390911103A0911203B091EB
:1005F00013030196A11DB11D809310039093110365
:10060000A0931203B09313036091C1037091C203CE
:100610008091C3039091C4030E94C10CA70196016D
:100620000E94AF0B0E94920C6093C1037093C203AF
:100630008093C3039093C403ECC0109210031092F4
:10064000110310921203109213031092C50310921B
:10065000C6031092C7031092C803DBC08091C50384
:100660009091C603892B09F040C00E949E0B6093B5
:10067000C5037093C6038093C7039093C8030E9479
:10068000C10CA70196010E94AF0B0E94920C6093CF
:10069000C1037093C2038093C3039093C40381E0AA
:1006A00090E0A0E0B0E08093100390931103A0933A
:1006B0001203B093130385B3846085BB85B3877F32
:1006C00085BB8091100390911103A0911203B0910A
:1006D00013030196A11DB11D809310039093110384
:1006E000A0931203B093130394C00E949E0B009139
:1006F000C1031091C2032091C3033091C4030617B4
:1007000017072807390708F084C0809110039091DB
:100710001103A0911203B091130382309105A1053A
:10072000B10529F00397A105B105A1F162C085B318
:10073000886085BB8091100390911103A0911203F2
:10074000B09113030196A11DB11D809310039093E6
:100750001103A0931203B09313036091C10370912E
:10076000C2038091C3039091C4030E94C10CA501F0
:1007700094010E94AF0BA70196010E94AE0B0E944C
:10078000920C6093C1037093C2038093C303909350
:10079000C4033FC085B38B7F85BB809110039091CC
:1007A0001103A0911203B09113030196A11DB11D75
:1007B0008093100390931103A0931203B09313033B
:1007C0006091C1037091C2038091C3039091C403EF
:1007D0000E94C10CA50194010E94AF0B0E94920CD3
:1007E0006093C1037093C2038093C3039093C403C7
:1007F00010C0109210031092110310921203109265
:1008000013031092C5031092C6031092C7031092EF
:10081000C8031F910F91FF90EF90DF90CF90BF9092
:10082000AF909F908F90089560E070E88BE396E41E
:1008300008954F925F926F927F928F929F92AF92A4
:10084000BF92CF92DF92EF92FF926B017C01BA01CF
:10085000550F880B990B0E94C30C9B01AC0160E003
:1008600070E080EF91E40E94200C4B015C012AE4CF
:100870003CE042EA5FE3C701B6010E94780D29E23D
:100880003CE545ED51E40E94AE0B21E73DE34AE42F
:100890005FE30E94780D2B013C01A701960160E007
:1008A00070E088EC92E40E94AE0B9B01AC01C301A6
:1008B000B2010E94200C2B013C010E9414049B01F8
:1008C000AC0168ED73E186E098E40E94200C6B01B6
:1008D0007C012DEC3CEC4CE95FE3C701B6010E94C2
:1008E000200C0E94EB0D9B01AC01C301B2010E94E0
:1008F000780D6B017C0120E030E040E85FE30E946E
:10090000730D18165CF4A7019601C501B4010E948D
:10091000200CA50194010E9429020CC0A701960198
:10092000C501B4010E94780D9B01AC01C501B40161
:100930000E942902FF90EF90DF90CF90BF90AF9080
:100940009F908F907F906F905F904F90089580E080
:1009500090E0089585E290E0089581E0089581E0B7
:1009600008950E9423010895EF92FF920F931F9321
:10097000CF93DF938C01EB01FC0101900020E9F79C
:100980003197CF01801B910BFB0101900020E9F70B
:100990003197E61BF70B8E0F9F1F01960E94900E5A
:1009A0007C01B8010E94BC0FBE01C7010E94B10FBB
:1009B000C701DF91CF911F910F91FF90EF900895A4
:1009C000BF92CF92DF92EF92FF920F931F93CF933C
:1009D000DF93CDB7DEB7C456D1090FB6F894DEBFAA
:1009E0000FBECDBF182F092FC62EB72E84EB90E077
:1009F0000E9475018FE19EE40197F1F700C00000AD
:100A000088EB90E00E947501EFE1FEE43197F1F789
:100A100000C000000F931F9383EC90E09F938F938F
:100A20008E010F5F1F4F1F930F930E94E80FC801A5
:100A30000E9475010F2EFAE1EF2EF1E0FF2EF02D4E
:100A40000F2EF4E6DF2EF02DF7018D2D11928A95F1
:100A5000E9F7BF92CF928BEC90E09F938F931F9317
:100A60000F930E94E80FC8010E947501F7011192CF
:100A7000DA94E9F70FB6F894DEBF0FBECDBFCC59BC
:100A8000DF4F0FB6F894DEBF0FBECDBFDF91CF9121
:100A90001F910F91FF90EF90DF90CF90BF9008953E
:100AA0000F931F93CF93DF9300D000D0CDB7DEB765
:100AB0008C01CB014AE0BE016F5F7F4F0E94C30FE4
:100AC000BE016F5F7F4FC8010E94B404BC0183E682
:100AD00094E00E94E0040F900F900F900F90DF9130
:100AE000CF911F910F910895CF92DF92EF92FF92D5
:100AF0000F931F93CF93DF9300D000D0CDB7DEB715
:100B00000E94AA048C01BC01990F880B990B0E94CA
:100B1000C30C6B017C012DEC3CEC44E152E40E94DF
:100B2000730D181654F026E636E640E152E4C7018C
:100B3000B6010E941B0C8823BCF4B8018FEC90E036
:100B40000E9450054AE0BE016F5F7F4FC8010E94BE
:100B5000C30FBE016F5F7F4F8FEC90E00E94B40423
:100B60000E94B10480E001C081E00F900F900F90CF
:100B70000F90DF91CF911F910F91FF90EF90DF9039
:100B8000CF90089580E590E00895EF92FF921F9333
:100B9000CF93DF9300D000D0CDB7DEB70E94AF0473
:100BA000182F8823E9F00E94C2057C018AE0E8162C
:100BB000F104B4F4B70187EE90E00E9450054AE0DA
:100BC000BE016F5F7F4FC7010E94C30FBE016F5F01
:100BD0007F4F81E091E00E94B4040E94B10410E0D4
:100BE000812F0F900F900F900F90DF91CF911F9159
:100BF000FF90EF9008950F931F93CF93DF93EC0135
:100C00008091710490917204892B09F03FC00E9479
:100C10009E0B8B019C01609371047093720480930E
:100C2000730490937404CE01880F991FBE01660F60
:100C3000771F660F771F660F771F680F791F80E396
:100C400095E70E94400ECB01770FAA0BBB0B080F54
:100C5000191F2A1F3B1F009315031093160320939F
:100C600017033093180381E090E09093BE038093C4
:100C7000BD0385B3806185BB8091BD039091BE03A8
:100C800001969093BE038093BD03E3C30E949E0B25
:100C9000009115031091160320911703309118034A
:100CA000061717072807390708F0D3C3E091BD03DB
:100CB000F091BE033297E331F10508F0BEC3E65D63
:100CC000FF4F0C94760E85B3806485BB8091BD0385
:100CD0009091BE0301969093BE038093BD03CE0115
:100CE000880F991FBE01660F771F660F771F660F6B
:100CF000771F680F791F80E395E70E94400EAB01D4
:100D0000770F660B770B8091150390911603A091D6
:100D10001703B0911803840F951FA61FB71F809368
:100D2000150390931603A0931703B093180391C370
:100D300085B38F7E85BB8091BD039091BE030196E4
:100D40009093BE038093BD03CE01880F991FBE010F
:100D5000660F771F660F771F660F771F680F791F63
:100D600080E395E70E94400EAB01770F660B770B8F
:100D70008091150390911603A0911703B091180369
:100D8000840F951FA61FB71F80931503909316031A
:100D9000A0931703B09318035CC385B3806285BB2F
:100DA0008091BD039091BE0301969093BE03809302
:100DB000BD03CE01880F991FBE01660F771F660F16
:100DC000771F660F771F680F791F80E395E70E94F2
:100DD000400EAB01770F660B770B80911503909156
:100DE0001603A0911703B0911803840F951FA61F37
:100DF000B71F8093150390931603A0931703B09326
:100E0000180327C385B38F7B85BB8091BD03909169
:100E1000BE0301969093BE038093BD03CE01880F5D
:100E2000991FBE01660F771F660F771F660F771F2A
:100E3000680F791F80E395E70E94400EAB01770FA2
:100E4000660B770B8091150390911603A091170301
:100E5000B0911803840F951FA61FB71F8093150329
:100E600090931603A0931703B0931803F2C285B3AF
:100E7000806885BB8091BD039091BE0301969093DD
:100E8000BE038093BD03CE01880F991FBE01660F7C
:100E9000771F660F771F660F771F680F791F80E334
:100EA00095E70E94400EAB01770F660B770B8091A0
:100EB000150390911603A0911703B0911803840FA6
:100EC000951FA61FB71F8093150390931603A09339
:100ED0001703B0931803BDC285B38F7D85BB809186
:100EE000BD039091BE0301969093BE038093BD0312
:100EF000CE01880F991FBE01660F771F660F771FFF
:100F0000660F771F680F791F80E395E70E94400EF8
:100F1000AB01770F660B770B809115039091160349
:100F2000A0911703B0911803840F951FA61FB71F38
:100F30008093150390931603A0931703B09318039F
:100F400088C285B3806185BB8091BD039091BE034B
:100F500001969093BE038093BD03CE01880F991F25
:100F6000BE01660F771F660F771F660F771F680F2A
:100F7000791F80E395E70E94400EAB01770F660B67
:100F8000770B8091150390911603A0911703B091F0
:100F90001803840F951FA61FB71F80931503909306
:100FA0001603A0931703B093180353C285B38F772A
:100FB00085BB8091BD039091BE0301969093BE03C3
:100FC0008093BD03CE01880F991FBE01660F771F66
:100FD000660F771F660F771F680F791F80E395E70D
:100FE0000E94400EAB01770F660B770B80911503C3
:100FF00090911603A0911703B0911803840F951FC9
:10100000A61FB71F8093150390931603A093170391
:10101000B09318031EC285B38F7E85BB8091BD033C
:101020009091BE0301969093BE038093BD03CE01C1
:10103000880F991FBE01660F771F660F771F660F17
:10104000771F680F791F80E395E70E94400EAB0180
:10105000770F660B770B8091150390911603A09183
:101060001703B0911803840F951FA61FB71F809315
:10107000150390931603A0931703B0931803E9C1C7
:1010800085B3806185BB8091BD039091BE030196BD
:101090009093BE038093BD03CE01880F991FBE01BC
:1010A000660F771F660F771F660F771F680F791F10
:1010B00080E395E70E94400EAB01770F660B770B3C
:1010C0008091150390911603A0911703B091180316
:1010D000840F951FA61FB71F8093150390931603C7
:1010E000A0931703B0931803B4C185B3806885BB80
:1010F0008091BD039091BE0301969093BE038093AF
:10110000BD03CE01880F991FBE01660F771F660FC2
:10111000771F660F771F680F791F80E395E70E949E
:10112000400EAB01770F660B770B80911503909102
:101130001603A0911703B0911803840F951FA61FE3
:10114000B71F8093150390931603A0931703B093D2
:1011500018037FC185B38F7E85BB8091BD039091BD
:10116000BE0301969093BE038093BD03CE01880F0A
:10117000991FBE01660F771F660F771F660F771FD7
:10118000680F791F80E395E70E94400EAB01770F4F
:10119000660B770B8091150390911603A0911703AE
:1011A000B0911803840F951FA61FB71F80931503D6
:1011B00090931603A0931703B09318034AC185B305
:1011C000806285BB8091BD039091BE030196909390
:1011D000BE038093BD03CE01880F991FBE01660F29
:1011E000771F660F771F660F771F680F791F80E3E1
:1011F00095E70E94400EAB01770F660B770B80914D
:10120000150390911603A0911703B0911803840F52
:10121000951FA61FB71F8093150390931603A093E5
:101220001703B093180315C185B38F7785BB8091E1
:10123000BD039091BE0301969093BE038093BD03BE
:10124000CE01880F991FBE01660F771F660F771FAB
:10125000660F771F680F791F80E395E70E94400EA5
:10126000AB01770F660B770B8091150390911603F6
:10127000A0911703B0911803840F951FA61FB71FE5
:101280008093150390931603A0931703B09318034C
:10129000E0C085B3806485BB8091BD039091BE039F
:1012A00001969093BE038093BD03CE01880F991FD2
:1012B000BE01660F771F660F771F660F771F680FD7
:1012C000791F80E395E70E94400EAB01770F660B14
:1012D000770B8091150390911603A0911703B0919D
:1012E0001803840F951FA61FB71F809315039093B3
:1012F0001603A0931703B0931803ABC085B38F7D7B
:1013000085BB8091BD039091BE0301969093BE036F
:101310008093BD03CE01880F991FBE01660F771F12
:10132000660F771F660F771F680F791F80E395E7B9
:101330000E94400EAB01770F660B770B809115036F
:1013400090911603A0911703B0911803840F951F75
:10135000A61FB71F8093150390931603A09317033E
:10136000B093180376C085B38F7B85BB8091BD0396
:101370009091BE0301969093BE038093BD03CE016E
:10138000880F991FBE01660F771F660F771F660FC4
:10139000771F680F791F80E395E70E94400EAB012D
:1013A000770F660B770B8091150390911603A09130
:1013B0001703B0911803840F951FA61FB71F8093C2
:1013C000150390931603A0931703B093180341C01D
:1013D00085B38F7E85BB8091BD039091BE0301963E
:1013E0009093BE038093BD03CE01880F991FBE0169
:1013F000660F771F660F771F660F771F680F791FBD
:1014000080E395E70E94400EAB01770F660B770BE8
:101410008091150390911603A0911703B0911803C2
:10142000840F951FA61FB71F809315039093160373
:10143000A0931703B09318030CC01092BE03109230
:10144000BD031092710410927204109273041092F2
:101450007404DF91CF911F910F910895CF93DF9383
:10146000C0916800D091690060916600709167003A
:10147000072E000C880B990B0E94C30CAE010E9432
:10148000190460916A0070916B00809168009091DE
:1014900069000E94FB05DF91CF91089560916A0079
:1014A00070916B0080916800909169000E94FB052B
:1014B000409168005091690060E070E088EC92E42F
:1014C0000E9419040895EF92FF920F931F93CF93F8
:1014D000DF9384B3846084BB84B3886084BB84B3AB
:1014E000806184BB84B3806284BB84B3806484BB2A
:1014F00084B3806884BB8BE887BB81B381BB81B335
:1015000081BB81B381BB81B381BB80EE8BBF85E0A2
:1015100085BF80E484BF60E072E18AE790E00E94CA
:101520008B0B78940E9430010E94360180E70E9464
:101530003C010E94D40060E875E280E090E00E94E7
:1015400043012FEF89E698E1215080409040E1F778
:1015500000C000000E94D80188B3806188BB88B3B6
:10156000806288BB88B3806488BB88B38E7F88BB69
:1015700088B38D7F88BB88B3877F88BB88B38F771C
:1015800088BB81E090E09093C0038093BF0331C09B
:101590000E94A9018091BF039091C00383309105FF
:1015A00049F484E090E00E94C30190930F0380937C
:1015B0000E0316C08130910549F481E090E00E944D
:1015C000C3019093BC038093BB030AC0029741F40C
:1015D00083E090E00E94C3019093BA038093B90323
:1015E0008091BF039091C00301969093C0038093B4
:1015F000BF038091BF039091C0038430910544F2F2
:1016000081E090E09093C0038093BF0388E20E9442
:101610009E004AE0E12CF12CB70180910E039091DD
:101620000F030E94C30F00E010E04AE0B801809170
:101630000E0390910F030E94C30FC0E0D0E04AE078
:10164000BE0180910E0390910F030E94C30FC7014A
:101650000E942301C8010E942301CE010E942301A0
:101660008CE390E00E942E0A0E94C505882329F190
:101670000E94AD048823C1F00E947405882309F4F8
:1016800080CF0E94A70420916C0030916D008217DA
:1016900093073CF480916600909167000E942E0AA7
:1016A00070CF0E944E0A6DCF0E9474058091660033
:1016B000909167000E942E0A64CF80E090E0DF9155
:1016C000CF911F910F91FF90EF9008951F920F926D
:1016D0000FB60F9211248F939F93AF93BF93809176
:1016E000C9039091CA03A091CB03B091CC0301969A
:1016F000A11DB11D8093C9039093CA03A093CB038E
:10170000B093CC03BF91AF919F918F910F900FBE7B
:101710000F901F90189520E43FE140E050E00E94B8
:10172000540E8EB58A608EBDBB27A52F942F832FB4
:101730008BBD2ABD89B7806189BF0895F89421E0E7
:1017400009C06091C9037091CA038091CB03909145
:10175000CC0320E02111F5CF789408955058BB2791
:10176000AA270E94C60B0C94390D0E942B0D38F04D
:101770000E94320D20F039F49F3F19F426F40C94A6
:10178000280D0EF4E095E7FB0C94220DE92F0E9442
:101790004A0D58F3BA17620773078407950720F0BC
:1017A00079F4A6F50C946C0D0EF4E0950B2EBA2F7F
:1017B000A02D0B01B90190010C01CA01A001112457
:1017C000FF27591B99F0593F50F4503E68F11A1603
:1017D000F040A22F232F342F4427585FF3CF469594
:1017E00037952795A795F0405395C9F77EF41F16B6
:1017F000BA0B620B730B840BBAF09150A1F0FF0F80
:10180000BB1F661F771F881FC2F70EC0BA0F621F6B
:10181000731F841F48F4879577956795B795F7955B
:101820009E3F08F0B0CF9395880F08F09927EE0FF0
:101830009795879508950E94FE0C08F481E008951D
:101840000E94340C0C94390D0E94320D58F00E9405
:101850002B0D40F029F45F3F29F00C94220D51111B
:101860000C946D0D0C94280D0E944A0D68F3992379
:10187000B1F3552391F3951B550BBB27AA2762178C
:101880007307840738F09F5F5F4F220F331F441F99
:10189000AA1FA9F335D00E2E3AF0E0E832D09150CD
:1018A0005040E695001CCAF72BD0FE2F29D0660FBA
:1018B000771F881FBB1F261737074807AB07B0E8FD
:1018C00009F0BB0B802DBF01FF2793585F4F3AF003
:1018D0009E3F510578F00C94220D0C946D0D5F3FE6
:1018E000E4F3983ED4F3869577956795B795F79589
:1018F0009F5FC9F7880F911D9695879597F9089571
:10190000E1E0660F771F881FBB1F6217730784070C
:10191000BA0720F0621B730B840BBA0BEE1F88F71B
:10192000E09508950E94520D88F09F5798F0B92FC6
:101930009927B751B0F0E1F0660F771F881F991F04
:101940001AF0BA95C9F714C0B13091F00E946C0D2D
:10195000B1E008950C946C0D672F782F8827B85F3D
:1019600039F0B93FCCF3869577956795B395D9F75C
:101970003EF490958095709561957F4F8F4F9F4F66
:101980000895E89409C097FB3EF490958095709572
:1019900061957F4F8F4F9F4F9923A9F0F92F96E9BB
:1019A000BB279395F695879577956795B795F11130
:1019B000F8CFFAF4BB0F11F460FF1BC06F5F7F4FCD
:1019C0008F4F9F4F16C0882311F096E911C07723DF
:1019D00021F09EE8872F762F05C0662371F096E8E8
:1019E000862F70E060E02AF09A95660F771F881FB7
:1019F000DAF7880F9695879597F90895990F00085B
:101A0000550FAA0BE0E8FEEF16161706E807F907D0
:101A1000C0F012161306E407F50798F0621B730B6B
:101A2000840B950B39F40A2661F0232B242B252BEC
:101A300021F408950A2609F4A140A6958FEF811D8F
:101A4000811D089597F99F6780E870E060E0089530
:101A50009FEF80EC089500240A94161617061806C6
:101A60000906089500240A941216130614060506A2
:101A70000895092E0394000C11F4882352F0BB0F33
:101A800040F4BF2B11F460FF04C06F5F7F4F8F4F96
:101A90009F4F089557FD9058440F551F59F05F3FD1
:101AA00071F04795880F97FB991F61F09F3F79F080
:101AB00087950895121613061406551FF2CF469502
:101AC000F1DF08C0161617061806991FF1CF869584
:101AD0007105610508940895E894BB276627772768
:101AE000CB0197F908950E94FE0C08F48FEF08953A
:101AF0000E948B0D0C94390D0E942B0D38F00E9422
:101B0000320D20F0952311F00C94220D0C94280D29
:101B100011240C946D0D0E944A0D70F3959FC1F332
:101B2000950F50E0551F629FF001729FBB27F00D8B
:101B3000B11D639FAA27F00DB11DAA1F649F6627E0
:101B4000B00DA11D661F829F2227B00DA11D621F2F
:101B5000739FB00DA11D621F839FA00D611D221FE9
:101B6000749F3327A00D611D231F849F600D211DCD
:101B7000822F762F6A2F11249F5750409AF0F1F050
:101B800088234AF0EE0FFF1FBB1F661F771F881FB9
:101B900091505040A9F79E3F510580F00C94220DC2
:101BA0000C946D0D5F3FE4F3983ED4F386957795E2
:101BB0006795B795F795E7959F5FC1F7FE2B880F5F
:101BC000911D9695879597F9089519F416F40C943C
:101BD000280D0C942B0E0E94520DB8F39923C9F3D3
:101BE000B6F39F57550B87FF0E94390E0024A0E6DD
:101BF00040EA900180585695979528F4805C660FCE
:101C0000771F881F20F026173707480730F4621B1C
:101C1000730B840B202931294A2BA695179407941E
:101C2000202531254A2758F7660F771F881F20F097
:101C300026173707480730F4620B730B840B200D0F
:101C4000311D411DA09581F7B901842F9158880F4E
:101C50009695879508959F3F31F0915020F4879590
:101C600077956795B795880F911D9695879597F904
:101C7000089591505040660F771F881FD2F708953E
:101C800097FB072E16F4009407D077FD09D00E9429
:101C90007C0E07FC05D03EF4909581959F4F0895EA
:101CA000709561957F4F0895A1E21A2EAA1BBB1B68
:101CB000FD010DC0AA1FBB1FEE1FFF1FA217B30718
:101CC000E407F50720F0A21BB30BE40BF50B661F2E
:101CD000771F881F991F1A9469F7609570958095F2
:101CE00090959B01AC01BD01CF010895EE0FFF1F40
:101CF0000590F491E02D0994AA1BBB1B51E107C08C
:101D0000AA1FBB1FA617B70710F0A61BB70B881F8B
:101D1000991F5A95A9F780959095BC01CD0108951A
:101D20000F931F93CF93DF938230910510F482E0DD
:101D300090E0E0917904F0917A0420E030E0A0E0B6
:101D4000B0E0309719F14081518102811381481729
:101D50005907C8F08417950769F4109731F0129667
:101D60000C93129713961C9327C000937904109339
:101D70007A0422C02115310519F04217530718F4CF
:101D80009A01BD01EF01DF01F801DBCF211531051B
:101D9000F9F0281B390B2430310580F48A819B81AE
:101DA0006115710521F0FB019383828304C0909338
:101DB0007A0480937904FE01329644C0FE01E20F5A
:101DC000F31F8193919322503109398328833AC0BC
:101DD0002091770430917804232B41F42091620004
:101DE0003091630030937804209377042091600051
:101DF000309161002115310541F42DB73EB7409176
:101E0000640050916500241B350BE0917704F0913C
:101E10007804E217F307A0F42E1B3F0B28173907AD
:101E200078F0AC014E5F5F4F2417350748F04E0F36
:101E30005F1F50937804409377048193919302C07D
:101E4000E0E0F0E0CF01DF91CF911F910F91089575
:101E5000CF93DF93009709F481C0FC01329713827E
:101E60001282A0917904B0917A04109781F42081B4
:101E70003181820F931F20917704309178042817C5
:101E8000390751F5F0937804E093770467C0ED01CA
:101E900020E030E0CE17DF0740F44A815B819E01ED
:101EA00041155105F1F0EA01F5CFD383C28340819A
:101EB0005181840F951FC817D90759F488819981DA
:101EC000840F951F0296918380838A819B819383DF
:101ED00082832115310529F4F0937A04E093790483
:101EE0003DC0E901FB83EA8349915991C40FD51F95
:101EF000EC17FD0761F480819181840F951F029694
:101F0000E90199838883828193819B838A83E0E0BE
:101F1000F0E012968D919C911397009719F0FD01B6
:101F2000DC01F7CF8D919C9111979D012E5F3F4F62
:101F3000820F931F20917704309178042817390776
:101F400069F4309729F410927A041092790402C04F
:101F500013821282B0937804A0937704DF91CF911B
:101F60000895FB01DC010D900020E9F71197019025
:101F70000D920020E1F70895FB01DC0101900D9224
:101F80000020E1F70895BB274A3031F4992322F469
:101F9000BDE2909581959F4F0C94CF0FBB27FB011D
:101FA0005527AA27880F991FAA1FA41710F0A41B52
:101FB00083955051B9F7A05DAA3308F0A95DA193AC
:101FC000009779F7B111B1931192CB010C940112E2
:101FD000AEE0B0E0EEEEFFE00C94B9120D891E8980
:101FE00086E08C831A8309838FEF9FE79E838D831E
:101FF000AE01475E5F4F6F89788DCE0101960E94DA
:102000000A10EF81F885E00FF11F10822E96E4E0B0
:102010000C94D512ABE0B0E0E0E1F0E10C94AB122F
:102020006C017B018A01FC0117821682838181FF8A
:10203000CCC1CE0101963C01F6019381F70193FDDD
:10204000859193FF81917F01882309F4BAC185327C
:1020500039F493FD859193FF81917F01853229F4B5
:10206000B60190E00E941112E7CF912C212C312C67
:10207000FFE1F315D8F08B3279F038F4803279F043
:102080008332A1F4232D20611DC08D3261F0803395
:1020900069F4232D216016C0832D8260382EE32D34
:1020A000E4603E2E2AC0F32DF8601DC037FC2DC021
:1020B00020ED280F2A3040F08E32B9F436FC81C171
:1020C000232D2064322E19C036FE06C08AE0989E69
:1020D000200D1124922E11C0EAE02E9E200D112415
:1020E000222EF32DF0623F2E08C08C3621F4832D72
:1020F0008068382E02C0883641F4F70193FD85913F
:1021000093FF81917F018111B3CF982F9F7D9554CB
:10211000933028F40C5F1F4F9FE399830DC08336E3
:1021200031F0833771F0833509F059C021C0F801CF
:10213000808189830E5F1F4F88248394912C5301E3
:1021400013C02801F2E04F0E511CF801A080B180AD
:1021500036FE03C0692D70E002C06FEF7FEFC5014E
:102160000E94F6114C018201F32DFF773F2E16C01D
:10217000280122E0420E511CF801A080B18036FEF9
:1021800003C0692D70E002C06FEF7FEFC5010E94B0
:10219000EB114C01F32DF0683F2E820133FC1BC084
:1021A000822D90E088169906B0F4B60180E290E0A6
:1021B0000E9411122A94F4CFF50137FC859137FE65
:1021C00081915F01B60190E00E94111221102A94C2
:1021D00021E0821A91088114910471F7E8C08436D5
:1021E00011F0893641F5F80137FE07C06081718131
:1021F000828193810C5F1F4F08C060817181072E1F
:10220000000C880B990B0E5F1F4FF32DFF763F2EAE
:1022100097FF09C090958095709561957F4F8F4F7E
:102220009F4FF0683F2E2AE030E0A3010E944D123C
:10223000882E861845C0853731F4232D2F7EB22E87
:102240002AE030E025C0932D997FB92E8F36C1F05A
:1022500018F4883579F0B5C0803719F0883721F047
:10226000B0C0E92FE061BE2EB4FE0DC0FB2DF460BE
:10227000BF2E09C034FE0AC0292F2660B22E06C028
:1022800028E030E005C020E130E002C020E132E08B
:10229000F801B7FE07C060817181828193810C5F74
:1022A0001F4F06C06081718180E090E00E5F1F4F7C
:1022B000A3010E944D12882E8618FB2DFF773F2E1A
:1022C00036FE0DC0232D2E7FA22E891458F434FE25
:1022D0000BC032FC09C0832D8E7EA82E05C0B82C01
:1022E000A32C03C0B82C01C0B92CA4FE0FC0FE0162
:1022F000E80DF11D8081803321F49A2D997EA92E5D
:1023000009C0A2FE06C0B394B39404C08A2D867897
:1023100009F0B394A3FC11C0A0FE06C0B21488F467
:10232000280C922C9B180EC0B21460F4B60180E207
:1023300090E00E941112B394F7CFB21418F42B1846
:1023400002C0982C212CA4FE10C0B60180E390E0BE
:102350000E941112A2FE17C0A1FC03C088E790E002
:1023600002C088E590E0B6010CC08A2D867859F04D
:10237000A1FE02C08BE201C080E2A7FC8DE2B601A3
:1023800090E00E941112891438F4B60180E390E0C5
:102390000E9411129A94F7CF8A94F301E80DF11D6F
:1023A0008081B60190E00E9411128110F5CF2220A9
:1023B00009F442CEB60180E290E00E9411122A9404
:1023C000F6CFF6018681978102C08FEF9FEF2B96A3
:1023D000E2E10C94C712FC010590615070400110BD
:1023E000D8F7809590958E0F9F1F0895FC0161503E
:1023F000704001900110D8F7809590958E0F9F1F27
:102400000895DC01FC01672F71917723E1F7329782
:1024100004C07C916D9370836291AE17BF07C8F3BF
:1024200008950F931F93CF93DF93FB01238121FD29
:1024300003C08FEF9FEF2CC022FF16C0468157814B
:10244000248135814217530744F4A081B1819D0155
:102450002F5F3F4F318320838C93268137812F5FFD
:102460003F4F3783268314C08B01EC01FB010084AE
:10247000F185E02D0995892BE1F6D80116968D910D
:102480009C911797019617969C938E931697CE0161
:10249000DF91CF911F910F910895FA01AA2728305B
:1024A00051F1203181F1E8946F936E7F6E5F7F4F21
:1024B0008F4F9F4FAF4FB1E03ED0B4E03CD0670F9D
:1024C000781F891F9A1FA11D680F791F8A1F911DF0
:1024D000A11D6A0F711D811D911DA11D20D009F440
:1024E00068943F912AE0269F11243019305D319382
:1024F000DEF6CF010895462F4770405D4193B3E06B
:102500000FD0C9F7F6CF462F4F70405D4A3318F011
:10251000495D31FD4052419302D0A9F7EACFB4E0C2
:10252000A6959795879577956795BA95C9F700977A
:102530006105710508959B01AC010A2E069457951B
:10254000479537952795BA95C9F7620F731F841F72
:10255000951FA01D08952F923F924F925F926F9208
:102560007F928F929F92AF92BF92CF92DF92EF9223
:10257000FF920F931F93CF93DF93CDB7DEB7CA1BA4
:10258000DB0B0FB6F894DEBF0FBECDBF09942A88CF
:10259000398848885F846E847D848C849B84AA8477
:1025A000B984C884DF80EE80FD800C811B81AA8104
:1025B000B981CE0FD11D0FB6F894DEBF0FBECDBFCF
:0825C000ED010895F894FFCF2E
:1025C80000007B0420005A000C00320061004154D6
:1025D80045300D006D6F626974656C006469616CEB
:1025E8006F670041542B435354543D222573222CCA
:1025F800222573222C222573220D0041542B53418E
:102608005042523D312C310D00747275650066617F
:102618006C73650041540D0041542B434D47463DB2
:10262800310D0041542B434D47533D25730D005444
:10263800656D7065726174757265204E6F74204E99
:102648006F726D616C2D004F787967656E205461EB
:102658006E6B2050657263656E74616765203A2001
:10266800004F787967656E2054616E6B20506572F3
:0A26780063656E7461676520000061
:00000001FF
