:100000000C943D000C9479090C94BE090C945A0090
:100010000C945A000C945A000C945A000C94FB0E49
:100020000C945A000C945A000C945A000C945A00E8
:100030000C945A000C945A000C945A000C945A00D8
:100040000C945A000C945A000C945A000C945A00C8
:100050000C945A00340569059E05D30508063D0633
:100060007206A706DC06110746077B07B007EE08F5
:10007000E5071A084F088408B90811241FBECFE508
:10008000D8E0DEBFCDBF11E0A0E6B0E0E0E0FDE2E9
:1000900002C005900D92AC3AB107D9F725E0ACEA61
:1000A000B1E001C01D92A132B207E1F70E94370C06
:1000B0000C947E160C9400008EE788BBB4990CC09B
:1000C0002FEF89EF90E0215080409040E1F700C091
:1000D00000008EE690E00895B5990CC02FEF89EFEF
:1000E00090E0215080409040E1F700C0000080E7A0
:1000F00090E00895B6990CC02FEF89EF90E0215061
:1001000080409040E1F700C0000082E790E0089551
:100110008DE788BBB4990CC02FEF89EF90E0215098
:1001200080409040E1F700C0000084E790E008952F
:10013000B5990CC02FEF89EF90E02150804090409E
:10014000E1F700C0000086E790E00895B6990CC082
:100150002FEF89EF90E0215080409040E1F700C000
:10016000000088E790E008958BE788BBB4990CC045
:100170002FEF89EF90E0215080409040E1F700C0E0
:1001800000008AE790E00895B5990CC02FEF89EF41
:1001900090E0215080409040E1F700C000008CE7E3
:1001A00090E00895B6990CC02FEF89EF90E02150B0
:1001B00080409040E1F700C000008EE790E0089595
:1001C00087E788BBB5990CC02FEF89EF90E02150ED
:1001D00080409040E1F700C0000080E890E0089582
:1001E000089540E050E00AC02F5F3F4F02C020E07A
:1001F00030E029373105C4F34F5F5F4F841795070F
:10020000B4F7089583B1826083B984E886BF06B6E7
:1002100007FEFDCF81E090E00E94F10083B18D7F69
:1002200083B984E886BF06B607FEFDCF089593B173
:100230009E7F93B994E896BF06B607FEFDCF93B1B3
:100240009F7093B994E896BF06B607FEFDCF93B1B1
:10025000807F892B83B984E886BF06B607FEFDCF71
:100260000E9402010895CF93C82F83B18E7F83B976
:1002700084E886BF06B607FEFDCF83B18F7083B9D1
:1002800084E886BF06B607FEFDCF83B19C2F907F22
:10029000892B83B984E886BF06B607FEFDCF0E948E
:1002A000020183B18F7083B984E886BF06B607FE6A
:1002B000FDCF23B130E1C39FC0011124822B83B94C
:1002C00084E886BF06B607FEFDCF0E940201CF91EB
:1002D000089580E30E94170180E30E94170180E2E5
:1002E0000E94170188E20E9433018CE00E943301D2
:1002F00081E00E94330186E00E94330180E80E9481
:1003000033010895CF93C82F83B1816083B984E806
:1003100086BF06B607FEFDCF83B18F7083B984E830
:1003200086BF06B607FEFDCF83B19C2F907F892B39
:1003300083B984E886BF06B607FEFDCF0E9402019E
:1003400083B18F7083B984E886BF06B607FEFDCF00
:1003500023B130E1C39FC0011124822B83B984E80B
:1003600086BF06B607FEFDCF0E940201CF91089519
:10037000CF93DF93EC0103C021960E948201888114
:100380008111FACFDF91CF91089582E680B984E0A0
:1003900086BF11B8089584EA86BF06B607FEFDCF72
:1003A000089583B984E886BF06B607FEFDCF089599
:1003B0002AB128692AB920B5266820BDDC01CB0105
:1003C000880F991FAA1FBB1F880F991FAA1FBB1F49
:1003D0009C01AD01220F331F441F551F220F331FF5
:1003E000441F551F60E072E18AE790E00E94F0111F
:1003F0008FEF820F89B9DA01C9010197A109B1090B
:10040000892F9A2FAB2FBB2780BD08958CB95D9B98
:10041000FECF08950F931F93CF93DF938C01C0E01D
:10042000D0E003C00E9406022196F801EC0FFD1FE8
:1004300080818111F7CFDF91CF911F910F910895A6
:10044000BF92CF92DF92EF92FF920F931F93CF93C1
:10045000DF93CDB7DEB7C456D1090FB6F894DEBF2F
:100460000FBECDBF182F092FC62EB72E82E890E001
:100470000E940A028FE19EE40197F1F700C000009C
:1004800086E890E00E940A02EFE1FEE43197F1F77E
:1004900000C000000F931F9381E990E09F938F931A
:1004A0008E010F5F1F4F1F930F930E948413C8018B
:1004B0000E940A020F2EFCEAEF2EF1E0FF2EF02D33
:1004C0000F2EF4E6DF2EF02DF7018D2D11928A9577
:1004D000E9F7BF92CF9289E990E09F938F931F93A2
:1004E0000F930E948413C8010E940A02F70111921F
:1004F000DA94E9F70FB6F894DEBF0FBECDBFCC5942
:10050000DF4F0FB6F894DEBF0FBECDBFDF91CF91A6
:100510001F910F91FF90EF90DF90CF90BF900895C3
:100520000F931F93CF93DF93CDB7DEB7C456D10996
:100530000FB6F894DEBF0FBECDBF8DE990E00E94EC
:100540000A028FE19EE40197F1F700C0000083EA00
:1005500090E09F938F939F938F938BEA90E09F936C
:100560008F9382EB90E09F938F938E010F5F1F4FCD
:100570001F930F930E948413C8010E940A0284E60D
:10058000ECEAF1E0DF011D928A95E9F78FE19EE444
:100590000197F1F700C000008AEC90E00E940A0287
:1005A0000FB6F894DEBF0FBECDBFCC59DF4F0FB6EC
:1005B000F894DEBF0FBECDBFDF91CF911F910F9199
:1005C00008958F929F92AF92BF92CF92DF92EF9257
:1005D000FF920F931F934B015C01CA01B90120E008
:1005E00030E04AE754E40E9414116B017C0120E0E2
:1005F00030E04AE754E4C501B4010E9414114B01F4
:100600005C019B01AC01C701B6010E940F111816D5
:100610000CF0B7C18091670490916804892B09F0B0
:1006200040C00E94330F6093670470936804809306
:10063000690490936A040E945D10A50194010E94D0
:10064000440F0E942E10609363047093640480939F
:1006500065049093660481E090E0A0E0B0E08093B0
:10066000A2039093A303A093A403B093A50385B31F
:10067000846085BB85B3877F85BB8091A203909101
:10068000A303A091A403B091A5030196A11DB11DE0
:100690008093A2039093A303A093A403B093A50314
:1006A00070C10E94330F0091630410916404209183
:1006B000650430916604061717072807390708F004
:1006C00085C08091A2039091A303A091A403B0914F
:1006D000A50382309105A105B10529F00397A10575
:1006E000B105A1F162C085B38B7F85BB8091A20368
:1006F0009091A303A091A403B091A5030196A11D1D
:10070000B11D8093A2039093A303A093A403B0937D
:10071000A5036091630470916404809165049091D5
:1007200066040E945D10A70196010E94440FA50176
:1007300094010E94430F0E942E10609363047093F3
:10074000640480936504909366041BC185B388603C
:1007500085BB8091A2039091A303A091A403B091C3
:10076000A5030196A11DB11D8093A2039093A3033D
:10077000A093A403B093A5036091630470916404F3
:1007800080916504909166040E945D10A701960116
:100790000E94440F0E942E106093630470936404BF
:1007A0008093650490936604ECC01092A2031092AB
:1007B000A3031092A4031092A50310926704109251
:1007C00068041092690410926A04DBC08091670487
:1007D00090916804892B09F040C00E94330F609308
:1007E0006704709368048093690490936A040E947C
:1007F0005D10A70196010E94440F0E942E10609385
:10080000630470936404809365049093660481E0AC
:1008100090E0A0E0B0E08093A2039093A303A093A4
:10082000A403B093A50385B3846085BB85B3877F9C
:1008300085BB8091A2039091A303A091A403B091E2
:10084000A5030196A11DB11D8093A2039093A3035C
:10085000A093A403B093A50394C00E94330F00910A
:1008600063041091640420916504309166040617B6
:1008700017072807390708F084C08091A2039091D8
:10088000A303A091A403B091A50382309105A10513
:10089000B10529F00397A105B105A1F162C085B3A7
:1008A000886085BB8091A2039091A303A091A403CB
:1008B000B091A5030196A11DB11D8093A203909351
:1008C000A303A093A403B093A50360916304709164
:1008D000640480916504909166040E945D10A501F6
:1008E00094010E94440FA70196010E94430F0E94A9
:1008F0002E10609363047093640480936504909356
:1009000066043FC085B38B7F85BB8091A203909125
:10091000A303A091A403B091A5030196A11DB11D4D
:100920008093A2039093A303A093A403B093A50381
:1009300060916304709164048091650490916604F1
:100940000E945D10A50194010E94440F0E942E1088
:1009500060936304709364048093650490936604C9
:1009600010C01092A2031092A3031092A40310923D
:10097000A503109267041092680410926904109203
:100980006A041F910F91FF90EF90DF90CF90BF907E
:10099000AF909F908F9008950F931F93CF93DF9305
:1009A000EC018091170590911805892B09F03FC043
:1009B0000E94330F8B019C016093170570931805FB
:1009C0008093190590931A05CE01880F991FBE01D7
:1009D000660F771F660F771F660F771F680F791FE7
:1009E00080E395E70E94DC11CB01770FAA0BBB0BCC
:1009F000080F191F2A1F3B1F0093B3031093B40362
:100A00002093B5033093B60381E090E090935E04A9
:100A100080935D0485B3806185BB80915D04909176
:100A20005E04019690935E0480935D04E3C30E948C
:100A3000330F0091B3031091B4032091B5033091AB
:100A4000B603061717072807390708F0D3C3E09144
:100A50005D04F0915E043297E331F10508F0BEC306
:100A6000E65DFF4F0C94121285B3806485BB8091C4
:100A70005D0490915E04019690935E0480935D0402
:100A8000CE01880F991FBE01660F771F660F771F73
:100A9000660F771F680F791F80E395E70E94DC11CE
:100AA000AB01770F660B770B8091B3039091B40382
:100AB000A091B503B091B603840F951FA61FB71F71
:100AC0008093B3039093B403A093B503B093B6039C
:100AD00091C385B38F7E85BB80915D0490915E0448
:100AE000019690935E0480935D04CE01880F991F58
:100AF000BE01660F771F660F771F660F771F680F9F
:100B0000791F80E395E70E94DC11AB01770F660B3C
:100B1000770B8091B3039091B403A091B503B0918A
:100B2000B603840F951FA61FB71F8093B30390933E
:100B3000B403A093B503B093B6035CC385B38062DE
:100B400085BB80915D0490915E04019690935E0454
:100B500080935D04CE01880F991FBE01660F771F39
:100B6000660F771F660F771F680F791F80E395E781
:100B70000E94DC11AB01770F660B770B8091B303FA
:100B80009091B403A091B503B091B603840F951F63
:100B9000A61FB71F8093B3039093B403A093B5032C
:100BA000B093B60327C385B38F7B85BB80915D046B
:100BB00090915E04019690935E0480935D04CE0153
:100BC000880F991FBE01660F771F660F771F660F8C
:100BD000771F680F791F80E395E70E94DC11AB0156
:100BE000770F660B770B8091B3039091B403A091BC
:100BF000B503B091B603840F951FA61FB71F80934E
:100C0000B3039093B403A093B503B093B603F2C2B9
:100C100085B3806885BB80915D0490915E040196E8
:100C200090935E0480935D04CE01880F991FBE01EE
:100C3000660F771F660F771F660F771F680F791F84
:100C400080E395E70E94DC11AB01770F660B770B11
:100C50008091B3039091B403A091B503B091B60312
:100C6000840F951FA61FB71F8093B3039093B403FF
:100C7000A093B503B093B603BDC285B38F7D85BB8A
:100C800080915D0490915E04019690935E04809340
:100C90005D04CE01880F991FBE01660F771F660F96
:100CA000771F660F771F680F791F80E395E70E9413
:100CB000DC11AB01770F660B770B8091B30390913A
:100CC000B403A091B503B091B603840F951FA61F7E
:100CD000B71F8093B3039093B403A093B503B0936D
:100CE000B60388C285B3806185BB80915D04909115
:100CF0005E04019690935E0480935D04CE01880F9C
:100D0000991FBE01660F771F660F771F660F771F4B
:100D1000680F791F80E395E70E94DC11AB01770F24
:100D2000660B770B8091B3039091B403A091B50348
:100D3000B091B603840F951FA61FB71F8093B3030E
:100D40009093B403A093B503B093B60353C285B395
:100D50008F7785BB80915D0490915E04019690939E
:100D60005E0480935D04CE01880F991FBE01660F5B
:100D7000771F660F771F660F771F680F791F80E355
:100D800095E70E94DC11AB01770F660B770B809122
:100D9000B3039091B403A091B503B091B603840F4F
:100DA000951FA61FB71F8093B3039093B403A0931E
:100DB000B503B093B6031EC285B38F7E85BB809109
:100DC0005D0490915E04019690935E0480935D04AF
:100DD000CE01880F991FBE01660F771F660F771F20
:100DE000660F771F680F791F80E395E70E94DC117B
:100DF000AB01770F660B770B8091B3039091B4032F
:100E0000A091B503B091B603840F951FA61FB71F1D
:100E10008093B3039093B403A093B503B093B60348
:100E2000E9C185B3806185BB80915D0490915E04CA
:100E3000019690935E0480935D04CE01880F991F04
:100E4000BE01660F771F660F771F660F771F680F4B
:100E5000791F80E395E70E94DC11AB01770F660BE9
:100E6000770B8091B3039091B403A091B503B09137
:100E7000B603840F951FA61FB71F8093B3039093EB
:100E8000B403A093B503B093B603B4C185B380682F
:100E900085BB80915D0490915E04019690935E0401
:100EA00080935D04CE01880F991FBE01660F771FE6
:100EB000660F771F660F771F680F791F80E395E72E
:100EC0000E94DC11AB01770F660B770B8091B303A7
:100ED0009091B403A091B503B091B603840F951F10
:100EE000A61FB71F8093B3039093B403A093B503D9
:100EF000B093B6037FC185B38F7E85BB80915D04BF
:100F000090915E04019690935E0480935D04CE01FF
:100F1000880F991FBE01660F771F660F771F660F38
:100F2000771F680F791F80E395E70E94DC11AB0102
:100F3000770F660B770B8091B3039091B403A09168
:100F4000B503B091B603840F951FA61FB71F8093FA
:100F5000B3039093B403A093B503B093B6034AC10F
:100F600085B3806285BB80915D0490915E0401969B
:100F700090935E0480935D04CE01880F991FBE019B
:100F8000660F771F660F771F660F771F680F791F31
:100F900080E395E70E94DC11AB01770F660B770BBE
:100FA0008091B3039091B403A091B503B091B603BF
:100FB000840F951FA61FB71F8093B3039093B403AC
:100FC000A093B503B093B60315C185B38F7785BBE6
:100FD00080915D0490915E04019690935E048093ED
:100FE0005D04CE01880F991FBE01660F771F660F43
:100FF000771F660F771F680F791F80E395E70E94C0
:10100000DC11AB01770F660B770B8091B3039091E6
:10101000B403A091B503B091B603840F951FA61F2A
:10102000B71F8093B3039093B403A093B503B09319
:10103000B603E0C085B3806485BB80915D04909168
:101040005E04019690935E0480935D04CE01880F48
:10105000991FBE01660F771F660F771F660F771FF8
:10106000680F791F80E395E70E94DC11AB01770FD1
:10107000660B770B8091B3039091B403A091B503F5
:10108000B091B603840F951FA61FB71F8093B303BB
:101090009093B403A093B503B093B603ABC085B3EC
:1010A0008F7D85BB80915D0490915E040196909345
:1010B0005E0480935D04CE01880F991FBE01660F08
:1010C000771F660F771F660F771F680F791F80E302
:1010D00095E70E94DC11AB01770F660B770B8091CF
:1010E000B3039091B403A091B503B091B603840FFC
:1010F000951FA61FB71F8093B3039093B403A093CB
:10110000B503B093B60376C085B38F7B85BB809162
:101110005D0490915E04019690935E0480935D045B
:10112000CE01880F991FBE01660F771F660F771FCC
:10113000660F771F680F791F80E395E70E94DC1127
:10114000AB01770F660B770B8091B3039091B403DB
:10115000A091B503B091B603840F951FA61FB71FCA
:101160008093B3039093B403A093B503B093B603F5
:1011700041C085B38F7E85BB80915D0490915E04F4
:10118000019690935E0480935D04CE01880F991FB1
:10119000BE01660F771F660F771F660F771F680FF8
:1011A000791F80E395E70E94DC11AB01770F660B96
:1011B000770B8091B3039091B403A091B503B091E4
:1011C000B603840F951FA61FB71F8093B303909398
:1011D000B403A093B503B093B6030CC010925E04A1
:1011E00010925D04109217051092180510921905BF
:1011F00010921A05DF91CF911F910F9108951ABA9D
:1012000087E886B980E487B9089597B18F70982BE5
:1012100097B986B1806486B9349BFECF8AE18A95FE
:10122000F1F700C024B185B190E0982F8827820F94
:10123000911D08958770806487B986B1806486B9EE
:10124000349BFECF86B1806186B98FEC97E0019721
:10125000F1F700C0000084B195B108950E941A0909
:10126000BC01990F880B990B0E945F1020E030E0C1
:1012700040E85AE30E9414112AE037ED43E25DE3AF
:101280000E94430F2DEE33ED41E75BE30E94B50F63
:1012900023E333E343E550E40E94430F089587704E
:1012A000806487B986B1806486B9349BFECF86B1ED
:1012B000806186B98FEC97E00197F1F700C00000DC
:1012C00084B195B1089585E00E944F09BC01990F42
:1012D000880B990B0E945F1026EF38E24CE950E42E
:1012E0000E94141120E030E040E251E40E94B50F6A
:1012F00008951F920F920FB60F9211242F933F93D0
:101300004F935F936F937F938F939F93AF93BF930D
:10131000EF93FF939091680081E0892780936800A4
:10132000882341F081E00E94330188ED90E00E9423
:10133000B80107C081E00E94330183EE90E00E9473
:10134000B8012FE788E391E0215080409040E1F719
:1013500000C0000081E00E943301FF91EF91BF9136
:10136000AF919F918F917F916F915F914F913F913D
:101370002F910F900FBE0F901F9018951F920F92F4
:101380000FB60F9211242F933F934F935F936F9358
:101390007F938F939F93AF93BF93EF93FF9390911E
:1013A000690081E0892780936900882341F081E00A
:1013B0000E9433018FEE90E00E94B80107C081E0E7
:1013C0000E94330188EF90E00E94B8012FE788E384
:1013D00091E0215080409040E1F700C0000081E0A2
:1013E0000E943301FF91EF91BF91AF919F918F9137
:1013F0007F916F915F914F913F912F910F900FBE11
:101400000F901F901895883291053CF48AE590E082
:1014100090936B0080936A000895863491053CF4A4
:1014200086E490E090936B0080936A0008958A357B
:1014300091053CF48CE390E090936B0080936A00FC
:1014400008958E35910534F488E290E090936B0016
:1014500080936A00089581E090E00E942E0920E0C8
:1014600030E04AE754E40E94141108954F925F92CD
:101470006F927F928F929F92AF92BF92CF92DF92A4
:10148000EF92FF926B017C01BA01550F880B990B0B
:101490000E945F109B01AC0160E070E080EF91E47E
:1014A0000E94B50F4B015C012AE43CE042EA5FE395
:1014B000C701B6010E94141129E23CE545ED51E453
:1014C0000E94430F21E73DE34AE45FE30E941411C9
:1014D0002B013C01A701960160E070E088EC92E4EA
:1014E0000E94430F9B01AC01C301B2010E94B50FE2
:1014F0002B013C010E942B0A9B01AC0168ED73E1BA
:1015000086E098E40E94B50F6B017C012DEC3CEC69
:101510004CE95FE3C701B6010E94B50F0E94871135
:101520009B01AC01C301B2010E9414116B017C014B
:1015300020E030E040E85FE30E940F1118165CF4F1
:10154000A7019601C501B4010E94B50FA501940140
:101550000E94E1020CC0A7019601C501B4010E94DE
:1015600014119B01AC01C501B4010E94E102FF907E
:10157000EF90DF90CF90BF90AF909F908F907F9033
:101580006F905F904F900895609157047091580448
:101590008091590490915A040E94CC0440915904BE
:1015A00050915A0460E070E0CB010E94360A089521
:1015B00087E290E00895CF93DF930E94D80A0E94BB
:1015C000030AC0915904D0915A0460916A00709145
:1015D0006B00072E000C880B990B0E945F10AE0168
:1015E0000E94360A60915704709158048091590402
:1015F00090915A040E94CC04DF91CF9108950E94EB
:1016000063090E942710CB01089581B3806181BBDB
:1016100008958091A0039091A10390936B00809313
:101620006A00089580916800089580916900089586
:101630000E94B80181E00E9433010895CF9B02C04F
:1016400081E0089580E00895EF92FF920F931F9339
:10165000CF93DF938C01EB01FC0101900020E9F7AF
:101660003197CF01801B910BFB0101900020E9F71E
:101670003197E61BF70B8E0F9F1F01960E942C12CD
:101680007C01B8010E945813BE01C7010E944D138E
:10169000C701DF91CF911F910F91FF90EF900895B7
:1016A0000F931F93CF93DF9300D000D0CDB7DEB759
:1016B0008C01CB014AE0BE016F5F7F4F0E945F1338
:1016C000BE016F5F7F4FC8010E94240BBC0185E003
:1016D00095E00E9420020F900F900F900F90DF91E5
:1016E000CF911F910F910895CF93DF9300D000D039
:1016F000CDB7DEB70E94FF0ABC01990F880B990B8A
:101700000E945F102DEC3CEC44E152E40E940F116A
:10171000181684F00E94FF0ABC01990F880B990BE0
:101720000E945F1026E636E640E152E40E94B00FC8
:101730008823E4F40E94FF0ABC0182E091E00E9449
:10174000500B0E94FF0A4AE0BE016F5F7F4F0E946C
:101750005F13BE016F5F7F4F8AE191E00E94240B0F
:101760000E94180B0E94050B80E001C081E00F90E1
:101770000F900F900F90DF91CF9108950E942B0A48
:101780009B01AC0160E07CE782E998E40E94430F92
:1017900020E030E84BE355E40E94B50F9B01AC011B
:1017A00060E070E088EC92E40E94430F0E942710F2
:1017B000CB0108951F93CF93DF9300D000D0CDB716
:1017C000DEB70E94150B182F8823E9F10E94BE0B8B
:1017D0000A97C4F40E94BE0BBC0189E291E00E940A
:1017E000500B0E94BE0B4AE0BE016F5F7F4F0E940C
:1017F0005F13BE016F5F7F4F83E491E00E94240B73
:101800000E94180B0E941E0B811116C080915F046C
:1018100090916004892B69F48EE491E00E94B801F4
:1018200081E00E94330181E090E090936004809316
:101830005F040E94050B07C01092600410925F04C1
:1018400091B391BB182F812F0F900F900F900F9095
:10185000DF91CF911F91089582E090E00E942E09C0
:101860000E942710CB01089580E590E008950F9322
:101870001F93CF93DF9300D000D0CDB7DEB784B3F2
:10188000846084BB84B3886084BB84B3806184BB80
:1018900084B3806284BB84B3806484BB84B3806877
:1018A00084BB8FE087BB81B381BB81B381BB81B334
:1018B000806181BB8AB38ABB85B7826085BF85B7EB
:1018C000886085BF8BB780648BBF8BB780688BBF08
:1018D00060E072E18AE790E00E94200F78940E9415
:1018E000FF080E94C5010E94CB0180E70E94D10140
:1018F0000E94690180E80E9433018CE591E00E941A
:10190000B8018FE59AEE0197F1F700C0000080EC76
:101910000E9433018FE19EE40197F1F700C00000BF
:1019200088E691E00E94B8018FE59AEE0197F1F701
:1019300000C0000081E00E9433019FEF20E742E0F9
:10194000915020404040E1F700C0000080E80E9434
:10195000330181E00E94330180EF88BB00E010E09A
:101960000E945C008093A603F801EB5FFA4F80832E
:10197000B49B04C0B59B02C0B69902C00F5F1F4F55
:1019800090E00E94B8015FE785EB91E05150804004
:101990009040E1F700C00000B49BDBCFB69B03C0D2
:1019A00086B3803FE9F681E00E94330180E80E941F
:1019B000330188E691E00E94B80180EC0E94330177
:1019C0008FE691E00E94B8012FEF40E752E02150EE
:1019D00040405040E1F700C0000081E00E94330128
:1019E00060E875E280E090E00E94D8018FEF99E610
:1019F00028E1815090402040E1F700C000000E94A3
:101A000090026AE771E085E095E00E9420028091F3
:101A1000AF039091B003892B09F084C00E94330F6B
:101A20006093AF037093B0038093B1039093B203BC
:101A3000DC01CB018C509E4FAF4FBF4F8093AB0367
:101A40009093AC03A093AD03B093AE0381E090E01C
:101A5000A0E0B0E08093A7039093A803A093A9030C
:101A6000B093AA030E94330180E80E9433010E94D0
:101A7000D80A4AE0BE016F5F7F4F0E945F13BE012C
:101A80006F5F7F4F8FE791E00E94240B0E94B801A7
:101A90000E94340C4AE0BE016F5F7F4F0E945F13CB
:101AA000BE016F5F7F4F86E891E00E94240B0E9489
:101AB000B80180EC0E9433010E94FF0A4AE0BE0197
:101AC0006F5F7F4F0E945F13BE016F5F7F4F83E2A6
:101AD00091E00E94240B0E94B8010E942C0C4AE065
:101AE000BE016F5F7F4F0E945F13BE016F5F7F4F2C
:101AF0008CE891E00E94240B0E94B8018091A7031A
:101B00009091A803A091A903B091AA030196A11DE9
:101B1000B11D8093A7039093A803A093A903B0934A
:101B2000AA03A8C00E94330F0091630410916404BB
:101B300020916504309166040617170728073907B6
:101B400008F098C08091A7039091A803A091A903E1
:101B5000B091AA030297A105B10509F07BC081E00D
:101B60000E94330180E80E9433014AE0BE016F5FAA
:101B70007F4F8091590490915A040E945F13BE01D7
:101B80006F5F7F4F83E991E00E94240B0E94B801B0
:101B90004AE0BE016F5F7F4F8091570490915804D7
:101BA0000E945F13BE016F5F7F4F88E991E00E9442
:101BB000240B0E94B80180EC0E9433010E94BE0BEE
:101BC0004AE0BE016F5F7F4F0E945F13BE016F5FEF
:101BD0007F4F8FE991E00E94240B0E94B8014AE0F8
:101BE000BE016F5F7F4F80916A0090916B000E94F1
:101BF0005F13BE016F5F7F4F85EA91E00E94240B67
:101C00000E94B8018091A7039091A803A091A90315
:101C1000B091AA030196A11DB11D8093A7039093D3
:101C2000A803A093A903B093AA038091AB0390915A
:101C3000AC03A091AD03B091AE038C509E4FAF4F5B
:101C4000BF4F8093AB039093AC03A093AD03B093CD
:101C5000AE0310C01092A7031092A8031092A9031C
:101C60001092AA031092AF031092B0031092B10326
:101C70001092B203809166009091670082309105C6
:101C8000A9F18330910509F45DC0019709F07DC089
:101C90000E94FF0880E00E94050990931C05809334
:101CA0001B05880F991F9C01220F331F220F331F22
:101CB000220F331FA901481B590B9A0112F421501E
:101CC0003C4F832F85958595932F990F990B0A96F5
:101CD00090935A0480935904809166009091670014
:101CE000019690936700809366004FC00E94FF08A2
:101CF00083E00E94050990931C0580931B054AE828
:101D000052E0849F9001859F300D949F300D1124E7
:101D1000332314F421503C4F832F85958595932FC1
:101D2000990F990B86509F4F9093580480935704B6
:101D30008091660090916700019690936700809370
:101D4000660023C00E94FF0884E00E94050990936A
:101D50001C0580931B0544E6489F9001499F300D68
:101D60001124332314F421503C4F832F880F880B08
:101D7000932F959595959093A0038093A10381E06F
:101D800090E090936700809366000E94DA0B8823AE
:101D900039F10E94120B8823C1F00E94740B882332
:101DA00009F435CE0E94D80A20916C0030916D0064
:101DB000821793073CF480916A0090916B000E9417
:101DC000DB0A25CE0E94C40A22CE0E94740B0E9418
:101DD000090B80916A0090916B000E94DB0A17CE7C
:101DE00080E090E00F900F900F900F90DF91CF91D7
:101DF0001F910F9108951F920F920FB60F92112409
:101E00008F939F93AF93BF9380916B0490916C04D9
:101E1000A0916D04B0916E040196A11DB11D809337
:101E20006B0490936C04A0936D04B0936E04BF9107
:101E3000AF919F918F910F900FBE0F901F901895AB
:101E400020E43FE140E050E00E94F0118EB58A604E
:101E50008EBDBB27A52F942F832F8BBD2ABD89B79D
:101E6000806189BF0895F89421E009C060916B04F6
:101E700070916C0480916D0490916E0420E02111AA
:101E8000F5CF789408955058BB27AA270E945B0F7E
:101E90000C94D5100E94C71038F00E94CE1020F08C
:101EA00039F49F3F19F426F40C94C4100EF4E09515
:101EB000E7FB0C94BE10E92F0E94E61058F3BA1706
:101EC000620773078407950720F079F4A6F50C9450
:101ED00008110EF4E0950B2EBA2FA02D0B01B901BD
:101EE00090010C01CA01A0011124FF27591B99F090
:101EF000593F50F4503E68F11A16F040A22F232F9C
:101F0000342F4427585FF3CF469537952795A795EB
:101F1000F0405395C9F77EF41F16BA0B620B730B92
:101F2000840BBAF09150A1F0FF0FBB1F661F771F03
:101F3000881FC2F70EC0BA0F621F731F841F48F4B8
:101F4000879577956795B795F7959E3F08F0B0CF41
:101F50009395880F08F09927EE0F97958795089528
:101F60000E949A1008F481E008950E94C90F0C9411
:101F7000D5100E94CE1058F00E94C71040F029F4EE
:101F80005F3F29F00C94BE1051110C9409110C9470
:101F9000C4100E94E61068F39923B1F3552391F31E
:101FA000951B550BBB27AA2762177307840738F0C8
:101FB0009F5F5F4F220F331F441FAA1FA9F335D025
:101FC0000E2E3AF0E0E832D091505040E695001CD9
:101FD000CAF72BD0FE2F29D0660F771F881FBB1F93
:101FE000261737074807AB07B0E809F0BB0B802D71
:101FF000BF01FF2793585F4F3AF09E3F510578F09D
:102000000C94BE100C9409115F3FE4F3983ED4F396
:10201000869577956795B795F7959F5FC9F7880F70
:10202000911D9695879597F90895E1E0660F771FC2
:10203000881FBB1F621773078407BA0720F0621B53
:10204000730B840BBA0BEE1F88F7E09508950E947E
:102050002E106894B1110C94091108950E94EE108D
:1020600088F09F5798F0B92F9927B751B0F0E1F059
:10207000660F771F881F991F1AF0BA95C9F714C009
:10208000B13091F00E940811B1E008950C9408114C
:10209000672F782F8827B85F39F0B93FCCF3869542
:1020A00077956795B395D9F73EF49095809570959F
:1020B00061957F4F8F4F9F4F0895E89409C097FB1C
:1020C0003EF490958095709561957F4F8F4F9F4F0F
:1020D0009923A9F0F92F96E9BB279395F695879553
:1020E00077956795B795F111F8CFFAF4BB0F11F416
:1020F00060FF1BC06F5F7F4F8F4F9F4F16C08823BD
:1021000011F096E911C0772321F09EE8872F762FF2
:1021100005C0662371F096E8862F70E060E02AF033
:102120009A95660F771F881FDAF7880F969587951F
:1021300097F90895990F0008550FAA0BE0E8FEEFF4
:1021400016161706E807F907C0F012161306E4077B
:10215000F50798F0621B730B840B950B39F40A2674
:1021600061F0232B242B252B21F408950A2609F452
:10217000A140A6958FEF811D811D089597F99F6756
:1021800080E870E060E008959FEF80EC08950024FF
:102190000A941616170618060906089500240A94CC
:1021A00012161306140605060895092E0394000C52
:1021B00011F4882352F0BB0F40F4BF2B11F460FFE1
:1021C00004C06F5F7F4F8F4F9F4F089557FD90580A
:1021D000440F551F59F05F3F71F04795880F97FBEB
:1021E000991F61F09F3F79F08795089512161306A5
:1021F0001406551FF2CF4695F1DF08C016161706D4
:102200001806991FF1CF8695710561050894089508
:10221000E894BB2766277727CB0197F908950E949A
:102220009A1008F48FEF08950E9427110C94D5108E
:102230000E94C71038F00E94CE1020F0952311F0B4
:102240000C94BE100C94C41011240C9409110E941B
:10225000E61070F3959FC1F3950F50E0551F629FF4
:10226000F001729FBB27F00DB11D639FAA27F00DEF
:10227000B11DAA1F649F6627B00DA11D661F829F16
:102280002227B00DA11D621F739FB00DA11D621FFB
:10229000839FA00D611D221F749F3327A00D611D18
:1022A000231F849F600D211D822F762F6A2F1124FA
:1022B0009F5750409AF0F1F088234AF0EE0FFF1F2D
:1022C000BB1F661F771F881F91505040A9F79E3F84
:1022D000510580F00C94BE100C9409115F3FE4F39B
:1022E000983ED4F3869577956795B795F795E795DA
:1022F0009F5FC1F7FE2B880F911D9695879597F9E3
:10230000089519F416F40C94C4100C94C7110E948B
:10231000EE10B8F39923C9F3B6F39F57550B87FF17
:102320000E94D5110024A0E640EA900180585695FD
:10233000979528F4805C660F771F881F20F026177A
:102340003707480730F4621B730B840B20293129AF
:102350004A2BA69517940794202531254A2758F72C
:10236000660F771F881F20F026173707480730F4BD
:10237000620B730B840B200D311D411DA09581F75D
:10238000B901842F9158880F9695879508959F3F9E
:1023900031F0915020F4879577956795B795880F20
:1023A000911D9695879597F9089591505040660F25
:1023B000771F881FD2F7089597FB072E16F4009415
:1023C00007D077FD09D00E94181207FC05D03EF413
:1023D000909581959F4F0895709561957F4F0895D1
:1023E000A1E21A2EAA1BBB1BFD010DC0AA1FBB1F19
:1023F000EE1FFF1FA217B307E407F50720F0A21B8B
:10240000B30BE40BF50B661F771F881F991F1A94F7
:1024100069F760957095809590959B01AC01BD0121
:10242000CF010895EE0FFF1F0590F491E02D099460
:10243000AA1BBB1B51E107C0AA1FBB1FA617B707EA
:1024400010F0A61BB70B881F991F5A95A9F7809506
:102450009095BC01CD0108950F931F93CF93DF9307
:102460008230910510F482E090E0E0911F05F09138
:10247000200520E030E0A0E0B0E0309719F1408185
:1024800051810281138148175907C8F084179507B5
:1024900069F4109731F012960C93129713961C93CF
:1024A00027C000931F051093200522C02115310578
:1024B00019F04217530718F49A01BD01EF01DF012B
:1024C000F801DBCF21153105F9F0281B390B243039
:1024D000310580F48A819B816115710521F0FB0132
:1024E0009383828304C09093200580931F05FE018F
:1024F000329644C0FE01E20FF31F81939193225064
:102500003109398328833AC020911D0530911E0579
:10251000232B41F4209162003091630030931E051B
:1025200020931D0520916000309161002115310537
:1025300041F42DB73EB74091640050916500241BD3
:10254000350BE0911D05F0911E05E217F307A0F48D
:102550002E1B3F0B2817390778F0AC014E5F5F4FF9
:102560002417350748F04E0F5F1F50931E05409308
:102570001D058193919302C0E0E0F0E0CF01DF916F
:10258000CF911F910F910895CF93DF93009709F496
:1025900081C0FC01329713821282A0911F05B09175
:1025A0002005109781F420813181820F931F2091A3
:1025B0001D0530911E052817390751F5F0931E05AA
:1025C000E0931D0567C0ED0120E030E0CE17DF0786
:1025D00040F44A815B819E0141155105F1F0EA0109
:1025E000F5CFD383C28340815181840F951FC817D3
:1025F000D90759F488819981840F951F0296918398
:1026000080838A819B81938382832115310529F4FC
:10261000F0932005E0931F053DC0E901FB83EA83A9
:1026200049915991C40FD51FEC17FD0761F48081C2
:102630009181840F951F0296E90199838883828195
:1026400093819B838A83E0E0F0E012968D919C91C8
:102650001397009719F0FD01DC01F7CF8D919C9144
:1026600011979D012E5F3F4F820F931F20911D05F3
:1026700030911E052817390769F4309729F4109214
:10268000200510921F0502C013821282B0931E050E
:10269000A0931D05DF91CF910895FB01DC010D9002
:1026A0000020E9F7119701900D920020E1F70895BD
:1026B000FB01DC0101900D920020E1F70895BB279A
:1026C0004A3031F4992322F4BDE2909581959F4FD1
:1026D0000C946B13BB27FB015527AA27880F991F62
:1026E000AA1FA41710F0A41B83955051B9F7A05D41
:1026F000AA3308F0A95DA193009779F7B111B193BE
:102700001192CB010C949D15AEE0B0E0EAE8F3E144
:102710000C9455160D891E8986E08C831A830983D3
:102720008FEF9FE79E838D83AE01475E5F4F6F897A
:10273000788DCE0101960E94A613EF81F885E00FF7
:10274000F11F10822E96E4E00C947116ABE0B0E01D
:10275000ECEAF3E10C9447166C017B018A01FC0161
:1027600017821682838181FFCCC1CE0101963C0184
:10277000F6019381F70193FD859193FF81917F018C
:10278000882309F4BAC1853239F493FD859193FF0A
:1027900081917F01853229F4B60190E00E94AD1548
:1027A000E7CF912C212C312CFFE1F315D8F08B329F
:1027B00079F038F4803279F08332A1F4232D20614E
:1027C0001DC08D3261F0803369F4232D216016C065
:1027D000832D8260382EE32DE4603E2E2AC0F32D37
:1027E000F8601DC037FC2DC020ED280F2A3040F0C6
:1027F0008E32B9F436FC81C1232D2064322E19C0EB
:1028000036FE06C08AE0989E200D1124922E11C03B
:10281000EAE02E9E200D1124222EF32DF0623F2E91
:1028200008C08C3621F4832D8068382E02C088368B
:1028300041F4F70193FD859193FF81917F0181110F
:10284000B3CF982F9F7D9554933028F40C5F1F4F82
:102850009FE399830DC0833631F0833771F0833560
:1028600009F059C021C0F801808189830E5F1F4F94
:1028700088248394912C530113C02801F2E04F0E59
:10288000511CF801A080B18036FE03C0692D70E0B4
:1028900002C06FEF7FEFC5010E9492154C018201CB
:1028A000F32DFF773F2E16C0280122E0420E511C67
:1028B000F801A080B18036FE03C0692D70E002C02F
:1028C0006FEF7FEFC5010E9487154C01F32DF06873
:1028D0003F2E820133FC1BC0822D90E088169906A2
:1028E000B0F4B60180E290E00E94AD152A94F4CFD6
:1028F000F50137FC859137FE81915F01B60190E0CB
:102900000E94AD1521102A9421E0821A91088114A9
:10291000910471F7E8C0843611F0893641F5F80169
:1029200037FE07C060817181828193810C5F1F4FE8
:1029300008C060817181072E000C880B990B0E5F17
:102940001F4FF32DFF763F2E97FF09C0909580957E
:10295000709561957F4F8F4F9F4FF0683F2E2AE013
:1029600030E0A3010E94E915882E861845C08537FE
:1029700031F4232D2F7EB22E2AE030E025C0932D96
:10298000997FB92E8F36C1F018F4883579F0B5C02B
:10299000803719F0883721F0B0C0E92FE061BE2EF2
:1029A000B4FE0DC0FB2DF460BF2E09C034FE0AC07A
:1029B000292F2660B22E06C028E030E005C020E1B5
:1029C00030E002C020E132E0F801B7FE07C06081CC
:1029D0007181828193810C5F1F4F06C0608171817C
:1029E00080E090E00E5F1F4FA3010E94E915882E42
:1029F0008618FB2DFF773F2E36FE0DC0232D2E7F30
:102A0000A22E891458F434FE0BC032FC09C0832D69
:102A10008E7EA82E05C0B82CA32C03C0B82C01C0F4
:102A2000B92CA4FE0FC0FE01E80DF11D808180339A
:102A300021F49A2D997EA92E09C0A2FE06C0B39456
:102A4000B39404C08A2D867809F0B394A3FC11C016
:102A5000A0FE06C0B21488F4280C922C9B180EC05D
:102A6000B21460F4B60180E290E00E94AD15B39418
:102A7000F7CFB21418F42B1802C0982C212CA4FE06
:102A800010C0B60180E390E00E94AD15A2FE17C011
:102A9000A1FC03C088E790E002C088E590E0B601A1
:102AA0000CC08A2D867859F0A1FE02C08BE201C0CD
:102AB00080E2A7FC8DE2B60190E00E94AD1589147A
:102AC00038F4B60180E390E00E94AD159A94F7CFF8
:102AD0008A94F301E80DF11D8081B60190E00E9417
:102AE000AD158110F5CF222009F442CEB60180E267
:102AF00090E00E94AD152A94F6CFF6018681978169
:102B000002C08FEF9FEF2B96E2E10C946316FC015D
:102B10000590615070400110D8F7809590958E0F08
:102B20009F1F0895FC016150704001900110D8F77B
:102B3000809590958E0F9F1F0895DC01FC01672FF3
:102B400071917723E1F7329704C07C916D93708384
:102B50006291AE17BF07C8F308950F931F93CF93E9
:102B6000DF93FB01238121FD03C08FEF9FEF2CC07A
:102B700022FF16C0468157812481358142175307B1
:102B800044F4A081B1819D012F5F3F4F31832083A9
:102B90008C93268137812F5F3F4F3783268314C064
:102BA0008B01EC01FB010084F185E02D0995892B57
:102BB000E1F6D80116968D919C911797019617967C
:102BC0009C938E931697CE01DF91CF911F910F9119
:102BD0000895FA01AA27283051F1203181F1E894B3
:102BE0006F936E7F6E5F7F4F8F4F9F4FAF4FB1E000
:102BF0003ED0B4E03CD0670F781F891F9A1FA11DFB
:102C0000680F791F8A1F911DA11D6A0F711D811DFB
:102C1000911DA11D20D009F468943F912AE0269FC0
:102C200011243019305D3193DEF6CF010895462F1F
:102C30004770405D4193B3E00FD0C9F7F6CF462F00
:102C40004F70405D4A3318F0495D31FD4052419369
:102C500002D0A9F7EACFB4E0A69597958795779526
:102C60006795BA95C9F700976105710508959B01AD
:102C7000AC010A2E06945795479537952795BA9536
:102C8000C9F7620F731F841F951FA01D08952F920F
:102C90003F924F925F926F927F928F929F92AF92EC
:102CA000BF92CF92DF92EF92FF920F931F93CF9339
:102CB000DF93CDB7DEB7CA1BDB0B0FB6F894DEBFD0
:102CC0000FBECDBF09942A88398848885F846E84F6
:102CD0007D848C849B84AA84B984C884DF80EE8040
:102CE000FD800C811B81AA81B981CE0FD11D0FB649
:102CF000F894DEBF0FBECDBFED010895F894FFCF6D
:102D0000000021052000010001015A005E00310091
:102D10003200330034003500360037003800390007
:102D2000300041540D0041542B434D47463D310D79
:102D30000041542B434D47533D25730D00415445ED
:102D4000300D006D6F626974656C006469616C6F51
:102D5000670041542B435354543D222573222C22A7
:102D60002573222C222573220D0041542B534150F0
:102D700042523D312C310D004F32204175746F208D
:102D80004F6E004F32204175746F204F66660050C1
:102D90006F776572204F6E00506F776572204F66B7
:102DA000660054656D7065726174757265204E6F52
:102DB00074204E6F726D616C2D0041626E6F726D8A
:102DC000616C2054656D702D004F787967656E20B9
:102DD00054616E6B2050657263656E746167652027
:102DE0003A20004F787954616E6B20252000504FB7
:102DF000574552204641494C55524500456E746531
:102E0000722050686F6E65004E756D62657200527B
:102E100065676973746572656400746573740050E6
:102E2000424F324C2D00202048522D002045787012
:102E3000502D0042504D2D00202020424C2D004F9F
:0C2E40003254502D0020414F32502D0024
:00000001FF
