S0180000536D6172742056656E74696C61746F722E73726563BD
S11300000C942A000C943F000C943F000C943F0085
S11300100C943F000C943F000C943F000C943F0060
S11300200C943F000C943F000C943F000C943F0050
S11300300C943F000C943F000C943F000C943F0040
S11300400C943F000C943F000C943F000C943F0030
S11300500C943F0011241FBECFE5D8E0DEBFCDBF16
S113006010E0A0E6B0E0ECE8FAE002C005900D92E2
S1130070A636B107D9F70E9457020C9444050C9494
S1130080000007C08FEC97E00197F1F700C0000073
S1130090C9019C0121503109892BA1F708956B01F5
S11300A07C0149015A010E944F04181624F585B3B6
S11300B0846085BB85B3877F85BBC701B6010E9479
S11300C067032B013C01CB010E94410085B38B7F68
S11300D085BBA5019401C701B6010E9483020E9459
S11300E06703CB010E94410085B3886085BBC201D0
S11300F00E944100DCCF85B3846085BB85B3877FD4
S113010085BBC701B6010E946703CB010E94410071
S113011085B38B7F85BBA7019601C501B4010E94FD
S113012083020E946703CB010E94410085B388606B
S113013085BBC501B4010E946703CB010E94410045
S1130140DACF4F925F926F927F928F929F92AF928B
S1130150BF92CF92DF92EF92FF920F931F93CF93B0
S1130160DF9300D000D0CDB7DEB729833A834B8329
S11301705C83270138019B01AC01C601B5010E94D3
S113018054046B017C0129813A814B815C81CA0151
S1130190B9010E9484024B015C01A5019401C301D1
S11301A0B2010E94F5020E94C7049B01AC01C70181
S11301B0B6010E9454040F900F900F900F90DF919E
S11301C0CF911F910F91FF90EF90DF90CF90BF9050
S11301D0AF909F908F907F906F905F904F90089515
S11301E060E070E0CB0108954F925F926F927F922E
S11301F08F929F92AF92BF92CF92DF92EF92FF9233
S11302000F931F93CF93DF9300D000D0CDB7DEB709
S113021069837A838B839C8329013A01C801B701DE
S1130220A60195010E94F5026B017C0129813A81A6
S11302304B815C81CA01B9010E9484024B015C01BB
S1130240A3019201C501B4010E94F5020E94C704F2
S11302509B01AC01C701B6010E9454040F900F909A
S11302600F900F90DF91CF911F910F91FF90EF901E
S1130270DF90CF90BF90AF909F908F907F906F90C2
S11302805F904F900895CF93DF93CDB7DEB760971B
S11302900FB6F894DEBF0FBECDBF6B017C018EE1BB
S11302A090E0BA010E941C05072E000C880B990BE4
S11302B00E949F036D837E838F83988720E030E0C4
S11302C048EC52E4C701B6010E94F50269837A83BF
S11302D08B839C839B01AC0160E070E080E89FE32A
S11302E00E94830269877A878B879C872FE632E195
S11302F043E05AE30E9454042BEA36E749E25BE305
S11303000E9454044B015C012FE632E143E05AE3BE
S113031069817A818B819C810E9454046D877E87D8
S11303208F87988B0E94F0002B013C019B01AC014C
S11303300E9484026B017C01A70196016DEC7CECA8
S11303408CE99FE30E94F5020E94C7049B01AC0163
S11303506D857E858F8598890E9454049B01AC012C
S1130360C501B4010E944F04181634F5A984BA8457
S1130370CB84DC84ED80FE800F8118852DEC3CEC71
S11303804CE95FE360E876EE85EC97E40E94F400C4
S11303901DECE12E1CECF12E0CE91FE320E836EEF7
S11303A045EC57E40E94A1009B01AC016D817E8164
S11303B08F8198850E944F00A980BA80CB80DC8011
S11303C0ED80FE800F81188524EA30E74DEA5FE373
S11303D0C301B2010E94F40014EAE12E10E7F12EE9
S11303E00DEA1FE3A30192010E94A1002D813E8129
S11303F04F8158850E944F00C0916200D0916300E4
S11304006091600070916100072E000C880B990BBD
S11304100E949F03AE010E944301409162005091EB
S1130420630060E070E088EC92E40E94430180E0A5
S113043090E0089580E090E00895CF92DF92EF92EB
S1130440FF920E941A02BC01990F880B990B0E941B
S11304509F036B017C012DEC3CEC44E152E40E94CF
S11304604F04181654F026E636E640E152E4C7017C
S1130470B6010E94F00288230CF401C081E0FF90D1
S1130480EF90DF90CF90089581E0089581E0089582
S11304900895CF930E944602C82F882329F00E9412
S11304A048020A970CF4C0E08C2FCF91089584B3CE
S11304B0846084BB84B3886084BB0E94490288231F
S11304C0F9F00E9444028823A9F00E941D028823A7
S11304D0A1F30E94170220916400309165008217F5
S11304E0930734F480916000909161000E94FC01B4
S11304F00E940D0280916000909161000E94FC01B5
S113050080E090E008955058BB27AA270E949B02E0
S11305100C9415040E94070438F00E940E0420F085
S113052039F49F3F19F426F40C9404040EF4E09576
S1130530E7FB0C94FE03E92F0E94260458F3BA1734
S1130540620773078407950720F079F4A6F50C94E5
S113055048040EF4E0950B2EBA2FA02D0B01B9011F
S113056090010C01CA01A0011124FF27591B99F025
S1130570593F50F4503E68F11A16F040A22F232F31
S1130580342F4427585FF3CF469537952795A79581
S1130590F0405395C9F77EF41F16BA0B620B730B28
S11305A0840BBAF09150A1F0FF0FBB1F661F771F99
S11305B0881FC2F70EC0BA0F621F731F841F48F44E
S11305C0879577956795B795F7959E3F08F0B0CFD7
S11305D09395880F08F09927EE0F979587950895BE
S11305E00E94DA0308F481E008950E9409030C9440
S11305F015040E940E0458F00E94070440F029F4E8
S11306005F3F29F00C94FE0351110C9449040C949F
S113061004040E94260468F39923B1F3552391F34B
S1130620951B550BBB27AA2762177307840738F05D
S11306309F5F5F4F220F331F441FAA1FA9F335D0BA
S11306400E2E3AF0E0E832D091505040E695001C6E
S1130650CAF72BD0FE2F29D0660F771F881FBB1F28
S1130660261737074807AB07B0E809F0BB0B802D06
S1130670BF01FF2793585F4F3AF09E3F510578F032
S11306800C94FE030C9449045F3FE4F3983ED4F3C6
S1130690869577956795B795F7959F5FC9F7880F06
S11306A0911D9695879597F90895E1E0660F771F58
S11306B0881FBB1F621773078407BA0720F0621BE9
S11306C0730B840BBA0BEE1F88F7E09508950E9414
S11306D06E036894B1110C94490408950E942E0489
S11306E088F09F5798F0B92F9927B751B0F0E1F0EF
S11306F0660F771F881F991F1AF0BA95C9F714C09F
S1130700B13091F00E944804B1E008950C9448047B
S1130710672F782F8827B85F39F0B93FCCF38695D7
S113072077956795B395D9F73EF490958095709534
S113073061957F4F8F4F9F4F0895E89409C097FBB1
S11307403EF490958095709561957F4F8F4F9F4FA4
S11307509923A9F0F92F96E9BB279395F6958795E8
S113076077956795B795F111F8CFFAF4BB0F11F4AB
S113077060FF1BC06F5F7F4F8F4F9F4F16C0882352
S113078011F096E911C0772321F09EE8872F762F88
S113079005C0662371F096E8862F70E060E02AF0C9
S11307A09A95660F771F881FDAF7880F96958795B5
S11307B097F90895990F0008550FAA0BE0E8FEEF8A
S11307C016161706E807F907C0F012161306E40711
S11307D0F50798F0621B730B840B950B39F40A260A
S11307E061F0232B242B252B21F408950A2609F4E8
S11307F0A140A6958FEF811D811D089597F99F67EC
S113080080E870E060E008959FEF80EC0895002494
S11308100A941616170618060906089500240A9461
S113082012161306140605060895092E0394000CE7
S113083011F4882352F0BB0F40F4BF2B11F460FF76
S113084004C06F5F7F4F8F4F9F4F089557FD90589F
S1130850440F551F59F05F3F71F04795880F97FB80
S1130860991F61F09F3F79F087950895121613063A
S11308701406551FF2CF4695F1DF08C01616170669
S11308801806991FF1CF869571056105089408959E
S1130890E894BB2766277727CB0197F908950E9430
S11308A0DA0308F48FEF08950E9467040C9415048A
S11308B00E94070438F00E940E0420F0952311F0E2
S11308C00C94FE030C94040411240C9449040E9417
S11308D0260470F3959FC1F3950F50E0551F629F56
S11308E0F001729FBB27F00DB11D639FAA27F00D85
S11308F0B11DAA1F649F6627B00DA11D661F829FAC
S11309002227B00DA11D621F739FB00DA11D621F90
S1130910839FA00D611D221F749F3327A00D611DAD
S1130920231F849F600D211D822F762F6A2F11248F
S11309309F5750409AF0F1F088234AF0EE0FFF1FC2
S1130940BB1F661F771F881F91505040A9F79E3F19
S1130950510580F00C94FE030C9449045F3FE4F3CA
S1130960983ED4F3869577956795B795F795E7956F
S11309709F5FC1F7FE2B880F911D9695879597F978
S1130980089519F416F40C9404040C9407050E94B9
S11309902E04B8F39923C9F3B6F39F57550B87FF79
S11309A00E9415050024A0E640EA9001805856955F
S11309B0979528F4805C660F771F881F20F0261710
S11309C03707480730F4621B730B840B2029312945
S11309D04A2BA69517940794202531254A2758F7C2
S11309E0660F771F881F20F026173707480730F453
S11309F0620B730B840B200D311D411DA09581F7F3
S1130A00B901842F9158880F9695879508959F3F33
S1130A1031F0915020F4879577956795B795880FB5
S1130A20911D9695879597F9089591505040660FBA
S1130A30771F881FD2F7089597FB072E16F40094AA
S1130A4007D077FD09D00E94300507FC05D03EF49D
S1130A50909581959F4F0895709561957F4F089566
S1130A60AA1BBB1B51E107C0AA1FBB1FA617B707D0
S1130A7010F0A61BB70B881F991F5A95A9F78095EC
S10F0A809095BC01CD010895F894FFCFBF
S1090A8C3C0012006100B1
S9030000FC
