:100000000C942A000C943F000C943F000C943F0089
:100010000C943F000C943F000C943F000C943F0064
:100020000C943F000C943F000C943F000C943F0054
:100030000C943F000C943F000C943F000C943F0044
:100040000C943F000C943F000C943F000C943F0034
:100050000C943F0011241FBECFE5D8E0DEBFCDBF1A
:1000600010E0A0E6B0E0E8EBF0E002C005900D92F1
:10007000A036B107D9F70E944E000C945A000C9498
:10008000000081E0089581E090E008950E9443001F
:100090000A9714F081E0089580E008950E944600D8
:1000A000882329F00E9441008823C1F3F7CF80E024
:0800B00090E00895F894FFCFE1
:00000001FF
