:100000000C942A000C9447000C9447000C94470071
:100010000C9447000C9447000C9447000C94470044
:100020000C9447000C9447000C9447000C94470034
:100030000C9447000C9447000C9447000C94470024
:100040000C9447000C9447000C9447000C94470014
:100050000C94470011241FBECFE5D8E0DEBFCDBF12
:1000600011E0A0E6B0E0ECEFF3E102C005900D92E4
:10007000A230B107D9F722E0A2E0B1E001C01D92A1
:10008000AA3FB207E1F70E9449030C94FC090C94C3
:1000900000002AB128692AB920B5266820BDDC01F4
:1000A000CB01880F991FAA1FBB1F880F991FAA1F7A
:1000B000BB1F9C01AD01220F331F441F551F220F90
:1000C000331F441F551F60E072E18AE790E00E94F1
:1000D00074058FEF820F89B9DA01C9010197A1096F
:1000E000B109892F9A2FAB2FBB2780BD08958CB9FA
:1000F0005D9BFECF08950F931F93CF93DF938C01E9
:10010000C0E0D0E003C00E9477002196F801EC0F18
:10011000FD1F80818111F7CFDF91CF911F910F914A
:1001200008950F931F93CF93DF93CDB7DEB7C456D7
:10013000D1090FB6F894DEBF0FBECDBF8AE790E0BD
:100140000E947B008FE19EE40197F1F700C0000060
:1001500080E890E09F938F939F938F9388E890E03F
:100160009F938F938FE890E09F938F938E010F5F03
:100170001F4F1F930F930E940207C8010E947B002C
:1001800084E6E2E0F1E0DF011D928A95E9F78FE174
:100190009EE40197F1F700C0000087EA90E00E941A
:1001A0007B000FB6F894DEBF0FBECDBFCC59DF4F3A
:1001B0000FB6F894DEBF0FBECDBFDF91CF911F9178
:1001C0000F91089520E030E04AE754E40E94F304E0
:1001D0000E94060405C022E02A95F1F700C0BC0188
:1001E000CB010197672BB9F708958F929F92AF9239
:1001F000BF92CF92DF92EF92FF924B015C016901B7
:100200007A010E94EE041816ECF485B3846085BB75
:1002100085B3877F85BBC701B6010E94E20085B325
:100220008B7F85BBA7019601C501B4010E94940391
:100230000E94E20085B3886085BBC501B4010E94BD
:10024000E2001CC085B3846085BB85B3877F85BB16
:10025000C501B4010E94E20085B38B7F85BBA50177
:100260009401C701B6010E9494030E94E20085B385
:10027000886085BBC701B6010E94E200FF90EF9045
:10028000DF90CF90BF90AF909F908F90089580E0C7
:1002900090E0089585E290E0089581E0089581E07E
:1002A0000895EF92FF920F931F93CF93DF938C01EA
:1002B000EB01FC0101900020E9F73197CF01801B91
:1002C000910BFB0101900020E9F73197E61BF70B3A
:1002D0008E0F9F1F01960E94AA057C01B8010E9403
:1002E000D606BE01C7010E94CB06C701DF91CF91A0
:1002F0001F910F91FF90EF900895BF92CF92DF92E0
:10030000EF92FF920F931F93CF93DF93CDB7DEB79A
:10031000C456D1090FB6F894DEBF0FBECDBF182F5B
:10032000092FC62EB72E85EB90E00E947B008FE14F
:100330009EE40197F1F700C0000089EB90E00E9475
:100340007B00EFE1FEE43197F1F700C000000F936E
:100350001F9384EC90E09F938F938E010F5F1F4F4C
:100360001F930F930E940207C8010E947B000F2E6B
:10037000F2E0EF2EF1E0FF2EF02D0F2EF4E6DF2E4F
:10038000F02DF7018D2D11928A95E9F7BF92CF924A
:100390008CEC90E09F938F931F930F930E94020722
:1003A000C8010E947B00F7011192DA94E9F70FB6B9
:1003B000F894DEBF0FBECDBFCC59DF4F0FB6F89417
:1003C000DEBF0FBECDBFDF91CF911F910F91FF9088
:1003D000EF90DF90CF90BF9008950F931F93CF932E
:1003E000DF9300D000D0CDB7DEB78C01CB014AE05F
:1003F000BE016F5F7F4F0E94DD06BE016F5F7F4FC2
:10040000C8010E945101BC0186E690E00E947D0176
:100410000F900F900F900F90DF91CF911F910F9140
:100420000895CF92DF92EF92FF92CF93DF930E94D5
:100430004A01EC01BC01990F880B990B0E943E0404
:100440006B017C012DEC3CEC44E152E40E94EE0493
:10045000181654F026E636E640E152E4C701B6012C
:100460000E94010488233CF4BE0180ED90E00E94CC
:10047000ED0180E001C081E0DF91CF91FF90EF902E
:10048000DF90CF90089580E590E00895CF930E948B
:100490004F01C82F882359F00E9443028A309105EA
:1004A00034F4BC0188EE90E00E94ED01C0E08C2F96
:1004B000CF910895CF92DF92EF92FF9225B3206102
:1004C00025BBBC01660F771F880F991F880F991FE6
:1004D000880F991F680F791F8EE190E00E946005D8
:1004E000072E000C880B990B0E943E046B017C01C7
:1004F0000E94E20085B3806885BBC701B6010E94F7
:10050000E20085B38F7E85BBC701B6010E94E20081
:1005100085B3806285BBC701B6010E94E20085B346
:100520008F7785BBC701B6010E94E20085B3806466
:1005300085BBC701B6010E94E20085B38F7D85BBF4
:10054000C701B6010E94E20085B3806185BBC70187
:10055000B6010E94E20085B38F7B85BBC701B6015F
:100560000E94E20085B38F7E85BBC701B6010E9461
:10057000E200FF90EF90DF90CF900895CF92DF924E
:10058000EF92FF9225B3206125BBBC01660F771F58
:10059000880F991F880F991F880F991F680F791F5F
:1005A0008EE190E00E946005072E000C880B990BED
:1005B0000E943E046B017C010E94E20085B38064CE
:1005C00085BBC701B6010E94E20085B38F7E85BB63
:1005D000C701B6010E94E20085B3806285BBC701F6
:1005E000B6010E94E20085B38F7B85BBC701B601CF
:1005F0000E94E20085B3806885BBC701B6010E94F6
:10060000E20085B38F7D85BBC701B6010E94E20081
:1006100085B3806185BBC701B6010E94E20085B346
:100620008F7785BBC701B6010E94E20085B38F7E3C
:1006300085BBC701B6010E94E200FF90EF90DF90FA
:10064000CF900895EC01CE010E945A0220E030E0E4
:1006500040EF51E460E070E080E792E40E94F50032
:100660008CE390E00E94BE02EECF60917600709124
:10067000770080917400909175000E942203609130
:1006800076007091770080917400909175000E94BF
:10069000220384B3846084BB84B3886084BB84B346
:1006A000806184BB84B3806284BB84B3806484BB78
:1006B00084B3806884BB60E875E280E090E00E94CB
:1006C00049002FEF89E698E1215080409040E1F702
:1006D00000C000000E9491000E944602882309F198
:1006E0000E944D018823A9F00E9411028823A1F3E2
:1006F0000E9447012091780030917900821793077A
:1007000034F480917200909173000E9435030E942E
:100710003F030E94110280917200909173000E9429
:10072000350380E090E008955058BB27AA270E9427
:10073000AC030C94B4040E94A60438F00E94AD04EB
:1007400020F039F49F3F19F426F40C94A3040EF41E
:10075000E095E7FB0C949D04E92F0E94C50458F333
:10076000BA17620773078407950720F079F4A6F596
:100770000C94E7040EF4E0950B2EBA2FA02D0B017C
:10078000B90190010C01CA01A0011124FF27591BD6
:1007900099F0593F50F4503E68F11A16F040A22FDC
:1007A000232F342F4427585FF3CF4695379527954D
:1007B000A795F0405395C9F77EF41F16BA0B620B4C
:1007C000730B840BBAF09150A1F0FF0FBB1F661F93
:1007D000771F881FC2F70EC0BA0F621F731F841FD6
:1007E00048F4879577956795B795F7959E3F08F0FC
:1007F000B0CF9395880F08F09927EE0F97958795BE
:1008000008950E94790408F481E008950E940D047F
:100810006894B1110C94E80408950E94CD0488F006
:100820009F5798F0B92F9927B751B0F0E1F0660FB4
:10083000771F881F991F1AF0BA95C9F714C0B130F5
:1008400091F00E94E704B1E008950C94E704672F4B
:10085000782F8827B85F39F0B93FCCF38695779524
:100860006795B395D9F73EF490958095709561950D
:100870007F4F8F4F9F4F0895E89409C097FB3EF438
:1008800090958095709561957F4F8F4F9F4F9923DD
:10089000A9F0F92F96E9BB279395F695879577955B
:1008A0006795B795F111F8CFFAF4BB0F11F460FF1B
:1008B0001BC06F5F7F4F8F4F9F4F16C0882311F073
:1008C00096E911C0772321F09EE8872F762F05C087
:1008D000662371F096E8862F70E060E02AF09A9522
:1008E000660F771F881FDAF7880F9695879597F917
:1008F0000895990F0008550FAA0BE0E8FEEF1616B1
:100900001706E807F907C0F012161306E407F50703
:1009100098F0621B730B840B950B39F40A2661F077
:10092000232B242B252B21F408950A2609F4A1401A
:10093000A6958FEF811D811D089597F99F6780E827
:1009400070E060E008959FEF80EC089500240A9421
:100950001616170618060906089500240A9412169A
:100960001306140605060895092E0394000C11F4CD
:10097000882352F0BB0F40F4BF2B11F460FF04C07A
:100980006F5F7F4F8F4F9F4F089557FD9058440FD3
:10099000551F59F05F3F71F04795880F97FB991FDE
:1009A00061F09F3F79F0879508951216130614069B
:1009B000551FF2CF4695F1DF08C016161706180628
:1009C000991FF1CF86957105610508940895E89403
:1009D000BB2766277727CB0197F908950E947904F2
:1009E00008F48FEF08950E9406050C94B4040E9449
:1009F000A60438F00E94AD0420F0952311F00C9469
:100A00009D040C94A30411240C94E8040E94C504D2
:100A100070F3959FC1F3950F50E0551F629FF00151
:100A2000729FBB27F00DB11D639FAA27F00DB11D6A
:100A3000AA1F649F6627B00DA11D661F829F2227F3
:100A4000B00DA11D621F739FB00DA11D621F839F7A
:100A5000A00D611D221F749F3327A00D611D231F50
:100A6000849F600D211D822F762F6A2F11249F579E
:100A700050409AF0F1F088234AF0EE0FFF1FBB1FA1
:100A8000661F771F881F91505040A9F79E3F510560
:100A900080F00C949D040C94E8045F3FE4F3983ECE
:100AA000D4F3869577956795B795F795E7959F5F0A
:100AB000C1F7FE2B880F911D9695879597F908959C
:100AC00097FB072E16F4009407D077FD09D00E94FB
:100AD000960507FC05D03EF4909581959F4F0895AB
:100AE000709561957F4F0895A1E21A2EAA1BBB1B3A
:100AF000FD010DC0AA1FBB1FEE1FFF1FA217B307EA
:100B0000E407F50720F0A21BB30BE40BF50B661FFF
:100B1000771F881F991F1A9469F7609570958095C3
:100B200090959B01AC01BD01CF010895AA1BBB1B91
:100B300051E107C0AA1FBB1FA617B70710F0A61BDD
:100B4000B70B881F991F5A95A9F780959095BC01FE
:100B5000CD0108950F931F93CF93DF9382309105BA
:100B600010F482E090E0E091F802F091F90220E0C8
:100B700030E0A0E0B0E0309719F14081518102816E
:100B8000138148175907C8F08417950769F410971F
:100B900031F012960C93129713961C9327C0009372
:100BA000F8021093F90222C02115310519F04217FD
:100BB000530718F49A01BD01EF01DF01F801DBCF03
:100BC00021153105F9F0281B390B2430310580F44B
:100BD0008A819B816115710521F0FB0193838283DA
:100BE00004C09093F9028093F802FE01329644C04B
:100BF000FE01E20FF31F8193919322503109398353
:100C000028833AC02091F6023091F702232B41F459
:100C100020916200309163003093F7022093F60236
:100C200020916000309161002115310541F42DB70C
:100C30003EB74091640050916500241B350BE09154
:100C4000F602F091F702E217F307A0F42E1B3F0B18
:100C50002817390778F0AC014E5F5F4F241735072E
:100C600048F04E0F5F1F5093F7024093F6028193B6
:100C7000919302C0E0E0F0E0CF01DF91CF911F91AE
:100C80000F910895CF93DF93009709F481C0FC0181
:100C9000329713821282A091F802B091F902109754
:100CA00081F420813181820F931F2091F6023091CF
:100CB000F7022817390751F5F093F702E093F6028F
:100CC00067C0ED0120E030E0CE17DF0740F44A8135
:100CD0005B819E0141155105F1F0EA01F5CFD38307
:100CE000C28340815181840F951FC817D90759F4D9
:100CF00088819981840F951F0296918380838A81D0
:100D00009B81938382832115310529F4F093F902A5
:100D1000E093F8023DC0E901FB83EA8349915991D0
:100D2000C40FD51FEC17FD0761F480819181840FFA
:100D3000951F0296E90199838883828193819B8321
:100D40008A83E0E0F0E012968D919C9113970097D2
:100D500019F0FD01DC01F7CF8D919C9111979D0158
:100D60002E5F3F4F820F931F2091F6023091F702C2
:100D70002817390769F4309729F41092F902109274
:100D8000F80202C013821282B093F702A093F60217
:100D9000DF91CF910895FB01DC010D900020E9F770
:100DA000119701900D920020E1F70895FB01DC01FD
:100DB00001900D920020E1F70895BB274A3031F4ED
:100DC000992322F4BDE2909581959F4F0C94E906FA
:100DD000BB27FB015527AA27880F991FAA1FA41715
:100DE00010F0A41B83955051B9F7A05DAA3308F009
:100DF000A95DA193009779F7B111B1931192CB013D
:100E00000C941B09AEE0B0E0E8E0F7E00C94D309E5
:100E10000D891E8986E08C831A8309838FEF9FE7F3
:100E20009E838D83AE01475E5F4F6F89788DCE01C3
:100E300001960E942407EF81F885E00FF11F1082D0
:100E40002E96E4E00C94EF09ABE0B0E0EAE2F7E0C4
:100E50000C94C5096C017B018A01FC011782168282
:100E6000838181FFCCC1CE0101963C01F6019381C3
:100E7000F70193FD859193FF81917F01882309F408
:100E8000BAC1853239F493FD859193FF81917F0139
:100E9000853229F4B60190E00E942B09E7CF912C0E
:100EA000212C312CFFE1F315D8F08B3279F038F496
:100EB000803279F08332A1F4232D20611DC08D3260
:100EC00061F0803369F4232D216016C0832D826088
:100ED000382EE32DE4603E2E2AC0F32DF8601DC0AD
:100EE00037FC2DC020ED280F2A3040F08E32B9F4A7
:100EF00036FC81C1232D2064322E19C036FE06C077
:100F00008AE0989E200D1124922E11C0EAE02E9EB8
:100F1000200D1124222EF32DF0623F2E08C08C36B6
:100F200021F4832D8068382E02C0883641F4F70101
:100F300093FD859193FF81917F018111B3CF982F0C
:100F40009F7D9554933028F40C5F1F4F9FE3998346
:100F50000DC0833631F0833771F0833509F059C005
:100F600021C0F801808189830E5F1F4F88248394FC
:100F7000912C530113C02801F2E04F0E511CF801CF
:100F8000A080B18036FE03C0692D70E002C06FEF13
:100F90007FEFC5010E9410094C018201F32DFF77FC
:100FA0003F2E16C0280122E0420E511CF801A080FD
:100FB000B18036FE03C0692D70E002C06FEF7FEF95
:100FC000C5010E9405094C01F32DF0683F2E8201F6
:100FD00033FC1BC0822D90E088169906B0F4B60150
:100FE00080E290E00E942B092A94F4CFF50137FCAF
:100FF000859137FE81915F01B60190E00E942B0937
:1010000021102A9421E0821A91088114910471F729
:10101000E8C0843611F0893641F5F80137FE07C083
:1010200060817181828193810C5F1F4F08C0608154
:101030007181072E000C880B990B0E5F1F4FF32D4B
:10104000FF763F2E97FF09C090958095709561952A
:101050007F4F8F4F9F4FF0683F2E2AE030E0A30173
:101060000E946709882E861845C0853731F4232DE4
:101070002F7EB22E2AE030E025C0932D997FB92E25
:101080008F36C1F018F4883579F0B5C0803719F083
:10109000883721F0B0C0E92FE061BE2EB4FE0DC04C
:1010A000FB2DF460BF2E09C034FE0AC0292F266034
:1010B000B22E06C028E030E005C020E130E002C0DA
:1010C00020E132E0F801B7FE07C0608171818281C2
:1010D00093810C5F1F4F06C06081718180E090E0BA
:1010E0000E5F1F4FA3010E946709882E8618FB2DF3
:1010F000FF773F2E36FE0DC0232D2E7FA22E8914A2
:1011000058F434FE0BC032FC09C0832D8E7EA82E0D
:1011100005C0B82CA32C03C0B82C01C0B92CA4FE68
:101120000FC0FE01E80DF11D8081803321F49A2D5E
:10113000997EA92E09C0A2FE06C0B394B39404C040
:101140008A2D867809F0B394A3FC11C0A0FE06C0D6
:10115000B21488F4280C922C9B180EC0B21460F4C0
:10116000B60180E290E00E942B09B394F7CFB2144D
:1011700018F42B1802C0982C212CA4FE10C0B60124
:1011800080E390E00E942B09A2FE17C0A1FC03C0DF
:1011900088E790E002C088E590E0B6010CC08A2D97
:1011A000867859F0A1FE02C08BE201C080E2A7FC64
:1011B0008DE2B60190E00E942B09891438F4B60143
:1011C00080E390E00E942B099A94F7CF8A94F30170
:1011D000E80DF11D8081B60190E00E942B0981107D
:1011E000F5CF222009F442CEB60180E290E00E94C1
:1011F0002B092A94F6CFF6018681978102C08FEFE2
:101200009FEF2B96E2E10C94E109FC0105906150FF
:1012100070400110D8F7809590958E0F9F1F08950C
:10122000FC016150704001900110D8F780959095B5
:101230008E0F9F1F0895DC01FC01672F71917723AA
:10124000E1F7329704C07C916D9370836291AE1781
:10125000BF07C8F308950F931F93CF93DF93FB014C
:10126000238121FD03C08FEF9FEF2CC022FF16C00A
:1012700046815781248135814217530744F4A08168
:10128000B1819D012F5F3F4F318320838C93268155
:1012900037812F5F3F4F3783268314C08B01EC01CA
:1012A000FB010084F185E02D0995892BE1F6D80139
:1012B00016968D919C911797019617969C938E93F5
:1012C0001697CE01DF91CF911F910F910895FA01EA
:1012D000AA27283051F1203181F1E8946F936E7F75
:1012E0006E5F7F4F8F4F9F4FAF4FB1E03ED0B4E066
:1012F0003CD0670F781F891F9A1FA11D680F791FA7
:101300008A1F911DA11D6A0F711D811D911DA11DB7
:1013100020D009F468943F912AE0269F11243019C7
:10132000305D3193DEF6CF010895462F4770405D62
:101330004193B3E00FD0C9F7F6CF462F4F70405D11
:101340004A3318F0495D31FD4052419302D0A9F76C
:10135000EACFB4E0A6959795879577956795BA9566
:10136000C9F700976105710508959B01AC010A2E2C
:1013700006945795479537952795BA95C9F7620F03
:10138000731F841F951FA01D08952F923F924F92A7
:101390005F926F927F928F929F92AF92BF92CF9205
:1013A000DF92EF92FF920F931F93CF93DF93CDB70E
:1013B000DEB7CA1BDB0B0FB6F894DEBF0FBECDBF86
:1013C00009942A88398848885F846E847D848C8457
:1013D0009B84AA84B984C884DF80EE80FD800C8160
:1013E0001B81AA81B981CE0FD11D0FB6F894DEBF43
:0C13F0000FBECDBFED010895F894FFCFB3
:1013FC000000FA02200039343738383735343830A9
:10140C0039005A000C0032006100415445300D0087
:10141C006D6F626974656C006469616C6F67004123
:10142C00542B435354543D222573222C22257322D2
:10143C002C222573220D0041542B53415042523D16
:10144C00312C310D0041540D0041542B434D474676
:10145C003D310D0041542B434D47533D25730D0039
:10146C0054656D7065726174757265204E6F742071
:10147C004E6F726D616C2D004F787967656E2054DC
:10148C00616E6B2050657263656E74616765203A9E
:02149C0020002E
:00000001FF
