S0180000536D6172742056656E74696C61746F722E73726563BD
S11300000C943D000C9436090C947B090C945A0012
S11300100C945A000C945A000C945A000C94210D20
S11300200C945A000C945A000C945A000C945A00E4
S11300300C945A000C945A000C945A000C945A00D4
S11300400C945A000C945A000C945A000C945A00C4
S11300500C945A0050058505BA05EF052406590687
S11300608E06C306F8062D0762079707CC070A0910
S1130070010836086B08A008D50811241FBECFE577
S1130080D8E0DEBFCDBF11E0A0E6B0E0EAE8F9E2D7
S113009002C005900D92A237B107D9F724E0A2E778
S11300A0B1E001C01D92A83DB207E1F70E94A80B80
S11300B00C94C3140C9400008EE788BBB4990CC054
S11300C02FEF89EF90E0215080409040E1F700C08D
S11300D000008EE690E00895B5990CC02FEF89EFEB
S11300E090E0215080409040E1F700C0000080E79C
S11300F090E00895B6990CC02FEF89EF90E021505D
S113010080409040E1F700C0000082E790E008954D
S11301108DE788BBB4990CC02FEF89EF90E0215094
S113012080409040E1F700C0000084E790E008952B
S1130130B5990CC02FEF89EF90E02150804090409A
S1130140E1F700C0000086E790E00895B6990CC07E
S11301502FEF89EF90E0215080409040E1F700C0FC
S1130160000088E790E008958BE788BBB4990CC041
S11301702FEF89EF90E0215080409040E1F700C0DC
S113018000008AE790E00895B5990CC02FEF89EF3D
S113019090E0215080409040E1F700C000008CE7DF
S11301A090E00895B6990CC02FEF89EF90E02150AC
S11301B080409040E1F700C000008EE790E0089591
S11301C087E788BBB4990CC02FEF89EF90E02150EA
S11301D080409040E1F700C0000080E890E008957E
S11301E0B5990CC02FEF89EF90E0215080409040EA
S11301F0E1F700C0000084E890E00895B6990CC0CF
S11302002FEF89EF90E0215080409040E1F700C04B
S1130210000086E890E00895089540E050E00AC0A8
S11302202F5F3F4F02C020E030E029373105C4F38F
S11302304F5F5F4F84179507B4F7089583B18260C9
S113024083B984E886BF06B607FEFDCF81E090E05F
S11302500E940D0183B18D7F83B984E886BF06B601
S113026007FEFDCF089593B19E7F93B994E896BF9E
S113027006B607FEFDCF93B19F7093B994E896BF7D
S113028006B607FEFDCF93B1807F892B83B984E83E
S113029086BF06B607FEFDCF0E941E010895CF93C8
S11302A0C82F83B18E7F83B984E886BF06B607FE64
S11302B0FDCF83B18F7083B984E886BF06B607FE8D
S11302C0FDCF83B19C2F907F892B83B984E886BFAF
S11302D006B607FEFDCF0E941E0183B18F7083B95D
S11302E084E886BF06B607FEFDCF23B130E1C39F85
S11302F0C0011124822B83B984E886BF06B607FEA9
S1130300FDCF0E941E01CF91089580E30E94330126
S113031080E30E94330180E20E94330188E20E945C
S11303204F018CE00E944F0181E00E944F0186E062
S11303300E944F0180E80E944F010895CF93C82F77
S113034083B1816083B984E886BF06B607FEFDCF1A
S113035083B18F7083B984E886BF06B607FEFDCFEC
S113036083B19C2F907F892B83B984E886BF06B61E
S113037007FEFDCF0E941E0183B18F7083B984E80C
S113038086BF06B607FEFDCF23B130E1C39FC0018F
S11303901124822B83B984E886BF06B607FEFDCFFD
S11303A00E941E01CF910895CF93DF93EC0103C007
S11303B021960E949E0188818111FACFDF91CF910D
S11303C0089582E680B984E086BF11B8089584EA6E
S11303D086BF06B607FEFDCF089583B984E886BFBD
S11303E006B607FEFDCF08952AB128692AB920B5BB
S11303F0266820BDDC01CB01880F991FAA1FBB1FF3
S1130400880F991FAA1FBB1F9C01AD01220F331F28
S1130410441F551F220F331F441F551F60E072E114
S11304208AE790E00E940F108FEF820F89B9DA01FA
S1130430C9010197A109B109892F9A2FAB2FBB27B5
S113044080BD08958CB95D9BFECF08950F931F93D3
S1130450CF93DF938C01C0E0D0E003C00E9422025E
S11304602196F801EC0FFD1F80818111F7CFDF91F8
S1130470CF911F910F910895BF92CF92DF92EF9287
S1130480FF920F931F93CF93DF93CDB7DEB7C4567C
S1130490D1090FB6F894DEBF0FBECDBF182F092FB8
S11304A0C62EB72E89E890E00E9426028FE19EE4D2
S11304B00197F1F700C000008DE890E00E94260249
S11304C0EFE1FEE43197F1F700C000000F931F93B2
S11304D088E990E09F938F938E010F5F1F4F1F93C6
S11304E00F930E94C911C8010E9426020F2EF2E741
S11304F0EF2EF1E0FF2EF02D0F2EF4E6DF2EF02D7F
S1130500F7018D2D11928A95E9F7BF92CF9280EA77
S113051090E09F938F931F930F930E94C911C8017A
S11305200E942602F7011192DA94E9F70FB6F894C3
S1130530DEBF0FBECDBFCC59DF4F0FB6F894DEBF80
S11305400FBECDBFDF91CF911F910F91FF90EF9020
S1130550DF90CF90BF9008950F931F93CF93DF93B5
S1130560CDB7DEB7C456D1090FB6F894DEBF0FBEBF
S1130570CDBF84EA90E00E9426028FE19EE40197B9
S1130580F1F700C000008AEA90E09F938F939F9355
S11305908F9382EB90E09F938F9389EB90E09F93EE
S11305A08F938E010F5F1F4F1F930F930E94C911EA
S11305B0C8010E94260284E6E2E7F1E0DF011D9211
S11305C08A95E9F78FE19EE40197F1F700C00000F6
S11305D081ED90E00E9426020FB6F894DEBF0FBEB4
S11305E0CDBFCC59DF4F0FB6F894DEBF0FBECDBFE1
S11305F0DF91CF911F910F9108958F929F92AF92A7
S1130600BF92CF92DF92EF92FF920F931F934B0111
S11306105C01CA01B90120E030E04AE754E40E94D9
S1130620330F6B017C0120E030E04AE754E4C5015C
S1130630B4010E94330F4B015C019B01AC01C70163
S1130640B6010E942E0F18160CF0B7C180911D043C
S113065090911E04892B09F040C00E94590D6093AB
S11306601D0470931E0480931F04909320040E9421
S11306707C0EA50194010E946A0D0E944D0E6093A8
S1130680190470931A0480931B0490931C0481E052
S113069090E0A0E0B0E08093680390936903A09396
S11306A06A03B0936B0385B3846085BB85B3877F8E
S11306B085BB8091680390916903A0916A03B0910E
S11306C06B030196A11DB11D809368039093690388
S11306D0A0936A03B0936B0370C10E94590D0091FB
S11306E0190410911A0420911B0430911C0406175C
S11306F017072807390708F085C08091680390918F
S11307006903A0916A03B0916B0382309105A1053E
S1130710B10529F00397A105B105A1F162C085B324
S11307208B7F85BB8091680390916903A0916A03D4
S1130730B0916B030196A11DB11D80936803909342
S11307406903A0936A03B0936B03609119047091D9
S11307501A0480911B0490911C040E947C0EA70132
S113076096010E946A0DA50194010E94690D0E94E0
S11307704D0E6093190470931A0480931B04909394
S11307801C041BC185B3886085BB8091680390916C
S11307906903A0916A03B0916B030196A11DB11D79
S11307A08093680390936903A0936A03B0936B03E7
S11307B06091190470911A0480911B0490911C0497
S11307C00E947C0EA70196010E946A0D0E944D0EA4
S11307D06093190470931A0480931B0490931C046F
S11307E0ECC0109268031092690310926A0310928D
S11307F06B0310921D0410921E0410921F04109299
S11308002004DBC080911D0490911E04892B09F003
S113081040C00E94590D60931D0470931E04809380
S11308201F04909320040E947C0EA70196010E944D
S11308306A0D0E944D0E6093190470931A048093FC
S11308401B0490931C0481E090E0A0E0B0E080934E
S1130850680390936903A0936A03B0936B0385B311
S1130860846085BB85B3877F85BB80916803909145
S11308706903A0916A03B0916B030196A11DB11D98
S11308808093680390936903A0936A03B0936B0306
S113089094C00E94590D0091190410911A042091DA
S11308A01B0430911C04061717072807390708F0A2
S11308B084C08091680390916903A0916A03B09108
S11308C06B0382309105A105B10529F00397A105B9
S11308D0B105A1F162C085B3886085BB80916803CE
S11308E090916903A0916A03B0916B030196A11DD5
S11308F0B11D8093680390936903A0936A03B09336
S11309006B036091190470911A0480911B049091F7
S11309101C040E947C0EA50194010E946A0DA7018B
S113092096010E94690D0E944D0E60931904709304
S11309301A0480931B0490931C043FC085B38B7FDF
S113094085BB8091680390916903A0916A03B0917B
S11309506B030196A11DB11D8093680390936903F5
S1130960A0936A03B0936B036091190470911A0405
S113097080911B0490911C040E947C0EA50194019B
S11309800E946A0D0E944D0E6093190470931A041C
S113099080931B0490931C0410C01092680310925F
S11309A0690310926A0310926B0310921D04109253
S11309B01E0410921F04109220041F910F91FF90A7
S11309C0EF90DF90CF90BF90AF909F908F9008955D
S11309D00F931F93CF93DF93EC018091CE049091FA
S11309E0CF04892B09F03FC00E94590D8B019C0153
S11309F06093CE047093CF048093D0049093D10479
S1130A00CE01880F991FBE01660F771F660F771FEF
S1130A10660F771F680F791F80E395E70E94FB0F2D
S1130A20CB01770FAA0BBB0B080F191F2A1F3B1F03
S1130A3000936D0310936E0320936F033093700340
S1130A4081E090E0909316048093150485B380614F
S1130A5085BB809115049091160401969093160419
S1130A6080931504E3C30E94590D00916D03109106
S1130A706E0320916F033091700306171707280740
S1130A80390708F0D3C3E0911504F09116043297A6
S1130A90E331F10508F0BEC3E65DFF4F0C9431105D
S1130AA085B3806485BB80911504909116040196EA
S1130AB09093160480931504CE01880F991FBE01EC
S1130AC0660F771F660F771F660F771F680F791FF2
S1130AD080E395E70E94FB0FAB01770F660B770B62
S1130AE080916D0390916E03A0916F03B091700398
S1130AF0840F951FA61FB71F80936D0390936E03F9
S1130B00A0936F03B093700391C385B38F7E85BBAD
S1130B108091150490911604019690931604809385
S1130B201504CE01880F991FBE01660F771F660F4B
S1130B30771F660F771F680F791F80E395E70E9480
S1130B40FB0FAB01770F660B770B80916D039091D0
S1130B506E03A0916F03B0917003840F951FA61FBD
S1130B60B71F80936D0390936E03A0936F03B093AC
S1130B7070035CC385B3806285BB8091150490913A
S1130B80160401969093160480931504CE01880FE1
S1130B90991FBE01660F771F660F771F660F771FB9
S1130BA0680F791F80E395E70E94FB0FAB01770F75
S1130BB0660B770B80916D0390916E03A0916F0388
S1130BC0B0917003840F951FA61FB71F80936D0308
S1130BD090936E03A0936F03B093700327C385B300
S1130BE08F7B85BB80911504909116040196909398
S1130BF0160480931504CE01880F991FBE01660F59
S1130C00771F660F771F660F771F680F791F80E3C2
S1130C1095E70E94FB0FAB01770F660B770B809172
S1130C206D0390916E03A0916F03B0917003840FD4
S1130C30951FA61FB71F80936D0390936E03A09317
S1130C406F03B0937003F2C285B3806885BB809153
S1130C50150490911604019690931604809315043C
S1130C60CE01880F991FBE01660F771F660F771F8D
S1130C70660F771F680F791F80E395E70E94FB0FCB
S1130C80AB01770F660B770B80916D0390916E0328
S1130C90A0916F03B0917003840F951FA61FB71F17
S1130CA080936D0390936E03A0936F03B0937003CE
S1130CB0BDC285B38F7D85BB8091150490911604C8
S1130CC001969093160480931504CE01880F991F02
S1130CD0BE01660F771F660F771F660F771F680FB9
S1130CE0791F80E395E70E94FB0FAB01770F660B3A
S1130CF0770B80916D0390916E03A0916F03B09177
S1130D007003840F951FA61FB71F80936D039093E4
S1130D106E03A0936F03B093700388C285B38061A0
S1130D2085BB809115049091160401969093160446
S1130D3080931504CE01880F991FBE01660F771F9B
S1130D40660F771F660F771F680F791F80E395E79B
S1130D500E94FB0FAB01770F660B770B80916D033D
S1130D6090916E03A0916F03B0917003840F951F4F
S1130D70A61FB71F80936D0390936E03A0936F0318
S1130D80B093700353C285B38F7785BB80911504EC
S1130D909091160401969093160480931504CE0145
S1130DA0880F991FBE01660F771F660F771F660FA6
S1130DB0771F680F791F80E395E70E94FB0FAB0153
S1130DC0770F660B770B80916D0390916E03A09162
S1130DD06F03B0917003840F951FA61FB71F8093F4
S1130DE06D0390936E03A0936F03B09370031EC2C0
S1130DF085B38F7E85BB809115049091160401966E
S1130E009093160480931504CE01880F991FBE0198
S1130E10660F771F660F771F660F771F680F791F9E
S1130E2080E395E70E94FB0FAB01770F660B770B0E
S1130E3080916D0390916E03A0916F03B091700344
S1130E40840F951FA61FB71F80936D0390936E03A5
S1130E50A0936F03B0937003E9C185B3806185BB30
S1130E608091150490911604019690931604809332
S1130E701504CE01880F991FBE01660F771F660FF8
S1130E80771F660F771F680F791F80E395E70E942D
S1130E90FB0FAB01770F660B770B80916D0390917D
S1130EA06E03A0916F03B0917003840F951FA61F6A
S1130EB0B71F80936D0390936E03A0936F03B09359
S1130EC07003B4C185B3806885BB8091150490918B
S1130ED0160401969093160480931504CE01880F8E
S1130EE0991FBE01660F771F660F771F660F771F66
S1130EF0680F791F80E395E70E94FB0FAB01770F22
S1130F00660B770B80916D0390916E03A0916F0334
S1130F10B0917003840F951FA61FB71F80936D03B4
S1130F2090936E03A0936F03B09370037FC185B356
S1130F308F7E85BB80911504909116040196909341
S1130F40160480931504CE01880F991FBE01660F05
S1130F50771F660F771F660F771F680F791F80E36F
S1130F6095E70E94FB0FAB01770F660B770B80911F
S1130F706D0390916E03A0916F03B0917003840F81
S1130F80951FA61FB71F80936D0390936E03A093C4
S1130F906F03B09370034AC185B3806285BB8091AF
S1130FA015049091160401969093160480931504E9
S1130FB0CE01880F991FBE01660F771F660F771F3A
S1130FC0660F771F680F791F80E395E70E94FB0F78
S1130FD0AB01770F660B770B80916D0390916E03D5
S1130FE0A0916F03B0917003840F951FA61FB71FC4
S1130FF080936D0390936E03A0936F03B09370037B
S113100015C185B38F7785BB809115049091160423
S113101001969093160480931504CE01880F991FAE
S1131020BE01660F771F660F771F660F771F680F65
S1131030791F80E395E70E94FB0FAB01770F660BE6
S1131040770B80916D0390916E03A0916F03B09123
S11310507003840F951FA61FB71F80936D03909391
S11310606E03A0936F03B0937003E0C085B38064F4
S113107085BB8091150490911604019690931604F3
S113108080931504CE01880F991FBE01660F771F48
S1131090660F771F660F771F680F791F80E395E748
S11310A00E94FB0FAB01770F660B770B80916D03EA
S11310B090916E03A0916F03B0917003840F951FFC
S11310C0A61FB71F80936D0390936E03A0936F03C5
S11310D0B0937003ABC085B38F7D85BB809115043D
S11310E09091160401969093160480931504CE01F2
S11310F0880F991FBE01660F771F660F771F660F53
S1131100771F680F791F80E395E70E94FB0FAB01FF
S1131110770F660B770B80916D0390916E03A0910E
S11311206F03B0917003840F951FA61FB71F8093A0
S11311306D0390936E03A0936F03B093700376C016
S113114085B38F7B85BB809115049091160401961D
S11311509093160480931504CE01880F991FBE0145
S1131160660F771F660F771F660F771F680F791F4B
S113117080E395E70E94FB0FAB01770F660B770BBB
S113118080916D0390916E03A0916F03B0917003F1
S1131190840F951FA61FB71F80936D0390936E0352
S11311A0A0936F03B093700341C085B38F7E85BB5A
S11311B080911504909116040196909316048093DF
S11311C01504CE01880F991FBE01660F771F660FA5
S11311D0771F660F771F680F791F80E395E70E94DA
S11311E0FB0FAB01770F660B770B80916D0390912A
S11311F06E03A0916F03B0917003840F951FA61F17
S1131200B71F80936D0390936E03A0936F03B09305
S113121070030CC010921604109215041092CE04A0
S11312201092CF041092D0041092D104DF91CF9188
S11312301F910F9108951ABA87E886B980E487B997
S1131240089597B18F70982B97B986B1806486B949
S1131250349BFECF8AE18A95F1F700C024B185B1B1
S113126090E0982F8827820F911D08951F920F9266
S11312700FB60F9211242F933F934F935F936F9365
S11312807F938F939F93AF93BF93EF93FF9390912B
S1131290680081E0892780936800882341F081E019
S11312A00E944F018FED90E00E94D40107C081E0BD
S11312B00E944F018AEE90E00E94D4012FE788E358
S11312C091E0215080409040E1F700C0000081E0AF
S11312D00E944F01FF91EF91BF91AF919F918F9128
S11312E07F916F915F914F913F912F910F900FBE1E
S11312F00F901F9018951F920F920FB60F92112402
S11313002F933F934F935F936F937F938F939F9309
S1131310AF93BF93EF93FF939091690081E0892786
S113132080936900882341F081E00E944F0186EF99
S113133090E00E94D40107C081E00E944F018FEF2A
S113134090E00E94D4012FE788E391E0215080408F
S11313509040E1F700C0000081E00E944F01FF913E
S1131360EF91BF91AF919F918F917F916F915F9119
S11313704F913F912F910F900FBE0F901F90189592
S1131380883291053CF48AE590E090936B00809359
S11313906A000895863491053CF486E490E09093C5
S11313A06B0080936A0008958A3591053CF48CE3C0
S11313B090E090936B0080936A0008958E359105B8
S11313C034F488E290E090936B0080936A0008956F
S11313D060E070E88BE396E408954F925F926F9219
S11313E07F928F929F92AF92BF92CF92DF92EF92B1
S11313F0FF926B017C01BA01550F880B990B0E9477
S11314007E0E9B01AC0160E070E080EF91E40E94ED
S1131410DB0D4B015C012AE43CE042EA5FE3C701D7
S1131420B6010E94330F29E23CE545ED51E40E94E8
S1131430690D21E73DE34AE45FE30E94330F2B018A
S11314403C01A701960160E070E088EC92E40E9400
S1131450690D9B01AC01C301B2010E94DB0D2B019C
S11314603C010E94E8099B01AC0168ED73E186E050
S113147098E40E94DB0D6B017C012DEC3CEC4CE903
S11314805FE3C701B6010E94DB0D0E94A60F9B011A
S1131490AC01C301B2010E94330F6B017C0120E057
S11314A030E040E85FE30E942E0F18165CF4A701B9
S11314B09601C501B4010E94DB0DA50194010E94AF
S11314C0FD020CC0A7019601C501B4010E94330FAF
S11314D09B01AC01C501B4010E94FD02FF90EF9095
S11314E0DF90CF90BF90AF909F908F907F906F9040
S11314F05F904F900895609111047091120480914F
S11315001304909114040E94E80440911304509130
S1131510140460E070E0CB010E94ED09089587E2B5
S113152090E00895CF93DF930E948F0A0E94C00930
S1131530C0911304D091140460916A0070916B00FF
S1131540072E000C880B990B0E947E0EAE010E94A0
S1131550ED0960911104709112048091130490912B
S113156014040E94E804DF91CF91089585E290E08D
S1131570089581B3806181BB089580916603909141
S1131580670390936B0080936A00089580916800CC
S113159008958091690008950E94D4010895EF92FE
S11315A0FF920F931F93CF93DF938C01EB01FC0108
S11315B001900020E9F73197CF01801B910BFB01CB
S11315C001900020E9F73197E61BF70B8E0F9F1F60
S11315D001960E944B107C01B8010E949511BE0136
S11315E0C7010E948A11C701DF91CF911F910F910A
S11315F0FF90EF9008950F931F93CF93DF9300D044
S113160000D0CDB7DEB78C01CB014AE0BE016F5FDD
S11316107F4F0E949C11BE016F5F7F4FC8010E94E3
S1131620CF0ABC018BEB94E00E943C020F900F9018
S11316300F900F90DF91CF911F910F910895CF924A
S1131640DF92EF92FF920F931F93CF93DF9300D01B
S113165000D0CDB7DEB70E94B60A8C01BC01990F49
S1131660880B990B0E947E0E6B017C012DEC3CECE7
S113167044E152E40E942E0F181654F026E636E692
S113168040E152E4C701B6010E94D60D8823CCF490
S1131690B80184E191E00E94FB0A4AE0BE016F5F59
S11316A07F4FC8010E949C11BE016F5F7F4F84E190
S11316B091E00E94CF0A0E94CC0A0E94B90A80E0FD
S11316C001C081E00F900F900F900F90DF91CF91A8
S11316D01F910F91FF90EF90DF90CF90089580E5D8
S11316E090E00895EF92FF921F93CF93DF9300D081
S11316F000D0CDB7DEB70E94C90A182F8823E9F0BD
S11317000E946F0B7C018AE0E816F104B4F4B7017F
S11317108CE291E00E94FB0A4AE0BE016F5F7F4FBA
S1131720C7010E949C11BE016F5F7F4F86E491E068
S11317300E94CF0A0E94CC0A10E0812F0F900F90D4
S11317400F900F90DF91CF911F91FF90EF9008952C
S11317500F931F93CF93DF9384B3846084BB84B3CC
S1131760886084BB84B3806184BB84B3806284BB9F
S113177084B3806484BB84B3806884BB8FE087BBFC
S113178081B381BB81B381BB81B3806181BB85B7E8
S1131790826085BF85B7886085BF8BB780648BBF47
S11317A08BB780688BBF60E072E18AE790E00E94AB
S11317B0460D78940E941B090E94E1010E94E701F2
S11317C080E70E94ED010E94850180E80E944F019C
S11317D08EE591E00E94D4012FEF40E752E02150C2
S11317E040405040E1F700C0000080EC0E944F01EF
S11317F08FEF90E722E0815090402040E1F700C055
S113180000008AE691E00E94D4014FEF50E782E0A5
S1131810415050408040E1F700C0000081E00E9448
S11318204F019FEF20E742E0915020404040E1F714
S113183000C0000080E80E944F011092180410922A
S113184017042BC080EF88BB0E945C0080936C035C
S11318500091170410911804C82FD0E0CE010E9403
S11318606C11F801E554FB4F8083CE010E94D40132
S11318705FE788E391E0515080409040E1F700C079
S1131880000086B3803F01F78091170490911804FB
S113189001969093180480931704809117049091F3
S11318A018040A977CF260E875E280E090E00E94F8
S11318B0F4012FEF49E658E1215040405040E1F750
S11318C000C000000E94AC02809166009091670005
S11318D082309105A9F18330910509F45DC0019727
S11318E009F07DC080E00E9421099093D304809385
S11318F0D204880F991F9C01220F331F220F331F1C
S1131900220F331FA901481B590B9A0112F42150CD
S11319103C4F832F85958595932F990F990B0A96A4
S1131920909314048093130480916600909167004F
S1131930019690936700809366000E941B094FC034
S113194083E00E9421099093D3048093D2044AE84F
S113195052E0849F9001859F300D949F300D112497
S1131960332314F421503C4F832F85958595932F71
S1131970990F990B86509F4F9093120480931104F2
S11319808091660090916700019690936700809320
S113199066000E941B0923C084E00E9421099093E1
S11319A0D3048093D20444E6489F9001499F300DAC
S11319B01124332314F421503C4F832F880F880BB8
S11319C0932F95959595909366038093670381E093
S11319D090E090936700809366000E941B090E9428
S11319E0720B882339F10E94C60A8823C1F00E9431
S11319F01F0B882309F468CF0E948F0A20916C0082
S1131A0030916D00821793073CF480916A009091A5
S1131A106B000E94920A58CF0E947B0A55CF0E9405
S1131A201F0B0E94BD0A80916A0090916B000E9476
S1131A30920A4ACF80E090E0DF91CF911F910F91FD
S1131A4008951F920F920FB60F9211248F939F93B4
S1131A50AF93BF938091210490912204A091230419
S1131A60B09124040196A11DB11D8093210490938B
S1131A702204A0932304B0932404BF91AF919F91B7
S1131A808F910F900FBE0F901F90189520E43FE1A7
S1131A9040E050E00E940F108EB58A608EBDBB27D7
S1131AA0A52F942F832F8BBD2ABD89B7806189BF51
S1131AB00895F89421E009C06091210470912204F2
S1131AC0809123049091240420E02111F5CF78948F
S1131AD008955058BB27AA270E94810D0C94F40E38
S1131AE00E94E60E38F00E94ED0E20F039F49F3F7C
S1131AF019F426F40C94E30E0EF4E095E7FB0C9431
S1131B00DD0EE92F0E94050F58F3BA176207730719
S1131B108407950720F079F4A6F50C94270F0EF4AA
S1131B20E0950B2EBA2FA02D0B01B90190010C01E9
S1131B30CA01A0011124FF27591B99F0593F50F401
S1131B40503E68F11A16F040A22F232F342F442759
S1131B50585FF3CF469537952795A795F040539551
S1131B60C9F77EF41F16BA0B620B730B840BBAF021
S1131B709150A1F0FF0FBB1F661F771F881FC2F78C
S1131B800EC0BA0F621F731F841F48F487957795A0
S1131B906795B795F7959E3F08F0B0CF9395880F5A
S1131BA008F09927EE0F9795879508950E94B90E2E
S1131BB008F481E008950E94EF0D0C94F40E0E9445
S1131BC0ED0E58F00E94E60E40F029F45F3F29F034
S1131BD00C94DD0E51110C94280F0C94E30E0E940A
S1131BE0050F68F39923B1F3552391F3951B550B16
S1131BF0BB27AA2762177307840738F09F5F5F4FDC
S1131C00220F331F441FAA1FA9F335D00E2E3AF01A
S1131C10E0E832D091505040E695001CCAF72BD032
S1131C20FE2F29D0660F771F881FBB1F2617370783
S1131C304807AB07B0E809F0BB0B802DBF01FF27B5
S1131C4093585F4F3AF09E3F510578F00C94DD0EA7
S1131C500C94280F5F3FE4F3983ED4F38695779570
S1131C606795B795F7959F5FC9F7880F911D96956E
S1131C70879597F90895E1E0660F771F881FBB1FCA
S1131C80621773078407BA0720F0621B730B840B77
S1131C90BA0BEE1F88F7E09508950E940D0F88F0A7
S1131CA09F5798F0B92F9927B751B0F0E1F0660F1C
S1131CB0771F881F991F1AF0BA95C9F714C0B1305D
S1131CC091F00E94270FB1E008950C94270F672F1D
S1131CD0782F8827B85F39F0B93FCCF3869577958C
S1131CE06795B395D9F73EF4909580957095619575
S1131CF07F4F8F4F9F4F0895E89409C097FB3EF4A0
S1131D0090958095709561957F4F8F4F9F4F992344
S1131D10A9F0F92F96E9BB279395F69587957795C2
S1131D206795B795F111F8CFFAF4BB0F11F460FF82
S1131D301BC06F5F7F4F8F4F9F4F16C0882311F0DA
S1131D4096E911C0772321F09EE8872F762F05C0EE
S1131D50662371F096E8862F70E060E02AF09A9589
S1131D60660F771F881FDAF7880F9695879597F97E
S1131D700895990F0008550FAA0BE0E8FEEF161618
S1131D801706E807F907C0F012161306E407F5076B
S1131D9098F0621B730B840B950B39F40A2661F0DF
S1131DA0232B242B252B21F408950A2609F4A14082
S1131DB0A6958FEF811D811D089597F99F6780E88F
S1131DC070E060E008959FEF80EC089500240A9489
S1131DD01616170618060906089500240A94121602
S1131DE01306140605060895092E0394000C11F435
S1131DF0882352F0BB0F40F4BF2B11F460FF04C0E2
S1131E006F5F7F4F8F4F9F4F089557FD9058440F3A
S1131E10551F59F05F3F71F04795880F97FB991F45
S1131E2061F09F3F79F08795089512161306140602
S1131E30551FF2CF4695F1DF08C01616170618068F
S1131E40991FF1CF86957105610508940895E8946A
S1131E50BB2766277727CB0197F908950E94B90E0F
S1131E6008F48FEF08950E94460F0C94F40E0E941C
S1131E70E60E38F00E94ED0E20F0952311F00C943C
S1131E80DD0E0C94E30E11240C94280F0E94050F10
S1131E9070F3959FC1F3950F50E0551F629FF001B9
S1131EA0729FBB27F00DB11D639FAA27F00DB11DD2
S1131EB0AA1F649F6627B00DA11D661F829F22275B
S1131EC0B00DA11D621F739FB00DA11D621F839FE2
S1131ED0A00D611D221F749F3327A00D611D231FB8
S1131EE0849F600D211D822F762F6A2F11249F5706
S1131EF050409AF0F1F088234AF0EE0FFF1FBB1F09
S1131F00661F771F881F91505040A9F79E3F5105C7
S1131F1080F00C94DD0E0C94280F5F3FE4F3983EA0
S1131F20D4F3869577956795B795F795E7959F5F71
S1131F30C1F7FE2B880F911D9695879597F9089503
S1131F4019F416F40C94E30E0C94E60F0E940D0F92
S1131F50B8F39923C9F3B6F39F57550B87FF0E9433
S1131F60F40F0024A0E640EA900180585695979516
S1131F7028F4805C660F771F881F20F02617370728
S1131F80480730F4621B730B840B202931294A2B38
S1131F90A69517940794202531254A2758F7660FEC
S1131FA0771F881F20F026173707480730F4620B85
S1131FB0730B840B200D311D411DA09581F7B901D0
S1131FC0842F9158880F9695879508959F3F31F0F7
S1131FD0915020F4879577956795B795880F911D53
S1131FE09695879597F9089591505040660F771FFD
S1131FF0881FD2F7089597FB072E16F4009407D094
S113200077FD09D00E94371007FC05D03EF4909567
S113201081959F4F0895709561957F4F0895A1E232
S11320201A2EAA1BBB1BFD010DC0AA1FBB1FEE1F4E
S1132030FF1FA217B307E407F50720F0A21BB30B99
S1132040E40BF50B661F771F881F991F1A9469F715
S113205060957095809590959B01AC01BD01CF0171
S11320600895EE0FFF1F0590F491E02D0994AA1B2B
S1132070BB1B51E107C0AA1FBB1FA617B70710F06F
S1132080A61BB70B881F991F5A95A9F780959095A1
S1132090BC01CD0108950F931F93CF93DF9382303A
S11320A0910510F482E090E0E091D604F091D70419
S11320B020E030E0A0E0B0E0309719F14081518198
S11320C00281138148175907C8F08417950769F4EA
S11320D0109731F012960C93129713961C9327C005
S11320E00093D6041093D70422C02115310519F0AA
S11320F04217530718F49A01BD01EF01DF01F801FB
S1132100DBCF21153105F9F0281B390B24303105BB
S113211080F48A819B816115710521F0FB01938311
S1132120828304C09093D7048093D604FE01329630
S113213044C0FE01E20FF31F8193919322503109B1
S1132140398328833AC02091D4043091D504232BB9
S113215041F420916200309163003093D5042093C0
S1132160D40420916000309161002115310541F4BF
S11321702DB73EB74091640050916500241B350B88
S1132180E091D404F091D504E217F307A0F42E1BD8
S11321903F0B2817390778F0AC014E5F5F4F2417C7
S11321A0350748F04E0F5F1F5093D5044093D40475
S11321B08193919302C0E0E0F0E0CF01DF91CF91F1
S11321C01F910F910895CF93DF93009709F481C075
S11321D0FC01329713821282A091D604B091D704E5
S11321E0109781F420813181820F931F2091D404B0
S11321F03091D5042817390751F5F093D504E093AD
S1132200D40467C0ED0120E030E0CE17DF0740F4CE
S11322104A815B819E0141155105F1F0EA01F5CF38
S1132220D383C28340815181840F951FC817D90776
S113223059F488819981840F951F02969183808334
S11322408A819B81938382832115310529F4F0933C
S1132250D704E093D6043DC0E901FB83EA834991A6
S11322605991C40FD51FEC17FD0761F4808191814A
S1132270840F951F0296E901998388838281938153
S11322809B838A83E0E0F0E012968D919C911397F2
S1132290009719F0FD01DC01F7CF8D919C91119706
S11322A09D012E5F3F4F820F931F2091D4043091E4
S11322B0D5042817390769F4309729F41092D70404
S11322C01092D60402C013821282B093D504A09354
S11322D0D404DF91CF910895FC0188279927E894CD
S11322E021912032E9F3293010F02E30C8F32B323B
S11322F041F02D3239F4689404C00E94A711820F72
S1132300911D219120532A30C0F31EF4909581959C
S11323109F4F0895FB01DC010D900020E9F7119710
S113232001900D920020E1F70895FB01DC0101907A
S11323300D920020E1F70895BB274A3031F4992328
S113234022F4BDE2909581959F4F0C94B0117AE0F0
S1132350979F902D879F802D910D11240895BB2761
S1132360FB015527AA27880F991FAA1FA41710F04D
S1132370A41B83955051B9F7A05DAA3308F0A95D59
S1132380A193009779F7B111B1931192CB010C94F9
S1132390E213AEE0B0E0EFECF1E10C949A140D8995
S11323A01E8986E08C831A8309838FEF9FE79E83BF
S11323B08D83AE01475E5F4F6F89788DCE010196A4
S11323C00E94EB11EF81F885E00FF11F10822E9629
S11323D0E4E00C94B614ABE0B0E0E1EFF1E10C946E
S11323E08C146C017B018A01FC01178216828381A3
S11323F081FFCCC1CE0101963C01F6019381F70126
S113240093FD859193FF81917F01882309F4BAC1DB
S1132410853239F493FD859193FF81917F01853253
S113242029F4B60190E00E94F213E7CF912C212CFD
S1132430312CFFE1F315D8F08B3279F038F4803287
S113244079F08332A1F4232D20611DC08D3261F017
S1132450803369F4232D216016C0832D8260382EC9
S1132460E32DE4603E2E2AC0F32DF8601DC037FC36
S11324702DC020ED280F2A3040F08E32B9F436FCFE
S113248081C1232D2064322E19C036FE06C08AE095
S1132490989E200D1124922E11C0EAE02E9E200D4C
S11324A01124222EF32DF0623F2E08C08C3621F425
S11324B0832D8068382E02C0883641F4F70193FDDD
S11324C0859193FF81917F018111B3CF982F9F7DD7
S11324D09554933028F40C5F1F4F9FE399830DC0EC
S11324E0833631F0833771F0833509F059C021C048
S11324F0F801808189830E5F1F4F88248394912C77
S1132500530113C02801F2E04F0E511CF801A080C2
S1132510B18036FE03C0692D70E002C06FEF7FEF1B
S1132520C5010E94D7134C018201F32DFF773F2E82
S113253016C0280122E0420E511CF801A080B1808F
S113254036FE03C0692D70E002C06FEF7FEFC50156
S11325500E94CC134C01F32DF0683F2E820133FC12
S11325601BC0822D90E088169906B0F4B60180E273
S113257090E00E94F2132A94F4CFF50137FC859180
S113258037FE81915F01B60190E00E94F2132110A1
S11325902A9421E0821A91088114910471F7E8C009
S11325A0843611F0893641F5F80137FE07C06081A1
S11325B07181828193810C5F1F4F08C0608171819A
S11325C0072E000C880B990B0E5F1F4FF32DFF761F
S11325D03F2E97FF09C090958095709561957F4F28
S11325E08F4F9F4FF0683F2E2AE030E0A3010E94F6
S11325F02E14882E861845C0853731F4232D2F7E5E
S1132600B22E2AE030E025C0932D997FB92E8F3663
S1132610C1F018F4883579F0B5C0803719F08837DF
S113262021F0B0C0E92FE061BE2EB4FE0DC0FB2D39
S1132630F460BF2E09C034FE0AC0292F2660B22ED2
S113264006C028E030E005C020E130E002C020E10F
S113265032E0F801B7FE07C0608171818281938105
S11326600C5F1F4F06C06081718180E090E00E5FB7
S11326701F4FA3010E942E14882E8618FB2DFF776E
S11326803F2E36FE0DC0232D2E7FA22E891458F422
S113269034FE0BC032FC09C0832D8E7EA82E05C0EB
S11326A0B82CA32C03C0B82C01C0B92CA4FE0FC0B5
S11326B0FE01E80DF11D8081803321F49A2D997E6D
S11326C0A92E09C0A2FE06C0B394B39404C08A2DF7
S11326D0867809F0B394A3FC11C0A0FE06C0B2141E
S11326E088F4280C922C9B180EC0B21460F4B60126
S11326F080E290E00E94F213B394F7CFB21418F47E
S11327002B1802C0982C212CA4FE10C0B60180E323
S113271090E00E94F213A2FE17C0A1FC03C088E758
S113272090E002C088E590E0B6010CC08A2D86785E
S113273059F0A1FE02C08BE201C080E2A7FC8DE249
S1132740B60190E00E94F213891438F4B60180E3D4
S113275090E00E94F2139A94F7CF8A94F301E80D63
S1132760F11D8081B60190E00E94F2138110F5CF33
S1132770222009F442CEB60180E290E00E94F213D6
S11327802A94F6CFF6018681978102C08FEF9FEFDE
S11327902B96E2E10C94A814FC0105906150704062
S11327A00110D8F7809590958E0F9F1F0895FC0116
S11327B06150704001900110D8F7809590958E0F6C
S11327C09F1F0895DC01FC01672F71917723E1F7C6
S11327D0329704C07C916D9370836291AE17BF07EA
S11327E0C8F308950F931F93CF93DF93FB012381C5
S11327F021FD03C08FEF9FEF2CC022FF16C046813E
S11328005781248135814217530744F4A081B18153
S11328109D012F5F3F4F318320838C932681378125
S11328202F5F3F4F3783268314C08B01EC01FB01DC
S11328300084F185E02D0995892BE1F6D8011696DF
S11328408D919C911797019617969C938E9316974A
S1132850CE01DF91CF911F910F910895FA01AA271C
S1132860283051F1203181F1E8946F936E7F6E5FCF
S11328707F4F8F4F9F4FAF4FB1E03ED0B4E03CD07D
S1132880670F781F891F9A1FA11D680F791F8A1F60
S1132890911DA11D6A0F711D811D911DA11D20D0C7
S11328A009F468943F912AE0269F11243019305D81
S11328B03193DEF6CF010895462F4770405D419372
S11328C0B3E00FD0C9F7F6CF462F4F70405D4A33BF
S11328D018F0495D31FD4052419302D0A9F7EACF87
S11328E0B4E0A6959795879577956795BA95C9F7B6
S11328F000976105710508959B01AC010A2E0694A9
S11329005795479537952795BA95C9F7620F731F61
S1132910841F951FA01D08952F923F924F925F929E
S11329206F927F928F929F92AF92BF92CF92DF92DB
S1132930EF92FF920F931F93CF93DF93CDB7DEB740
S1132940CA1BDB0B0FB6F894DEBF0FBECDBF0994D4
S11329502A88398848885F846E847D848C849B842B
S1132960AA84B984C884DF80EE80FD800C811B8139
S1132970AA81B981CE0FD11D0FB6F894DEBF0FBE68
S10D2980CDBFED010895F894FFCFD8
S113298A0000D8042000010001015A005E00310051
S113299A320033003400350036003700380039007D
S11329AA64656C0030006F6B0041540D0041542B78
S11329BA434D47463D310D0041542B434D47533D4A
S11329CA25730D00415445300D006D6F62697465BD
S11329DA6C006469616C6F670041542B435354540F
S11329EA3D222573222C222573222C222573220DA3
S11329FA0041542B53415042523D312C310D004F6A
S1132A0A32204175746F204F6E004F322041757425
S1132A1A6F204F666600506F776572204F6E0050C4
S1132A2A6F776572204F6666007472756500666119
S1132A3A6C73650054656D70657261747572652096
S1132A4A4E6F74204E6F726D616C2D004F787967EA
S1132A5A656E2054616E6B2050657263656E746195
S1132A6A6765203A20004F787967656E2054616E55
S1132A7A6B2050657263656E746167652000456EEC
S1132A8A7465722050686F6E65004E756D6265726A
S1052A9A000036
S9030000FC
