S0180000536D6172742056656E74696C61746F722E73726563BD
S11300000C942A000C9447000C9447000C9447006D
S11300100C9447000C9447000C9447000C94470040
S11300200C9447000C9447000C9447000C94470030
S11300300C9447000C9447000C9447000C94470020
S11300400C9447000C9447000C9447000C94470010
S11300500C94470011241FBECFE5D8E0DEBFCDBF0E
S113006010E0A0E6B0E0E6E7F7E102C005900D92EB
S1130070A43CB107D9F721E0A4ECB0E001C01D9283
S1130080A837B207E1F70E94CE030C94B90B0C9485
S11300900000AF92BF92CF92DF92EF92FF920F9344
S11300A01F93CF93DF9300D0CDB7DEB7E12CF12CB3
S11300B020E6E2162AEEF20608F04BC0E4ECF0E08B
S11300C001900020E9F73197E45CF0406F01B9F149
S11300D08FE99FE00197F1F700C000009FEFE91A54
S11300E0F90AA4ECB0E00D900020E9F71197A45CA4
S11300F0B040EA17FB0719F51BC08A818983F80110
S1130100EC53FF4F80818A8342E050E06CE670E05C
S1130110CE0101960E947208892B39F0C50101961F
S113012022E0A216B104A9F05C010F5F1F4F04C0C6
S113013000E010E0A12CB12C0C151D05F4F28FEC9D
S113014097E00197F1F700C000009FEFE91AF90A60
S1130150AFCF0F900F90DF91CF911F910F91FF9030
S1130160EF90DF90CF90BF90AF9008958FE690E02E
S11301700E943F042FEF84E39CE021508040904094
S1130180E1F700C0000065E770E084EC90E00E94B5
S11301908008892B59F30E94490080EAE4ECF0E0DE
S11301A0DF011D928A95E9F7BFEF29E688E1B15096
S11301B020408040E1F700C0000088E790E00E9402
S11301C03F040E9449009FEFA9E6B8E19150A04086
S11301D0B040E1F700C00000089507C08FEC97E03D
S11301E00197F1F700C00000C9019C0121503109B9
S11301F0892BA1F708956B017C0149015A010E94E2
S11302002106181624F585B3846085BB85B3877FE2
S113021085BBC701B6010E9439052B013C01CB0106
S11302200E94ED0085B38B7F85BBA5019401C701B6
S1130230B6010E9455040E943905CB010E94ED00CD
S113024085B3886085BBC2010E94ED00DCCF85B315
S1130250846085BB85B3877F85BBC701B6010E94D7
S11302603905CB010E94ED0085B38B7F85BBA701C7
S11302709601C501B4010E9455040E943905CB01C1
S11302800E94ED0085B3886085BBC501B4010E945E
S11302903905CB010E94ED00DACF4F925F926F9245
S11302A07F928F929F92AF92BF92CF92DF92EF9202
S11302B0FF920F931F93CF93DF9300D000D0CDB75D
S11302C0DEB729833A834B835C83270138019B0182
S11302D0AC01C601B5010E9426066B017C0129818F
S11302E03A814B815C81CA01B9010E9456044B01D9
S11302F05C01A5019401C301B2010E94C7040E94DC
S113030099069B01AC01C701B6010E9426060F9015
S11303100F900F900F90DF91CF911F910F91FF904D
S1130320EF90DF90CF90BF90AF909F908F907F9091
S11303306F905F904F90089560E070E0CB01089556
S11303404F925F926F927F928F929F92AF92BF92E1
S1130350CF92DF92EF92FF920F931F93CF93DF938D
S113036000D000D0CDB7DEB769837A838B839C83BA
S113037029013A01C801B701A60195010E94C704E9
S11303806B017C0129813A814B815C81CA01B901ED
S11303900E9456044B015C01A3019201C501B40102
S11303A00E94C7040E9499069B01AC01C701B601D3
S11303B00E9426060F900F900F900F90DF91CF911F
S11303C01F910F91FF90EF90DF90CF90BF90AF906F
S11303D09F908F907F906F905F904F900895CF93F0
S11303E0DF93CDB7DEB760970FB6F894DEBF0FBECC
S11303F0CDBF6B017C018EE190E0BA010E94EE0654
S1130400072E000C880B990B0E9471056D837E8367
S11304108F83988720E030E048EC52E4C701B601AE
S11304200E94C70469837A838B839C839B01AC01FC
S113043060E070E080E89FE30E94550469877A8752
S11304408B879C872FE632E143E05AE30E9426061D
S11304502BEA36E749E25BE30E9426064B015C0186
S11304602FE632E143E05AE369817A818B819C81F2
S11304700E9426066D877E878F87988B0E949C0139
S11304802B013C019B01AC010E9456046B017C01D1
S1130490A70196016DEC7CEC8CE99FE30E94C704F4
S11304A00E9499069B01AC016D857E858F85988994
S11304B00E9426069B01AC01C501B4010E942106DD
S11304C0181634F5A984BA84CB84DC84ED80FE80CC
S11304D00F8118852DEC3CEC4CE95FE360E876EE87
S11304E085EC97E40E94A0011DECE12E1CECF12E9A
S11304F00CE91FE320E836EE45EC57E40E944D0179
S11305009B01AC016D817E818F8198850E94FB00E7
S1130510A980BA80CB80DC80ED80FE800F811885B5
S113052024EA30E74DEA5FE3C301B2010E94A0016F
S113053014EAE12E10E7F12E0DEA1FE3A301920164
S11305400E944D012D813E814F8158850E94FB0000
S1130550C0916800D0916900609166007091670055
S1130560072E000C880B990B0E947105AE010E94A6
S1130570EF01409168005091690060E070E088EC00
S113058092E40E94EF0180E090E0089580E090E022
S1130590089581E0089581E00895EF92FF920F930A
S11305A01F93CF93DF938C01EB01FC01019000209A
S11305B0E9F73197CF01801B910BFB0101900020DB
S11305C0E9F73197E61BF70B8E0F9F1F01960E94E8
S11305D038077C01B8010E946B08BE01C7010E9464
S11305E06008C701DF91CF911F910F91FF90EF90A9
S11305F00895EF92FF920F931F93CF93DF93CDB79C
S1130600DEB7A3970FB6F894DEBF0FBECDBF8B0144
S113061010927301109272019F938F9383E890E07C
S11306209F938F93CE0101967C019F938F930E9499
S1130630BF08C7010E943F049FEF21EE84E0915060
S113064020408040E1F700C000000F900F900F9011
S11306500F900F900F90E0917201F0917301EC53A1
S1130660FF4F80818E33D1F4109273011092720186
S1130670E4ECF0E001900020E9F73197AF01445C2D
S1130680504060E070E084EC90E00E945908C8019A
S11306900E943F048AE10E943B040AC080917201D7
S11306A09091730101969093730180937201D3CF5B
S11306B0A3960FB6F894DEBF0FBECDBFDF91CF91E6
S11306C01F910F91FF90EF9008950F931F93CF9375
S11306D0DF9300D000D0CDB7DEB78C01CB014AE068
S11306E0BE016F5F7F4F0E949A08BE016F5F7F4F0C
S11306F0C8010E94CD02BC0184E691E00E94F90287
S11307000F900F900F900F90DF91CF911F910F9149
S11307100895CF92DF92EF92FF92CF93DF930E94DE
S1130720C602EC01BC01990F880B990B0E9471055C
S11307306B017C012DEC3CEC44E152E40E94210667
S1130740181654F026E636E640E152E4C701B60135
S11307500E94C20488232CF4BE0181E990E00E9427
S1130760650381E0DF91CF91FF90EF90DF90CF9010
S113077008950895CF930E94CB02C82F882359F07F
S11307800E94B9038A30910534F4BC0189EA90E0EF
S11307900E946503C0E08C2FCF91089584B38460D8
S11307A084BB84B3886084BB60E875E280E090E039
S11307B00E940D042FEF8DE399E421508040904076
S11307C0E1F700C000000E94B6000E94BA0388232B
S11307D009F10E94C9028823A9F00E948903882391
S11307E019F30E94C30220916A0030916B008217B2
S11307F0930734F480916600909167000E94A802E8
S11308000E94B9020E94890380916600909167005A
S11308100E94A80280E090E008952AB128692AB9CC
S113082020B5266820BDDC01CB01880F991FAA1FC3
S1130830BB1F880F991FAA1FBB1F9C01AD01220F6C
S1130840331F441F551F220F331F441F551F60E0E1
S113085072E18AE790E00E9402078FEF820F89B964
S1130860DA01C9010197A109B109892F9A2FAB2F88
S1130870BB2780BD08958CB95D9BFECF08950F936F
S11308801F93CF93DF938C01C0E0D0E003C00E949C
S11308903B042196F801EC0FFD1F80818111F7CFF5
S11308A0DF91CF911F910F9108955058BB27AA272C
S11308B00E946D040C94E7050E94D90538F00E944B
S11308C0E00520F039F49F3F19F426F40C94D60582
S11308D00EF4E095E7FB0C94D005E92F0E94F8058F
S11308E058F3BA17620773078407950720F079F461
S11308F0A6F50C941A060EF4E0950B2EBA2FA02D33
S11309000B01B90190010C01CA01A0011124FF27B8
S1130910591B99F0593F50F4503E68F11A16F040B3
S1130920A22F232F342F4427585FF3CF46953795B2
S11309302795A795F0405395C9F77EF41F16BA0B77
S1130940620B730B840BBAF09150A1F0FF0FBB1F25
S1130950661F771F881FC2F70EC0BA0F621F731F6E
S1130960841F48F4879577956795B795F7959E3FCB
S113097008F0B0CF9395880F08F09927EE0F97955C
S1130980879508950E94AC0508F481E008950E94BB
S1130990DB040C94E7050E94E00558F00E94D90599
S11309A040F029F45F3F29F00C94D00551110C94C8
S11309B01B060C94D6050E94F80568F39923B1F33D
S11309C0552391F3951B550BBB27AA276217730771
S11309D0840738F09F5F5F4F220F331F441FAA1F05
S11309E0A9F335D00E2E3AF0E0E832D091505040C1
S11309F0E695001CCAF72BD0FE2F29D0660F771F6F
S1130A00881FBB1F261737074807AB07B0E809F054
S1130A10BB0B802DBF01FF2793585F4F3AF09E3FD9
S1130A20510578F00C94D0050C941B065F3FE4F359
S1130A30983ED4F3869577956795B795F7959F5F1C
S1130A40C9F7880F911D9695879597F90895E1E068
S1130A50660F771F881FBB1F621773078407BA07C7
S1130A6020F0621B730B840BBA0BEE1F88F7E09522
S1130A7008950E9440056894B1110C941B060895D2
S1130A800E94000688F09F5798F0B92F9927B75114
S1130A90B0F0E1F0660F771F881F991F1AF0BA951E
S1130AA0C9F714C0B13091F00E941A06B1E008955C
S1130AB00C941A06672F782F8827B85F39F0B93F4E
S1130AC0CCF3869577956795B395D9F73EF49095D1
S1130AD08095709561957F4F8F4F9F4F0895E8944F
S1130AE009C097FB3EF490958095709561957F4F72
S1130AF08F4F9F4F9923A9F0F92F96E9BB27939520
S1130B00F695879577956795B795F111F8CFFAF42F
S1130B10BB0F11F460FF1BC06F5F7F4F8F4F9F4F60
S1130B2016C0882311F096E911C0772321F09EE8BE
S1130B30872F762F05C0662371F096E8862F70E024
S1130B4060E02AF09A95660F771F881FDAF7880FFE
S1130B509695879597F90895990F0008550FAA0B54
S1130B60E0E8FEEF16161706E807F907C0F01216BC
S1130B701306E407F50798F0621B730B840B950BBF
S1130B8039F40A2661F0232B242B252B21F4089514
S1130B900A2609F4A140A6958FEF811D811D0895B1
S1130BA097F99F6780E870E060E008959FEF80EC1C
S1130BB0089500240A9416161706180609060895BF
S1130BC000240A9412161306140605060895092E25
S1130BD00394000C11F4882352F0BB0F40F4BF2B94
S1130BE011F460FF04C06F5F7F4F8F4F9F4F0895D4
S1130BF057FD9058440F551F59F05F3F71F04795CA
S1130C00880F97FB991F61F09F3F79F087950895AE
S1130C10121613061406551FF2CF4695F1DF08C0CD
S1130C20161617061806991FF1CF869571056105EA
S1130C3008940895E894BB2766277727CB0197F992
S1130C4008950E94AC0508F48FEF08950E943906B8
S1130C500C94E7050E94D90538F00E94E00520F0C5
S1130C60952311F00C94D0050C94D60511240C9402
S1130C701B060E94F80570F3959FC1F3950F50E091
S1130C80551F629FF001729FBB27F00DB11D639F3A
S1130C90AA27F00DB11DAA1F649F6627B00DA11DE0
S1130CA0661F829F2227B00DA11D621F739FB00D86
S1130CB0A11D621F839FA00D611D221F749F3327F6
S1130CC0A00D611D231F849F600D211D822F762F8F
S1130CD06A2F11249F5750409AF0F1F088234AF06C
S1130CE0EE0FFF1FBB1F661F771F881F91505040D8
S1130CF0A9F79E3F510580F00C94D0050C941B0677
S1130D005F3FE4F3983ED4F3869577956795B7955E
S1130D10F795E7959F5FC1F7FE2B880F911D969578
S1130D20879597F9089519F416F40C94D6050C9444
S1130D30D9060E940006B8F39923C9F3B6F39F5766
S1130D40550B87FF0E94E7060024A0E640EA9001C5
S1130D5080585695979528F4805C660F771F881FF6
S1130D6020F026173707480730F4621B730B840BF7
S1130D70202931294A2BA69517940794202531253B
S1130D804A2758F7660F771F881F20F02617370762
S1130D90480730F4620B730B840B200D311D411D89
S1130DA0A09581F7B901842F9158880F969587955E
S1130DB008959F3F31F0915020F48795779567957A
S1130DC0B795880F911D9695879597F90895915039
S1130DD05040660F771F881FD2F7089597FB072EA0
S1130DE016F4009407D077FD09D00E94240707FC6D
S1130DF005D03EF4909581959F4F08957095619527
S1130E007F4F0895A1E21A2EAA1BBB1BFD010DC042
S1130E10AA1FBB1FEE1FFF1FA217B307E407F507A6
S1130E2020F0A21BB30BE40BF50B661F771F881F82
S1130E30991F1A9469F760957095809590959B0118
S1130E40AC01BD01CF010895AA1BBB1B51E107C032
S1130E50AA1FBB1FA617B70710F0A61BB70B881F46
S1130E60991F5A95A9F780959095BC01CD010895D5
S1130E700F931F93CF93DF938230910510F482E098
S1130E8090E0E0917601F091770120E030E0A0E07D
S1130E90B0E0309719F140815181028113814817E4
S1130EA05907C8F08417950769F4109731F0129622
S1130EB00C93129713961C9327C0009376011093FA
S1130EC0770122C02115310519F04217530718F490
S1130ED09A01BD01EF01DF01F801DBCF21153105D6
S1130EE0F9F0281B390B2430310580F48A819B8169
S1130EF06115710521F0FB019383828304C09093F3
S1130F00770180937601FE01329644C0FE01E20F20
S1130F10F31F8193919322503109398328833AC076
S1130F202091740130917501232B41F420916200CA
S1130F303091630030937501209374012091600017
S1130F40309161002115310541F42DB73EB7409130
S1130F50640050916500241B350BE0917401F091FD
S1130F607501E217F307A0F42E1B3F0B281739076E
S1130F7078F0AC014E5F5F4F2417350748F04E0FF1
S1130F805F1F50937501409374018193919302C044
S1130F90E0E0F0E0CF01DF91CF911F910F91089530
S1130FA0CF93DF93009709F481C0FC013297138239
S1130FB01282A0917601B0917701109781F420817B
S1130FC03181820F931F209174013091750128178C
S1130FD0390751F5F0937501E093740167C0ED0191
S1130FE020E030E0CE17DF0740F44A815B819E01A8
S1130FF041155105F1F0EA01F5CFD383C283408155
S11310005181840F951FC817D90759F48881998194
S1131010840F951F0296918380838A819B81938399
S113102082832115310529F4F0937701E093760149
S11310303DC0E901FB83EA8349915991C40FD51F4F
S1131040EC17FD0761F480819181840F951F02964E
S1131050E90199838883828193819B838A83E0E079
S1131060F0E012968D919C911397009719F0FD0171
S1131070DC01F7CF8D919C9111979D012E5F3F4F1D
S1131080820F931F2091740130917501281739073D
S113109069F4309729F4109277011092760102C016
S11310A013821282B0937501A0937401DF91CF91E2
S11310B00895DC0101C06D9341505040E0F708955C
S11310C0FB01DC010D900020E9F7119701900D92CE
S11310D00020E1F70895FB01DC0101900D9200204E
S11310E0E1F70895FB01DC014150504030F08D914F
S11310F00190801919F40020B9F7881B990B089501
S1131100FB0151915523A9F0BF01DC014D91451715
S11311104111E1F759F4CD010190002049F04D91BE
S113112040154111C9F3FB014111EFCF81E090E07B
S113113001970895BB274A3031F4992322F4BDE284
S1131140909581959F4F0C94A608BB27FB015527CA
S1131150AA27880F991FAA1FA41710F0A41B839510
S11311605051B9F7A05DAA3308F0A95DA193009787
S113117079F7B111B1931192CB010C94D80AAEE076
S1131180B0E0E5ECF8E00C94900B0D891E8986E044
S11311908C831A8309838FEF9FE79E838D83AE012F
S11311A0475E5F4F6F89788DCE0101960E94E108FA
S11311B0EF81F885E00FF11F10822E96E4E00C9485
S11311C0AC0BABE0B0E0E7EEF8E00C94820B6C0102
S11311D07B018A01FC0117821682838181FFCCC1C5
S11311E0CE0101963C01F6019381F70193FD8591AF
S11311F093FF81917F01882309F4BAC1853239F4C0
S113120093FD859193FF81917F01853229F4B60185
S113121090E00E94E80AE7CF912C212C312CFFE1C9
S1131220F315D8F08B3279F038F4803279F08332C8
S1131230A1F4232D20611DC08D3261F0803369F447
S1131240232D216016C0832D8260382EE32DE460A7
S11312503E2E2AC0F32DF8601DC037FC2DC020EDB2
S1131260280F2A3040F08E32B9F436FC81C1232D88
S11312702064322E19C036FE06C08AE0989E200DE6
S11312801124922E11C0EAE02E9E200D1124222E4C
S1131290F32DF0623F2E08C08C3621F4832D806834
S11312A0382E02C0883641F4F70193FD859193FFEF
S11312B081917F018111B3CF982F9F7D95549330F5
S11312C028F40C5F1F4F9FE399830DC0833631F0E0
S11312D0833771F0833509F059C021C0F80180814A
S11312E089830E5F1F4F88248394912C530113C06C
S11312F02801F2E04F0E511CF801A080B18036FEA7
S113130003C0692D70E002C06FEF7FEFC5010E943A
S1131310CD0A4C018201F32DFF773F2E16C0280120
S113132022E0420E511CF801A080B18036FE03C0B9
S1131330692D70E002C06FEF7FEFC5010E94C20A01
S11313404C01F32DF0683F2E820133FC1BC0822D2B
S113135090E088169906B0F4B60180E290E00E940D
S1131360E80A2A94F4CFF50137FC859137FE819180
S11313705F01B60190E00E94E80A21102A9421E05E
S1131380821A91088114910471F7E8C0843611F02F
S1131390893641F5F80137FE07C060817181828189
S11313A093810C5F1F4F08C060817181072E000C70
S11313B0880B990B0E5F1F4FF32DFF763F2E97FF7F
S11313C009C090958095709561957F4F8F4F9F4F81
S11313D0F0683F2E2AE030E0A3010E94240B882EFF
S11313E0861845C0853731F4232D2F7EB22E2AE08E
S11313F030E025C0932D997FB92E8F36C1F018F4B3
S1131400883579F0B5C0803719F0883721F0B0C03D
S1131410E92FE061BE2EB4FE0DC0FB2DF460BF2E9B
S113142009C034FE0AC0292F2660B22E06C028E067
S113143030E005C020E130E002C020E132E0F801F4
S1131440B7FE07C060817181828193810C5F1F4F59
S113145006C06081718180E090E00E5F1F4FA301A0
S11314600E94240B882E8618FB2DFF773F2E36FE14
S11314700DC0232D2E7FA22E891458F434FE0BC0E8
S113148032FC09C0832D8E7EA82E05C0B82CA32C57
S113149003C0B82C01C0B92CA4FE0FC0FE01E80D96
S11314A0F11D8081803321F49A2D997EA92E09C0E3
S11314B0A2FE06C0B394B39404C08A2D867809F0C2
S11314C0B394A3FC11C0A0FE06C0B21488F4280C87
S11314D0922C9B180EC0B21460F4B60180E290E026
S11314E00E94E80AB394F7CFB21418F42B1802C080
S11314F0982C212CA4FE10C0B60180E390E00E9439
S1131500E80AA2FE17C0A1FC03C088E790E002C06D
S113151088E590E0B6010CC08A2D867859F0A1FECA
S113152002C08BE201C080E2A7FC8DE2B60190E02C
S11315300E94E80A891438F4B60180E390E00E941E
S1131540E80A9A94F7CF8A94F301E80DF11D80819B
S1131550B60190E00E94E80A8110F5CF222009F438
S113156042CEB60180E290E00E94E80A2A94F6CFC7
S1131570F6018681978102C08FEF9FEF2B96E2E1FF
S11315800C949E0BFC010590615070400110D8F73B
S1131590809590958E0F9F1F0895FC0161507040B7
S11315A001900110D8F7809590958E0F9F1F089594
S11315B0DC01FC01672F71917723E1F7329704C0B6
S11315C07C916D9370836291AE17BF07C8F3089541
S11315D00F931F93CF93DF93FB01238121FD03C05E
S11315E08FEF9FEF2CC022FF16C0468157812481C4
S11315F035814217530744F4A081B1819D012F5FC7
S11316003F4F318320838C93268137812F5F3F4F57
S11316103783268314C08B01EC01FB010084F18520
S1131620E02D0995892BE1F6D80116968D919C91B0
S11316301797019617969C938E931697CE01DF9178
S1131640CF911F910F910895FA01AA27283051F1E3
S1131650203181F1E8946F936E7F6E5F7F4F8F4FDF
S11316609F4FAF4FB1E03ED0B4E03CD0670F781F3E
S1131670891F9A1FA11D680F791F8A1F911DA11D23
S11316806A0F711D811D911DA11D20D009F468945C
S11316903F912AE0269F11243019305D3193DEF604
S11316A0CF010895462F4770405D4193B3E00FD0BA
S11316B0C9F7F6CF462F4F70405D4A3318F0495DA5
S11316C031FD4052419302D0A9F7EACFB4E0A69588
S11316D09795879577956795BA95C9F700976105AA
S11316E0710508959B01AC010A2E06945795479500
S11316F037952795BA95C9F7620F731F841F951FF5
S1131700A01D08952F923F924F925F926F927F9205
S11317108F929F92AF92BF92CF92DF92EF92FF92FD
S11317200F931F93CF93DF93CDB7DEB7CA1BDB0BA9
S11317300FB6F894DEBF0FBECDBF09942A8839884E
S113174048885F846E847D848C849B84AA84B98455
S1131750C884DF80EE80FD800C811B81AA81B98161
S1131760CE0FD11D0FB6F894DEBF0FBECDBFED0175
S10917700895F894FFCF78
S11317760000780120003C00120061000D0A0041BF
S11317865445300D004F4B0041542B434D47463DC5
S1131796310D0041542B434D47533D222573220DF1
S11317A60054656D7065726174757265204E6F7450
S11317B6204E6F726D616C2D004F787967656E20CF
S11317C654616E6B2050657263656E746167652043
S10717D63A200000B1
S9030000FC
